:020000040800F2
:10000000F8040020D5000008230D00081F0D00088B
:1000100000000000000000000000000000000000E0
:100020000000000000000000000000009F0D00081C
:1000300000000000000000009D0D0008A10D000858
:10004000000000000000000000000000E7000008C1
:10005000E7000008E7000008E7000008E7000008E4
:100060000000000000000000000000000000000090
:10007000E7000008E7000008E700000800000000B3
:1000800000000000E7000008000000000000000081
:1000900000000000D50D000800000000E700000887
:1000A00000000000E700000800000000E700000872
:1000B0000000000000000000000000000000000040
:1000C0000348854600F04EF80048004789010008C3
:1000D000F80400200448804704480047FEE7FEE794
:1000E000FEE7FEE7FEE7FEE7A90D0008C1000008F5
:1000F00030B50B46014600202022012409E00D46C0
:10010000D5409D4205D31D469540491B2546954047
:1001100040191546521E002DF1DC30BD03460B433D
:100120009B0703D009E008C9121F08C0042AFAD2AD
:1001300003E00B780370401C491C521EF9D2704733
:10014000D2B201E00270401C491EFBD2704700226F
:10015000F6E710B513460A4604461946FFF7F0FFC6
:10016000204610BD064C0125064E05E0E36807CC8D
:100170002B430C3C98471034B442F7D3FFF7A4FF4D
:10018000580F0008780F000870B50125ED0600240F
:1001900006E0A0002858A100064A5050601CC4B2D6
:1001A000302CF6DB012040070349886000F05CFE3C
:1001B000002070BD0000002000ED00E000B58BB015
:1001C0001C2104A8FFF7C3FF0020009001900290BB
:1001D00003900B200490FF2001300790002008902E
:1001E0001048008AC004C00C0121C90308430990CB
:1001F000002005900A9004A800F0C2FA002801D05F
:1002000000F056F807200090002001900290039023
:100210000021684600F0A2F9002801D000F048F85B
:100220000BB000BD000FFF1F10B586B0044600BF25
:1002300000BF1448406B0121084312494863084637
:10024000406BC007C00F009000BF00BF00BF600040
:100250000D49085A019001200290002003900220CD
:100260000490A100094A505801A900F023F8620047
:10027000054B995AA200054B9858012200F0FCF852
:1002800006B010BD001002403C0F0008C400002062
:1002900010B504466200044B995AA200034B9858CB
:1002A00000F0E2F810BD00003C0F0008C400002080
:1002B00000BFFEE770B503460022CBE00126964062
:1002C0000C683440002C71D04D68022D02D04D686E
:1002D000122D15D1D508AE001D462035A859550759
:1002E000EE0E0F25B5400646AE4330465607F60ED5
:1002F0000D69B5402843D508AD001E462036705123
:10030000186856000325B5400646AE4330460D79C1
:10031000AD07AD0F5600B540284318604D68012D5C
:1003200008D04D68022D05D04D68112D02D04D68C2
:10033000122D18D1986856000325B5400646AE43E5
:1003400030465600CD68B54028439860586801256E
:1003500095400646AE43304610264D6835402D097F
:10036000954028435860D86856000325B540064696
:10037000AE43304656008D68B5402843D86001260C
:1003800036074D683540B54263D1354D9608B60005
:10039000A8599507EE0E0F25B5400646AE433046E8
:1003A00005252D07AB4202D1002506E051E02D4D79
:1003B000AB4201D1012500E002259607F60EB540BB
:1003C0002843274D9608B600A851254D20352868AA
:1003D0000546A5432846012636044D683540B542FA
:1003E00002D10546254328461D4D20352860686802
:1003F0000546A5432846012676044D683540B5429A
:1004000002D1054625432846154D20356860144D18
:10041000603D28680546A5432846012636054D68F7
:100420003540B54202D10546254328460C4D603D76
:10043000286068680546A5432846012676054D686C
:100440003540B54202D1054625432846044D603D5E
:100450006860521C0D68D540002D00D02EE770BD9D
:10046000601802400004005042690A40002A01D08E
:10047000816200E081617047002A01D0816100E063
:10048000816270470148006870470000CC0000207E
:10049000034800680349096840180149086070472B
:1004A000CC000020D400002010B50024032000F070
:1004B00009F8002801D0012401E000F033F82046BB
:1004C00010BD0000F8B50446002513480068002858
:1004D0001ED0114801687D20C000FFF709FE0746C5
:1004E00039460E480068FFF703FE064600F0C0FAE2
:1004F00000280BD1042C07D200222146401E00F018
:1005000023F80748046004E0012502E0012500E02B
:1005100001252846F8BD0000D4000020C0000020BE
:10052000D000002010B50020FFF77EFE10BD0000B7
:1005300000BFC206D20E01219140024A116000BFE5
:100540007047000000E100E070B504460D46164615
:100550002946204600F0E6FB70BD000070B5044659
:100560000D46002C01D1012070BD5F480068C00716
:10057000C00FA84218D25C480068400840002843D9
:1005800059490860FFF77EFF064607E0FFF77AFF4C
:10059000801B5649884201D90320E5E7524800688C
:1005A000C007C00FA842F1D10221206808400228EC
:1005B00015D1042120680840042807D14C488068E0
:1005C00007210903884340184949886048488068E2
:1005D0000F2109028843A1680843454988602078B3
:1005E000C007C00F00283CD06068012808D14048EF
:1005F0000068012149040840002816D10120B3E712
:100600006068002808D13A48006801218902084042
:1006100000280AD10120A7E735484030006A0221AE
:100620000840002801D101209EE731488068C008B9
:10063000C000616808432E498860FFF723FF064623
:1006400007E0FFF71FFF801B2849884201D90320DC
:100650008AE727488068382108406168C9008842D5
:10066000EFD121480068C007C00FA84218D91E4822
:1006700000684008400028431B490860FFF702FF5C
:10068000064607E0FFF7FEFE801B1849884201D9A5
:10069000032069E714480068C007C00FA842F1D1E1
:1006A000042120680840042808D1114880680721E7
:1006B00009038843E16808430D49886000F020F889
:1006C0000B4989680F2212021140090A8900094A60
:1006D000515CC906C90EC840074908600748006850
:1006E000FFF7F0FE40E70000002002408813000002
:1006F00000100240BC0E0008C0000020D000002006
:1007000070B586B014221B4901A8FFF707FD1A48EF
:10071000806838210840002817D11748006809026E
:100720000840C10A01268E4013484068072149034A
:100730000840450B042D00D90025A90001AA5058F6
:100740003146FFF7D5FC044611E00B48806838219C
:100750000840082801D1094C09E007488068382181
:100760000840182802D10124E40300E000242046B8
:1007700006B070BD440F00080010024000366E0144
:1007800070B50446002C01D1012070BD2078C0074F
:10079000C00F002877D0B248866838210E40082E56
:1007A00009D10068B103084000286CD060680028B7
:1007B00069D10120E9E7606800280DD0A068002811
:1007C00008D0A74800690C218843A1680843A449C0
:1007D000086101E00120D8E700BF01210904606839
:1007E000884205D19E48006808439D49086021E081
:1007F00005210904606888420ED1994800680121EA
:1008000089040843964908600846006801210904E4
:100810000843934908600DE09148006801210904EC
:1008200088438F490860084600680121890488438D
:100830008B49086000BF6068002812D0FFF722FED5
:10084000054606E0FFF71EFE401BC82801D903201D
:100850009BE7834800680121490408400028F1D043
:1008600011E0FFF70FFE054606E0FFF70BFE401B09
:10087000C82801D9032088E7794800680121490484
:1008800008400028F1D102212068084002287BD1CD
:1008900073488068382108400646002E48D17048C9
:1008A0000068012189020840002804D0E06800287F
:1008B00001D1012069E76A484068000C00046169C1
:1008C000084367494860FFF7DDFD054606E0FFF78E
:1008D000D9FD401B022801D9032056E76048006873
:1008E0000121890208400028F1D0002E18D15C486F
:1008F00000680721C90288432169084358490860F4
:10090000FFF7FEFE564989680F2212021140090ABC
:100910008900544A515CC906C90EC8405249086052
:1009200052480068FFF7CEFD002847D001202CE791
:10093000E068002829D04A4800680721C902884396
:10094000216908434649086008460068891508433C
:1009500043490860FFF796FD054606E0FFF792FD64
:10096000401B022801D903200FE73D480068012100
:10097000890208400028F1D039484068000C000482
:10098000616908433649486018E035480068FF212E
:100990000131884332490860FFF774FD054606E0DF
:1009A000FFF770FD401B022801D90320EDE62C481B
:1009B00000680121890208400028F1D1082120683F
:1009C0000840082849D1264880683821084018285E
:1009D0000BD123484030006A0221084000283CD057
:1009E000A069002839D10120CFE6A06900281AD0DB
:1009F0001B484030006A0121084319494031086210
:100A0000FFF740FD054606E0FFF73CFD401B0228CE
:100A100001D90320B9E612484030006A022108409B
:100A20000028F1D019E00E484030006A400840002C
:100A30000B4940310862FFF725FD054606E0FFF748
:100A400021FD401B022801D903209EE604484030C6
:100A5000006A022108400028F1D1002095E600003C
:100A600000100240BC0E0008C0000020D000002092
:100A700070B504462546681E0949884201D90120FF
:100A80000CE0681E074948610321081F00F04AF97D
:100A900000200449886107200861002070BD000023
:100AA000FFFFFF0000E000E07047704710B504460C
:100AB000002C01D1012010BDA07F002803D1607758
:100AC000204600F00BF80220A077211D206800F0DE
:100AD00089F90120A0770020EDE7000038B5044631
:100AE00000BF0C4800680121490408430949086017
:100AF00008460068012149040840009000BF00BF7B
:100B0000002211461520FFF71FFD1520FFF710FDED
:100B100038BD00004010024001460868C06801234B
:100B200018430B68D860086880684207520F062A8D
:100B300005D008680068012318430B68186000207E
:100B40007047704710B504462068006902210840CC
:100B5000400800281CD02068C068084040080028D1
:100B600016D0481F2168086101202077206880691D
:100B70008007800F002803D02046FFF7E2FF05E042
:100B8000204600F0C3F8204600F0C1F8002020778E
:100B90002068006904210840800800281DD02068D2
:100BA000C06808408008002817D0C8432168086141
:100BB000022020772068806903210902084000286C
:100BC00003D02046FFF7BDFF05E0204600F09EF869
:100BD000204600F09CF8002020772068006908215A
:100BE0000840C00800281CD02068C0680840C00821
:100BF000002816D0C84321680861042020772068A7
:100C0000C0698007800F002803D02046FFF799FFB6
:100C100005E0204600F07AF8204600F078F8002041
:100C200020772068006910210840000900281DD0A5
:100C30002068C06808400009002817D0C843216810
:100C40000861082020772068C06903210902084054
:100C5000002803D02046FFF774FF05E0204600F08F
:100C600055F8204600F053F80020207720680069EE
:100C7000C007C00F01214840484000280CD0206820
:100C8000C068084048404840002805D0C81E216878
:100C90000861204600F03CF8206800698021084087
:100CA000C00900280BD02068C0680840C00900288F
:100CB00005D0C843216808612046FFF7F5FE20688B
:100CC000006940210840800900280BD02068C068D6
:100CD00008408009002805D0C843216808612046E3
:100CE00000F01CF820680069202108404009002815
:100CF0000BD02068C06808404009002805D0C843D0
:100D0000216808612046FFF7D0FE10BD704770478C
:100D100010B504460020FFF7BBFA10BD704700BFB6
:100D2000FEE7704710B5002819DA1A4A03071B0FAF
:100D3000083B9B089B00D2588307DC0EFF23A3408F
:100D40009A438B071B0E8407E40EA3401A43114BF2
:100D50000407240F083CA408A4001A5118E00E4A06
:100D600003231B02D21883089B00D2588307DC0E92
:100D7000FF23A3409A438B071B0E8407E40EA34076
:100D80001A43054B032424021B198408A4001A519A
:100D900010BD00001CED00E000E100E0704770476E
:100DA00010B5FFF775FB10BD07484068000C000444
:100DB0000121490340180549496808430249486030
:100DC000C80303498860704700100240000FFF1FEE
:100DD00000ED00E010B50248FFF7B4FE10BD0000C2
:100DE000D800002010B50268154B984205D1702438
:100DF0001346A3431A464B681A43114B984202D03C
:100E0000104B984206D1032424021346A3431A46EA
:100E1000CB681A4380241346A3434C6923431A46E4
:100E200002608B68C3620B688362054B984202D0F4
:100E3000044B984201D10B6903630123436110BD48
:100E4000002C01400044014002E008C8121F08C104
:100E5000002AFAD170477047002001E001C1121F3B
:100E6000002AFBD170470000FFF71EFBFFF7A6F931
:100E70000E480F4908600F490D48C1600E480C49E3
:100E8000486000210A480161816041618161FFF78A
:100E90000DFE002801D0FFF70BFA0548FFF73CFED6
:100EA000002801D0FFF704FA00BFFEE7004401402C
:100EB000D80000207F0C0000E703000000000000C5
:100EC0000000000000000000000000000000000022
:100ED0000000000000000000000000000100000011
:100EE00002000000030000000400000006000000F3
:100EF00007000000080000000900000000000000DA
:100F000000000000000000000000000001000000E0
:100F100002000000030000000400000000093D0082
:100F200000127A000024F4004086510100366E0160
:100F300000093D0000093D0000093D0020000400BB
:100F40000600000000093D0000127A000024F400B1
:100F50004086510100366E01780F00080000002025
:100F6000D8000000480E000850100008D8000020EB
:100F700020040000580E00080000000000000000DF
:100F80000000000000000000000000000000000061
:100F90000000000000000000000000000000000051
:100FA0000000000000000000000000000000000041
:100FB0000000000000000000000000000000000031
:100FC0000000000000000000000000000000000021
:100FD0000000000000000000000000000000000011
:100FE0000000000000000000000000000000000001
:100FF00000000000000000000000000000000000F1
:1010000000000000000000000000000000000000E0
:1010100000000000000000000000000000000000D0
:1010200000000000000000000000000000000000C0
:10103000000000000000000000127A0000000050D4
:101040000004005000000000040000000100000047
:04000005080000C12E
:00000001FF
