:020000040800F2
:10000000D0040020D5000008B10500082503000831
:1000100000000000000000000000000000000000E0
:100020000000000000000000000000002F06000893
:1000300000000000000000002D0600083106000846
:10004000000000000000000000000000E7000008C1
:10005000E7000008E7000008F5020008E7000008D4
:100060000000000000000000000000000000000090
:10007000E7000008E7000008E700000800000000B3
:1000800000000000E7000008000000000000000081
:1000900000000000E700000800000000E700000882
:1000A00000000000E700000800000000E700000872
:1000B0000000000000000000000000000000000040
:1000C0000348854600F02AF800480047410100082F
:1000D000D00400200448804704480047FEE7FEE7BC
:1000E000FEE7FEE7FEE7FEE735060008C100000870
:1000F00030B50B46014600202022012409E00D46C0
:10010000D5409D4205D31D469540491B2546954047
:1001100040191546521E002DF1DC30BD064C01255C
:10012000064E05E0E36807CC2B430C3C984710349F
:10013000B442F7D3FFF7C8FF9C060008BC060008CE
:1001400070B50125ED06002406E0A0002858A100A6
:10015000064A5050601CC4B2302CF6DB0120400728
:100160000349886000F08BFA002070BD0000002079
:1001700000ED00E070B58AB002202149496B0143CF
:100180001F4A51631146496B0140019100BF00BFF6
:1001900004200490002005900120089004A919482B
:1001A00000F052F9042002900121684601730021F9
:1001B00041730221817302A800F0E6F80121312089
:1001C0000003030C0404220E0F4C85072D0F645905
:1001D0001D469540AC430D4695402C430A4D86077D
:1001E000360FAC5100BF0021062000F0E3F90620D5
:1001F00001218140054A116000BF0AB070BD0000B6
:1002000000100240000400506018024000E100E0CD
:1002100010B500BF1E480068FF21013108431C498A
:10022000086000BF00BF00BF1948006801218902B3
:100230000840800A0028F6D00020154989680F225E
:10024000120291430143124A916000BF00BF114660
:100250008968C908C9000143916000BF00BF00BFA1
:100260000B488068382108400028F8D100BF0849B1
:1002700089680722120391430143054A916000BF38
:10028000044800F07BF9034800F08CF910BD000031
:100290000010024000127A0010B5044600BF012091
:1002A00000F05EF900BF6200084B995AA200084BAB
:1002B0009858012200F047F96200044B995AA200B5
:1002C000034B985800F03DF910BD0000900600085F
:1002D000C400002010B58300044CE1584300044CD6
:1002E000E25A4B6953404B6100BF10BDC40000206F
:1002F0009006000810B504200949C96801408142F0
:1003000001D1012100E00021002907D00020FFF7E2
:10031000E1FF04200249C86000BF00BF10BD00001B
:100320000018024000BFFEE7024949688143014AC4
:100330005160704780180240024909688143014AB0
:100340001160704780180240024949680143014A20
:100350005160704780180240024949680143014AD0
:100360005160704700180240024909680143014A80
:100370001160704780180240024909680143014A30
:10038000116070470018024070B5044600252079BE
:1003900000284ED02068002851D06079002804D071
:1003A000012809D0022815D10DE02068FFF7BCFF15
:1003B0002068FFF7D9FF0FE02068FFF7BDFF206836
:1003C000FFF7C2FF08E02068FFF7CEFF2068FFF7C5
:1003D000BBFF01E0012500BF00BFA07900282ED09F
:1003E000A079012804D002280DD003281DD115E0E2
:1003F0002068144949688143124A516000BF20684F
:10040000FFF7BAFF14E020680E49096881430D4ADE
:10041000116000BF2068FFF79FFF09E02068FFF729
:10042000ABFF2068FFF798FF02E00220054300BF02
:1004300005E02068FFF780FF2068FFF775FF28467A
:1004400070BD000000180240F0B502460B460026C1
:1004500061E00124B4401968214000295AD058684D
:1004600014680D464D436F00ED19AC430D464D43E6
:1004700045432C43146000BF5868012802D05868D7
:1004800002280DD1986894680D464D436F00ED1910
:10049000AC430D464D4345432C43946000BF00BF21
:1004A0001869D4680D464D436F00ED19AC430D46F5
:1004B0004D4345432C43D46000BF5868022829D1DE
:1004C000FF2911D85869146A0D464D434D434D43D9
:1004D0002F017D1BAC430D464D434D434D434543DA
:1004E0002C43146200BF15E05F69080A40430C0A00
:1004F00060430C0A60430401241A506AA0430C0AAA
:1005000064430D0A6C430D0A6C437C4320435062E4
:1005100000BF00BF761C1868F040002899D15868C9
:10052000012802D05868022809D1DC68186855688B
:100530008543074667433D43556000BF00BF012028
:10054000F0BD8161704730B503680C464C436500CF
:100550006419A3430C464C4354432343036030BD0A
:1005600008B50549496B0143034A51631146496B7C
:100570000140009100BF08BD0010024070B5044664
:100580007D25ED0029462046FFF7B2FD401E0449B7
:100590004861002088610520086100BF70BD00002F
:1005A00000E000E00149086070470000C000002042
:1005B0007047000010B5002819DA1A4A03071B0F0C
:1005C000083B9B089B00D2588307DC0EFF23A34007
:1005D0009A438B071B0E8407E40EA3401A43114B6A
:1005E0000407240F083CA408A4001A5118E00E4A7E
:1005F00003231B02D21883089B00D2588307DC0E0A
:10060000FF23A3409A438B071B0E8407E40EA340ED
:100610001A43054B032424021B198408A4001A5111
:1006200010BD00001CED00E000E100E070477047E5
:100630007047000007484068000C0004012149038E
:10064000401805494968084302494860C8030349FE
:100650008860704700100240000FFF1F00ED00E0AF
:1006600002E008C8121F08C1002AFAD1704770477B
:10067000002001E001C1121F002AFBD17047FFF7E3
:10068000C7FD0020FFF708FEFFF774FD00BFFEE77F
:10069000200004000600000004000000BC06000862
:1006A00000000020CC000000600600088807000859
:1006B000CC000020040400007006000800000000C8
:1006C000000000000000000000000000000000002A
:1006D000000000000000000000000000000000001A
:1006E000000000000000000000000000000000000A
:1006F00000000000000000000000000000000000FA
:1007000000000000000000000000000000000000E9
:1007100000000000000000000000000000000000D9
:1007200000000000000000000000000000000000C9
:1007300000000000000000000000000000000000B9
:1007400000000000000000000000000000000000A9
:100750000000000000000000000000000000000099
:100760000000000000000000000000000000000089
:1007700000000000000000000000000000127A00ED
:080780000000005000040050CD
:04000005080000C12E
:00000001FF
