:100000000204CF020066D288D2A822020645D28A14
:10001000D2AA2202055B8FEA8FFA220207BFE4FF11
:10002000FEFDEDD3940774809480502374222EF843
:10003000E6C39405748094804003430780EDC39425
:1000400007748094805004EFC313FF0E0D80D322F9
:100050008F1422020960C0E0E5F630E30353F6F79F
:10006000D0E032020847C0E0C0D075D000C004C064
:1000700005538EEFE51114600E14601414601A24F9
:1000800003701AC29780197CF28CD675D7DA800D6E
:100090007CF98CD675D73C8004D2978003438E10B0
:1000A000D005D004D0D0D0E032E4F512F513C2036D
:1000B000C20422020056EFD3940774809480400358
:1000C0007FFF221205D3FED39403748094804003F3
:1000D0007FFF22EF7044EE700B9000011205ECF4EC
:1000E000529352941205D36401700B9000011205D3
:1000F000EC4293F452941205D3FE6402700A90000D
:10010000011205EC42934294EE6403700D900001DD
:100110001205ECFEF45293EE4294EF640170461225
:1001200005D3FE700B9000011205ECF4529152922F
:10013000EE6401700B9000011205EC4291F45292B2
:100140001205D36402700A9000011205EC4291423C
:10015000921205D36403700D9000011205ECFEF4B9
:100160005291EE4292EF640270461205D3FE700B7C
:100170009000011205ECF452955296EE6401700B5A
:100180009000011205EC4295F452961205D36402D8
:10019000700A9000011205EC429542961205D36454
:1001A00003700D9000011205ECFEF45295EE42969C
:1001B000EF640370461205D3FE700B900001120528
:1001C000ECF452B152B2EE6401700B9000011205D2
:1001D000EC42B1F452B21205D36402700A900001ED
:1001E0001205EC42B142B21205D36403700D9000C7
:1001F000011205ECFEF452B1EE42B2EF6404704617
:100200001205D3FE700B9000011205ECF452B352AC
:10021000B4EE6401700B9000011205EC42B3F4528D
:10022000B41205D36402700A9000011205EC42B3C7
:1002300042B41205D36403700D9000011205ECFE68
:10024000F452B3EE42B4EF640570461205D3FE706B
:100250000B9000011205ECF452C952CAEE64017011
:100260000B9000011205EC42C9F452CA1205D36486
:1002700002700A9000011205EC42C942CA1205D36D
:100280006403700D9000011205ECFEF452C9EE42B9
:10029000CAEF640670461205D3FE700B900001127F
:1002A00005ECF452CB52CCEE6401700B90000112BD
:1002B00005EC42CBF452CC1205D36402700A9000D4
:1002C000011205EC42CB42CC1205D36403700D90B1
:1002D00000011205ECFEF452CBEE42CCEF64077045
:1002E000491205D3FF7E00700B9000011205ECF45B
:1002F00052E152E2EF64014E700B9000011205ECE6
:1003000042E1F452E21205D36402700A9000011235
:1003100005EC42E142E21205D36403700D90000146
:100320001205ECFFF452E1EF42E27F0022C295C2D7
:1003300096EFB411004003020428900341F82828E6
:100340007302037402037D02038102038902039492
:1003500002039E0203A80203AA0203A80203BC022E
:1003600003C80203D40203E00203EC0203F8020410
:1003700008020418D2B4D2B5D2B702041EC2B480A7
:100380002BD2B4D2B5C2B78069D2B4D2B5D2B7D26B
:1003900090020430C2B4D2B5D2B7C2908026D2B493
:1003A000C2B5D2B7D290801C800CD2B4D2B5D2B72D
:1003B000C290C292805CD2B4D2B5801CD2B4D2B505
:1003C000D2B7D290C292803AD2B4D2B5D2B7C2904C
:1003D000D292802EC2B4C2B5D2B7D290D29280222D
:1003E000D2B4C2B5D2B7D290D2928016C2B4D2B52E
:1003F000D2B7D290D292803AD2B4C2B5C2B7D2901C
:10040000D292D293D294802ED2B4D2B5C2B7D29027
:10041000D292C293C294801EC2B4C2B5C2B7D29067
:10042000D292D293C294800EC2B4C2B5C2B7C29067
:10043000C292C293D294ED64017003D29522D296F7
:1004400022E4F517FFFEFDEDC3953C5019742C2DE9
:10045000F8E6FB7A00641B70030F8007EB64BB4A6D
:1004600070010E0D80E1E53C6064C313FDEFC39D98
:10047000400AEFD39E400575171B800CEEC39D40CC
:1004800007EF9E50037517BB7E007F0A7D007B003F
:100490007A00792C120619E4F53CE5172445601A18
:1004A00024A0702AD2000537D3E5379404748094D1
:1004B000804016E4F537C200800F300007C200E428
:1004C000F5378005D200753701AF371206A62278BE
:1004D0007FE4F6D8FD75813C020516020743E493DC
:1004E000A3F8E493A34003F68001F208DFF4802927
:1004F000E493A3F85407240CC8C333C4540F442016
:10050000C8834004F456800146F6DFE4800B010204
:10051000040810204080900820E47E019360BCA372
:10052000FF543F30E509541FFEE493A360010ECF52
:1005300054C025E060A840B8E493A3FAE493A3F87C
:10054000E493A3C8C582C8CAC583CAF0A3C8C5823C
:10055000C8CAC583CADFE9DEE780BEC0E0C0D07587
:10056000D000C000C005C006C007300119C28AD241
:10057000AAC201D3E52B943774809480404575213D
:1005800001753600803DD28AD2AAD201E5216033BE
:1005900074222536F8A62B752B000536E53664083F
:1005A0007021D202F536F52112001EAE3C053C74D6
:1005B0002C2EF8A607C3E53C940A7480948040036F
:1005C000753C00752B00D007D006D005D000D0D0E8
:1005D000D0E032BB010689828A83E0225002E72202
:1005E000BBFE02E32289828A83E49322BB010CE5ED
:1005F0008229F582E5833AF583E0225006E92582D7
:10060000F8E622BBFE06E92582F8E222E58229F51A
:1006100082E5833AF583E49322EF4E6012EF6001A6
:100620000EEDBB010B89828A83F0A3DFFCDEFA2288
:1006300089F05007F709DFFCA9F022BBFEFCF309A3
:10064000DFFCA9F022C0E0C0F0C083C082C0D0753A
:10065000D000C000C001C002C003C004C005C00675
:10066000C007C3E52B94FC748094805002052B05D1
:1006700013E51370020512AF0F050FD3EF94287422
:100680008094804006750F001207F5D007D006D081
:1006900005D004D003D002D001D000D0D0D082D079
:1006A00083D0F0D0E032EF14601614602014602A7A
:1006B00014603414603E24057046E4F509F51122F7
:1006C000750901750AFF750BFFD2078030750901A6
:1006D000750A10750B0175110122750901750A1053
:1006E000750B0275110222750901750A10750B034D
:1006F00075110322750901750A0E750B01E4F511D8
:100700002253B14F43B2B05391E243921D53919F94
:10071000439260C295C29653C9DF43CA20D2CD43EB
:10072000BA8090FE1BE054F7F053BA7F43B10853F0
:10073000B2F753917F439280C2975391FD43920247
:10074000D291221207011208E31208F912090C12C1
:10075000000612094C1200A912092FD2AF7FF47EB5
:100760000112093EE4FF1206A6E4F511F509C206DE
:10077000D20712091FEF70FA1208CB12095412089F
:100780006D80EF30B61A300302802CD3E51394F459
:10079000E51294014026E4F512F513D2037F0122FD
:1007A000300314D3E51394D0E5129407400EE4F51A
:1007B00012F513C2038005E4F512F5137F0022C081
:1007C000E0C0D00515050EC3E50E94087480948032
:1007D000401E750E00751001300515E53B2401F52E
:1007E0003BE4353AF53AE43539F539E43538F5384E
:1007F000D0D0D0E032E5096022E5086401700BAD8D
:1008000008AF0A12032D75080222E5086402700F72
:10081000AD08AF0B12032D75080122C295C29622B6
:10082000010801011000010F00010E00C101C10209
:10083000012B00013700013C0004380000000001DA
:100840002100C103C10400C0E0C0D075D000C004C5
:10085000C006C00753EFFED2977F0A7E0012093E02
:10086000C297D007D006D004D0D0D0E032300710E5
:10087000C207E4F5157F7F120016E4F5F2D2DE22FE
:10088000E515D39514400AE4F515C2DE53F2C0F520
:10089000FA2230031A200419D2040537D3E537941D
:1008A00004748094804003E4F537AF370206A6C293
:1008B000042253A2E7E4F5D875D980F5E9F5F97576
:1008C000DA42F5F275EA7F75FA7F22E4F516300216
:1008D00003C20222D3E52B94F0748094804003126B
:1008E000044122538E7F5389F0438902758ABA7579
:1008F0008CBAC28DD28CD2A922538EBF53890F7568
:100900008BDC758D0BC28FD28ED2AB2253EFFE5390
:100910008EFB75D77875D6EC538EEF75AF04223009
:10092000060AC2067F051206A67F01227F0022D298
:10093000071208B27F7F1200167F02020050EF1FDD
:10094000AC0670011E4C60030080F322E4F537D240
:100950000102000E120783020892D2A8758F10229E
:010960003264
:00000001FF
