:0300000002067283
:0C067200787FE4F6D8FD75814D0206B9D2
:030B2400011901B3
:100AF900E51A6022E5196401700BAD19AF1B1200EC
:100B0900B675190222E5196402700FAD19AF1C12EE
:0A0B190000B675190122C2CCC29685
:010B230022AF
:1000B600C2CCC296EFB4110040030201B19000CA4F
:1000C600F82828730200FD02010602010A02011245
:1000D60002011D0201270201310201330201310230
:1000E600014502015102015D020169020175020129
:1000F600810201910201A1D2B4D2B5D2B70201A701
:10010600C2B4802BD2B4D2B5C2B78069D2B4D2B54C
:10011600D2B7D2900201B9C2B4D2B5D2B7C29080DA
:1001260026D2B4C2B5D2B7D290801C800CD2B4D23B
:10013600B5D2B7C290C292805CD2B4D2B5801CD27E
:10014600B4D2B5D2B7D290C292803AD2B4D2B5D296
:10015600B7C290D292802EC2B4C2B5D2B7D290D2D4
:10016600928022D2B4C2B5D2B7D290D2928016C2B1
:10017600B4D2B5D2B7D290D292803AD2B4C2B5C276
:10018600B7D290D292D293D294802ED2B4D2B5C2A4
:10019600B7D290D292C293C294801EC2B4C2B5C2E4
:1001A600B7D290D292D293C294800EC2B4C2B5C2D4
:1001B600B7C290C292C293D294ED64017003D2CCBE
:0401C60022D2962289
:090B27000146FF014800014700EE
:1008B600120962120BFB120C11120C241200061202
:1008C6000C9B120C91120C59D2AF7FF47E01120CC4
:1008D6007775C123120C85E4FF120779E4F54912F6
:1008E6000A1EEF600C43C1107FF47E01120C778064
:1008F600EE43C1101209A2120B71EF70F4120BE451
:08090600120CA912002E80E979
:100A9400D209A209E433FF4307F0EF4401FEE4FD69
:100AA400EDC39407748094805008EE2DF8E6FF0D92
:100AB40080EE7EF1E4FDEDC39407748094805008C9
:080AC400EE2DF8E6FF0D80EEB7
:010ACC002207
:1009620053B14F43B2B05391E243921D5391BF43EF
:10097200924053C9EF43CA10C2CCC29643BA809088
:10098200FE1BE054F7F053BA7F43B10853B2F7535A
:10099200917F439280C2975391FD439202D291225A
:0E0C7700EF1FAC0670011E4C60030080F322DC
:100C3700EF6401700485384622854638AF381207BD
:010C47007933
:010C48002289
:100779008F3E751A01D20A120ACDEF6003753E0643
:10078900E53EB407005059900797F82828730207E7
:10079900AC0207B20207BA0207C40207CE0207D8A1
:1007A9000207E0E4F51AF54922751BFF751CFF8065
:1007B9002C751B10751C0175490122751B10751CC0
:1007C9000275490222751B10751C037549032275B0
:1007D9001B0E751C018006751B01751C0EE4F5497D
:0107E90022ED
:100BFB00538E7F5389F0438902758ABA758CBAC2BA
:060C0B008DD28CD2A9225B
:100C1100538EBF53890F758BDC758D0BC28FD28EAE
:030C2100D2AB2231
:100C240053EFFE538EFB75D77875D6EC538EEF7564
:030C3400AF0422E8
:05000600D288D2A822FF
:03000300020A5A94
:100A5A00C0E0C0D0538EEFE54914600E146015143F
:100A6A00601C2403701CC297801BC29775D6F2754E
:100A7A00D7DA800EC29775D6F975D73C8004D2971B
:0A0A8A008003438E10D0D0D0E0327C
:030053000201FEA9
:0101FE0032CE
:03000B0002085593
:10085500C0E0C0F0C083C082C0D075D000C000C069
:1008650001C002C003C004C005C006C007C3E52C13
:1008750094FC748094805002052C054BE54B700266
:10088500054AAF480548D3EF942874809480400604
:10089500754800120AF9D007D006D005D004D00358
:1008A500D002D001D000D0D0D082D083D0F0D0E01B
:0108B5003210
:03001B00020B9342
:040B9300C0E0C0D02E
:100B9700054D0547C3E54794087480948040057563
:040BA7004700D20130
:050BAB00D0D0D0E032C3
:03006300020CA3E9
:060CA30053EFFED2973270
:100B3000C105C106012C00013800013D0004390047
:060B40000000000122008C
:080C9B00E4F538D20502000E59
:100BE400300613D3E52C94F0748094804008E4F527
:070BF4002CC2061207EA22E1
:1007EA00E4FFFEFDFCECC3953D5019742D2CF8E690
:1007FA00FB7A00641B70030E8007EB64BB4A70012E
:10080A000D0C80E1E53D6042EED39D40047F1B80E4
:10081A0007EEC39D50027FBBE4F53DEF2445601609
:10082A0024A070263004230538D3E5389404748054
:10083A0094804011800C300407C204E4F538800526
:0A084A00D204753801AF38120779A7
:010854002281
:1001CA00E4FFFEEEFD7C00D39407748094805023F4
:1001DA0074232EF8E6C39405748094804003430781
:1001EA0080C3ED9407EC648094805004EFC313FF3E
:0301FA000E80D0A4
:0101FD0022DF
:05000E00D28AD2AA22F3
:030013000206FEE4
:1006FE00C0E0C0D075D000C000C004C005C006C0A8
:01070E0007E3
:10070F00300519C28AD2AAC205D3E52C943274805F
:10071F0094804044752201753700803CD28AD2AA5A
:10072F00D205E522603274232537F8A62C752C00EC
:10073F000537E53764087020D206F537F522120128
:10074F00CA742D253DF8A607053DC3E53D940A74EF
:0B075F008094804003753D00752C0065
:0F076A00D007D006D005D004D000D0D0D0E032D8
:040B4600C107C1081A
:0A0C9100E4F54AF54BC207C2082241
:060CA9001209E2020B4DEE
:1009E20030B61A300702802CD3E54B94F4E54A94D2
:1009F200014026E4F54AF54BD2077F012230071465
:100A0200D3E54B94D0E54A9407400EE4F54AF54B02
:0C0A1200C2078005E4F54AF54B7F002286
:100B4D0030071E20081DD2080538D204D3E538948D
:100B5D0004748094804005E4F538C204AF38020770
:040B6D0079C208221F
:060CAF00D2A8758F10228F
:020B4A00C100E8
:0C0C8500C202C203C201E4F51F020BB062
:1009A20030013CC2017F05120207EF7003EE6410B2
:1009B200602DC3EF94DDEE94015004D203800BD37B
:1009C200EF942CEE94024014C203AF1F051FD3EF25
:0F09D2009404748094804007A2039202E4F51FFE
:0109E10022F3
:100B71003002127F051207792000077F01120C371E
:100B8100D2007F0122300007C200E4FF120C377F40
:010B91000063
:010B92002240
:100BB000753E1FE4F544754501F53F754101FB7A2B
:0B0BC00000793E1204FE7F0102001EBF
:1004FE009000011205DEFFE5DE54F04FF5DE9000B0
:10050E00021205DE6401700543BC80800353BC7F7C
:10051E009000031205DE6401700543DE2080035354
:10052E00DEDF9000051205DE64017004D2AD80029C
:10053E00C2AD9000041205DEFF7E00D394037480DA
:10054E0094805072EF700553B7DFC2BDEF64014E59
:10055E00700553B7DFD2BDEF64024E700543B7206E
:10056E00C2BDEF64034E700543B720D2BD1205C560
:10057E00D3941F74809480503D9000061205DEFFC8
:10058E00D3940174809480502D9000071205DEFEE6
:10059E00D3940374809480501D43BA80EEC43354B8
:1005AE00E0FEEFC433333354804EFF1205C54F9037
:0705BE00FEA8F053BA7F22F2
:0D001E00EF6401700443BC802253BC7F22BC
:10020700EFD3940F7480948040028063E4F5BDF5CA
:10021700BEE5BC54F044404FF5BC00000000E4FDCF
:10022700EDC394FA748094805045E5BC30E53D53A6
:10023700BCDFE5DEAFBD30E50EEFFEACBEECFBEE9E
:10024700F53EEBF53F8020753E008F3FE5BEC45479
:100257000FFBE53FC4F8540FC868FFE53EC454F0F0
:1002670048F53EEF4BF53FAE3EAF3F220D80B17EE6
:03027700107F00F5
:01027A002261
:03002B000200AF21
:0400AF0053BCDF322D
:0F0C5900D20A120BCB7F7F1200167F0202027BA2
:10002E00300A10C20AE4F54D7F7F120016E4F5F295
:10003E00D2DE22E54DD3954C400AE4F54DC2DE5397
:05004E00F2C0F5FA22EA
:0300B300020056F2
:0D005600C0E0E5F630E30353F6F7D0E032EA
:03027B008F4C2283
:100BCB0053A2E7E4F5D875D980F5E9F5F975DA4262
:090BDB00F5F275EA7F75FA7F223C
:050016008FEA8FFA22C1
:080066007F02EF7F00FE7B002A
:06006E008B3F8A4089412E
:10007400C2AFAA06A9077508FF8A09890AE4FFEF37
:10008400C3940774809480501FAB08AA09A90A8FEF
:10009400827583001205DEAB3FAA40A9418F8275A9
:0A00A40083001206500F80D7D2AF80
:0100AE00222F
:06090E008B3F8A40894185
:10091400E4FFEFC39407748094805041AB3FAA4036
:10092400A9418F82758300740B12060BE92FF9E439
:100934003AFA1205C5645512063EAB3FAA40A941D6
:100944008F8275830074C212060BE92FF9E43AFA18
:0D0954001205C525E025E012063E0F80B516
:010961002273
:0F0C68007F02EFFE7F807B007A00790B02006E27
:100C49007A0079121200667B007A00791202090E85
:100ACD00E4FD120C68120C49E4FFEFC39407748027
:100ADD009480501574122FF8E6FE740B2FF8E66E05
:0B0AED0060047D0180030F80E1AF0575
:010AF80022DB
:100A1E00E4FD7A00790B1200667F1FEFFE7FF97BF3
:100A2E00007A00791212006EE4FFEFC3940774800F
:100A3E009480501574122FF8E6FE740B2FF8E66EA4
:0B0A4E0060047D0180030F80E1AF0514
:010A5900227A
:07020000FFFFFFFFFFFFFFFE
:07028000FFFFFFFFFFFFFF7E
:10028700EFD394077480948040037FFF221205C543
:10029700FED394037480948040037FFF22EF704461
:1002A700EE700B9000011205DEF452935294120582
:1002B700C56401700B9000011205DE4293F452945D
:1002C7001205C5FE6402700A9000011205DE429312
:1002D7004294EE6403700D9000011205DEFEF452A5
:1002E70093EE4294EF640170461205C5FE700B90C1
:1002F70000011205DEF452915292EE6401700B90E8
:1003070000011205DE4291F452921205C564027093
:100317000A9000011205DE429142921205C564035C
:10032700700D9000011205DEFEF45291EE4292EF3D
:10033700640270461205C5FE700B9000011205DEBF
:10034700F452955296EE6401700B9000011205DE8F
:100357004295F452961205C56402700A9000011284
:1003670005DE429542961205C56403700D900001A3
:100377001205DEFEF45295EE4296EF6403704612C4
:1003870005C5FE700B9000011205DEF452B152B2A2
:10039700EE6401700B9000011205DE42B1F452B217
:1003A7001205C56402700A9000011205DE42B142CF
:1003B700B21205C56403700D9000011205DEFEF44C
:1003C70052B1EE42B2EF640470461205C5FE700BDF
:1003D7009000011205DEF452B352B4EE6401700BC3
:1003E7009000011205DE42B3F452B41205C564024F
:1003F700700A9000011205DE42B342B41205C564CB
:1004070003700D9000011205DEFEF452B3EE42B404
:10041700EF640570461205C5FE700B9000011205CA
:10042700DEF452C952CAEE6401700B900001120546
:10043700DE42C9F452CA1205C56402700A9000016F
:100447001205DE42C942CA1205C56403700D900049
:10045700011205DEFEF452C9EE42CAEF6406704689
:100467001205C5FE700B9000011205DEF452CB5247
:10047700CCEE6401700B9000011205DE42CBF45202
:10048700CC1205C56402700A9000011205DE42CB4A
:1004970042CC1205C56403700D9000011205DEFE03
:1004A700F452CBEE42CCEF640770491205C5FF7ECC
:1004B70000700B9000011205DEF452E152E2EF6486
:1004C700014E700B9000011205DE42E1F452E21278
:1004D70005C56402700A9000011205DE42E142E29E
:1004E7001205C56403700D9000011205DEFFF4527A
:0704F700E1EF42E27F002269
:10067E000208B6E493A3F8E493A34003F68001F2D4
:10068E0008DFF48029E493A3F85407240CC8C3337D
:10069E00C4540F4420C8834004F456800146F6DF4C
:1006AE00E4800B0102040810204080900B24E47EAD
:1006BE00019360BCA3FF543F30E509541FFEE49341
:1006CE00A360010ECF54C025E060A840B8E493A308
:1006DE00FAE493A3F8E493A3C8C582C8CAC583CA33
:1006EE00F0A3C8C582C8CAC583CADFE9DEE780BEEB
:010B4C0000A8
:1005C500BB010689828A83E0225002E722BBFE0234
:0905D500E32289828A83E4932267
:1005DE00BB010CE58229F582E5833AF583E02250D2
:1005EE0006E92582F8E622BBFE06E92582F8E2221C
:0D05FE00E58229F582E5833AF583E4932236
:10060B00BB010FF8E58229F582E5833AF583E028F3
:10061B00F0225009C58229F8E58226F622BBFE0995
:10062B00C58229F8E22582F222F8EA2583F583E9CF
:03063B00932822DF
:10063E00BB010689828A83F0225002F722BBFE019B
:02064E00F32295
:10065000F8BB010DE58229F582E5833AF583E8F0E0
:10066000225006E92582C8F622BBFE05E92582C88C
:02067000F22274
:00000001FF
