:020000040800F2
:10000000F0060020D5000008AD21000845200008BA
:1000100000000000000000000000000000000000E0
:100020000000000000000000000000002B2200087B
:100030000000000000000000292200082D22000816
:10004000000000000000000000000000E7000008C1
:10005000E7000008E70000086D05000891050008AA
:100060000000000000000000000000000000000090
:100070003D02000871220008E700000800000000AF
:1000800000000000E7000008000000000000000081
:10009000000000006122000800000000E7000008E6
:1000A00000000000E700000800000000E700000872
:1000B0000000000000000000000000000000000040
:1000C0000348854600F062F800480047090200082E
:1000D000F00600200448804704480047FEE7FEE79A
:1000E000FEE7FEE7FEE7FEE735220008C100000854
:1000F00030B50B46014600202022012409E00D46C0
:10010000D5409D4205D31D469540491B2546954047
:1001100040191546521E002DF1DC30BD70B500248B
:100120002546002801DA01244042002901DA012590
:100130004942FFF7DDFFAC4200D04042002C00D026
:10014000494270BD03460B439B0703D009E008C931
:10015000121F08C0042AFAD203E00B780370401C77
:10016000491C521EF9D27047D2B201E00270401C05
:10017000491EFBD270470022F6E710B513460A4627
:1001800004461946FFF7F0FF204610BD064C012536
:10019000064E05E0E36807CC2B430C3C984710342F
:1001A000B442F7D3FFF790FF5834000878340008C2
:1001B00070B58C180578401C6B075B0F01D1037874
:1001C000401C2A1106D10278401C03E006780E700C
:1001D000401C491C5B1EF9D12B0705D40023521E7D
:1001E0000DD40B70491CFAE70378401CCB1A921C03
:1001F00003E01D780D70491C5B1C521EF9D5A1420D
:10020000D8D3002070BD000070B50125ED06002494
:1002100006E0A0002858A100064A5050601CC4B255
:10022000302CF6DB012040070349886002F08AFD8C
:10023000002070BD0000002000ED00E010B5024875
:1002400000F057FB10BD00001802002038B504462E
:100250000020009020688068C007C00F012148403E
:100260004840002827D120688068144908400028A9
:1002700001D1012000E00020002809D1206B1021CD
:1002800008432063606B012108436063012038BD8F
:10029000206880680121084321688860084909486E
:1002A0000068FFF725FF009002E00098401E0090D4
:1002B00000980028F9D10020E9E70000150000802F
:1002C00040420F00C000002008B52C48006B0121FF
:1002D00009050843294908630846006B01210905FF
:1002E00088432649086300BF244840300068012144
:1002F000090508432149403108600846006801218A
:1003000009050840009000BF00BF1D481D49086056
:10031000084600F0BDF9002801D000F03EF9184869
:100320001849086000204860002116488160C160BB
:100330000121016104214161012101760021417601
:1003400001218176FF21C231C16100210162416238
:100350000521816200F052FB002801D000F01DF958
:10036000012000030849486009200860054800F0A2
:10037000DFF9002801D000F010F908BD001002409C
:100380000024014018020020AC01002070B5054691
:100390000E46002407E028590021C943884201D0B5
:1003A00000F0FBF8241DB442F5D370BD30B587B022
:1003B00004460D4600200690022001900294E809B0
:1003C000039006A901A800F091FC002801D000F0DC
:1003D000E4F807B030BDFEB506460F4615462C467C
:1003E000E819019000960AE021460120009A00F0E9
:1003F000B3FD002803D1803400988030009001982C
:100400008442F1D3FEBDF8B505460E4617460024DA
:1004100008E0A008800028583959884201D000F02F
:10042000BCF8241DB442F4D3F8BD000000B58BB075
:100430001C2104A8FFF79FFE00200090019002906D
:1004400003900B200490FF200130079000200890BB
:1004500011488088C004C00C012149030843099059
:100460000020059001200A9004A801F077F90028E7
:1004700001D000F092F80720009000200190029037
:1004800003900021684601F057F8002801D000F0E1
:1004900084F80BB000BD0000000FFF1F10B586B040
:1004A000044600BF1648406B0221084314494863C4
:1004B0000846406B02210840009000BF00BF002C9E
:1004C00005D11048029000200F49087004E00F4841
:1004D000029001200C490870012003900220049032
:1004E0000420019001A90A4800F078FE062001F0DE
:1004F0000DF800221146062001F014F806B010BDD8
:100500000010024000002110E00000200000111047
:100510000004005000B587B000BF1248406B0121B5
:100520000843104948630846406BC007C00F01905C
:1005300000BF00BF0C4803900120049002200590EA
:100540008020029002A90520000700F047FE072046
:1005500000F0DCFF00221146072000F0E3FF07B0A7
:1005600000BD0000001002400000211010B5042062
:1005700000F024FE05480078012803D10020FFF791
:100580008DFF02E00120FFF789FF10BDE000002091
:1005900010B5802000F012FE10BD00BFFEE7000085
:1005A0000020064948600648406904210843044980
:1005B00048610448C106086070470000D40200206A
:1005C00000200240214334120021054A51600549B0
:1005D000496902221143034A5161FF2101607047BA
:1005E000D402002000200240F0B502460B46002055
:1005F00014461D46104E766901273E430E4F7E611C
:1006000000BFEFF31086314672B60EE02E6826600A
:100610002D1D241D461CF0B21F2806D1064E7669FA
:100620000127FF043E43044F7E612028EED300BF24
:1006300081F3108800BFF0BD0020024004494969E1
:100640000122D2021143024A5161FF210160704729
:100650000020024070B5044600F0B2FE051905E026
:1006600000F0AEFEA84201D3032070BD0648006929
:10067000012109040840000C0028F1D10348024977
:1006800008610020F1E70000002002401180000016
:1006900070B504460025002600BF2C20005D01280F
:1006A00001D1022070BD01212C20015500BF20681E
:1006B000806808404840484000282CD1206B09023F
:1006C0008843022108432063206880688907084323
:1006D0002168886000F074FE064611E000F070FEAC
:1006E000801B02280CD9206B02218843102108436B
:1006F000206300BF00212C20015500BF0120D1E75D
:1007000020688068C00FC0070028E7D1206B022155
:100710008843206304E0206B2021084320630125E7
:1007200000BF00212C20015500BF2846BAE7000079
:10073000F8B504460D46002600200090A06A002867
:1007400015D0A06A012812D0A06A02280FD0A06A92
:1007500003280CD0A06A042809D0A06A052806D076
:10076000A06A062803D0A06A072800D000BF00BFF7
:100770002C20005D012801D10220F8BD01212C2090
:10078000015500BF206880680421084080080028C7
:100790007BD14449686888425AD02068806A2A78A8
:1007A00001219140084321688862A06A002829D06D
:1007B000A06A012826D0A06A022823D0A06A0328B4
:1007C00020D0A06A04281DD0A06A05281AD0A06AEB
:1007D000062817D0A06A072814D0A868216849699C
:1007E0004907490F88420DD020684069C008C00001
:1007F0002168486120684069297A4907490F084300
:10080000216848612868092802D028680C2841D14D
:10081000254880682968092902D10121C90501E01C
:10082000012189050843204988602868092831D1B9
:100830001E491F480068FFF75BFC0A2148430090EF
:1008400002E00098401E009000980028F9D121E0B5
:100850002068806A2A780121914088432168886253
:100860002868092802D028680C2813D10E4880680F
:100870002968092903D10121C90502E005E0012108
:10088000890588430849886004E0206B20210843DB
:100890002063012600BF00212C20015500BF3046F7
:1008A0006BE70000011000000027014040420F00EC
:1008B000C000002010B504462068006C054908609F
:1008C0000846016804A001F069FD0120074908708D
:1008D00010BD0000F80000202054454D5045524105
:1008E0005554453D2564200D0A000000F30000200A
:1008F000704710B5044620680068042108400428A9
:1009000004D120684068084004280AD020680068A4
:1009100008210840082840D120684068084008287D
:100920003BD1206B10210840002803D1206B4901E6
:10093000084320632068C06803218902084000281A
:1009400025D1607E002822D1206800680821084057
:1009500008281CD1206880680421084080080028ED
:100960000DD1206840680C21884321684860206BC5
:10097000FF210131884301210843206307E0206BF8
:10098000202108432063606B0121084360632046F7
:10099000FFF790FF0C202168086020680068802124
:1009A000084080280ED1206840680840802809D17E
:1009B000206B490208432063204600F0E9F88020BC
:1009C000216808602068006810210840102814D1B0
:1009D00020684068084010280FD1606A012809D1BA
:1009E000606B022108436063102021680860204684
:1009F000FFF77EFF10202168086010BD70B5044627
:100A000000260025002C01D1012070BD206B00289C
:100A100006D1606300212C200155204600F0BAF871
:100A2000206B1021084000287ED1002EFCD12068C8
:100A300080680421084080080028F5D1206B8901D6
:100A4000884302210843206320688068C007C00FE4
:100A500001214840484000280FD12068C068182173
:100A60008843A16808432168C860206800690001C4
:100A7000000961680843216808612068C06842492C
:100A800008402168C860207E8003617E49030843D6
:100A9000616A012902D00121090300E00021084315
:100AA000E16808432169022901D1042100E0002105
:100AB00008430543A07E01280ED1607E002803D1A3
:100AC00001200004054307E0206B20210843206338
:100AD000606B012108436063FF21C231E0698842F5
:100AE00003D0216AE069084305432068C0682843B1
:100AF0002168C860A06A002814D0A06A012811D01B
:100B0000A06A02280ED0A06A03280BD0A06A04288D
:100B100008D0A06A052805D0A06A062802D0A06ADD
:100B200007280FD1206800E027E04069C008C00016
:100B30002168486120684069218D4907490F0843B1
:100B4000216848612068C06810490840A84208D15F
:100B500000206063206B0221884301210843206349
:100B600010E0206B02218843102108432063606B52
:100B7000012108436063012604E0206B1021084333
:100B800020630126304640E71BC2FEFFE7FF3FC35C
:100B90007047000010B586B0044600BF1F48406B88
:100BA000012108431D4948630846406BC007C00F38
:100BB000009000BF00BF00BF18484030006801210E
:100BC00009050843154940310860084600680121BD
:100BD00009050840009000BF00BF1048006B0843A3
:100BE0000E4908630846006B0121090588430B493B
:100BF000086301200190032002900020039001A9C6
:100C00000520000700F0EAFA002211460C2000F04F
:100C100089FC0C2000F07AFC06B010BD00100240E8
:100C200070B50446002520688068042108408008CB
:100C3000002840D100BF2C20005D012801D10220F6
:100C400070BD01212C20015500BF2046FFF7FEFAA0
:100C50000546002D30D1206B18490840FF21013195
:100C6000084320630020606300BF00212C20015551
:100C700000BF1C2021680860606908280CD120682A
:100C80004068042188432168486020684068182132
:100C900008432168486006E0206840681C2108433A
:100CA0002168486000BF00BF2068806804210843B5
:100CB0002168886000E002252846C1E7FEF1FFFFB9
:100CC00070B5044600F07CFB06462546681C0028EB
:100CD00002D0054800682D1800BF00F071FB801B92
:100CE000A842FAD370BD0000A4010020F8B5044664
:100CF0000E460127002500BF89480078012801D150
:100D00000220F8BD01208649087000BF00BF854958
:100D10004968072252031140480B83490968820041
:100D2000824B9A581278914244D17F494968820097
:100D30009A581268D201D20D91423BD17A49096981
:100D400082009A5812881204120E914232D17649CA
:100D5000896882009A58127991422BD17249C968E8
:100D600082009A5852685201520D914222D16E4926
:100D7000496982009A589268D203D20B914219D1E4
:100D80006949896982009A58D268D203D20B91428C
:100D900010D16549C96982009A58128A92B291426B
:100DA00008D16149096A82009A5812699200920C2E
:100DB000914244D000BF81005C4A515809785A4A98
:100DC00011608100594A51580968C901C90D564A34
:100DD00051608100554A515809880904090E524A48
:100DE00011618100514A515809794F4A916081003F
:100DF0004E4A515849684901490D4B4AD16081001A
:100E00004A4A51588968C903C90B474A5161810050
:100E1000464A5158C968C903C90B434A91618100C8
:100E2000424A5158098A89B23F4AD16181003F4AFA
:100E3000515809698900890C3B4A116200BF00BF03
:100E40002068012813D17D20C000FFF703FC002893
:100E50005ED1FFF7A5FB7D20C000FFF7FBFB074637
:100E600033484069042188433149486150E0206893
:100E7000022823D17D20C000FFF7ECFB002847D1DA
:100E8000401E3060656812E02846FFF79DFB7D201C
:100E9000C000FFF7DFFB0746254840690221884371
:100EA00023494861002F01D0356006E08035A068F5
:100EB000C00161684018A842E6D829E020680328EC
:100EC00026D17D20C000FFF7C5FB002820D1401EA1
:100ED0003060E56815E02846FFF7B0FB7D20C000D4
:100EE000FFF7B8FB0746124840690121C902884351
:100EF0000F494861002F01D0356008E00120000350
:100F00002D1820690003E1684018A842E3D800BF0B
:100F100000BF00200249087000BF3846F1E600001B
:100F2000D4020020001002400021024038340008A2
:100F300000200240012007494969C2071143054AC0
:100F4000516111464969C90FC907002900D0002025
:100F50007047000000200240F8B507460C461646D0
:100F6000012500BF65480078012801D10220F8BDA5
:100F700001206249087000BF00BF6149496807222B
:100F800052031140480B5F49096882005E4B9A5832
:100F90001278914244D15B49496882009A5812689C
:100FA000D201D20D91423BD15649096982009A582B
:100FB00012881204120E914232D15249896882007D
:100FC0009A58127991422BD14E49C96882009A5899
:100FD00052685201520D914222D14A494969820018
:100FE0009A589268D203D20B914219D14549896926
:100FF00082009A58D268D203D20B914210D1414953
:10100000C96982009A58128A92B2914208D13D4928
:10101000096A82009A5812699200920C914244D057
:1010200000BF8100384A51580978364A1160810062
:10103000354A51580968C901C90D324A51608100C9
:10104000314A515809880904090E2E4A116181005C
:101050002D4A515809792B4A916081002A4A5158EA
:1010600049684901490D274AD1608100264A5158F3
:101070008968C903C90B234A51618100224A51582A
:10108000C968C903C90B1F4A916181001E4A5158A2
:10109000098A89B21B4AD16181001B4A51580969EA
:1010A0008900890C174A116200BF00BF6006400E1C
:1010B000002801D001205AE77D20C000FFF7CAFABE
:1010C0000546002D12D131462046FFF78DFA7D20CE
:1010D000C000FFF7BFFA05460C48406940084000D1
:1010E0000A494861002D01D0284640E700BF002092
:1010F0000249087000BF284639E70000D4020020EA
:101100000010024000210240383400080020024054
:10111000002009494969C90FC90700290BD00749AF
:10112000054A91600649916011464969C90FC9078E
:10113000002900D0012070470020024023016745AC
:10114000AB89EFCD10B50446042C09D117480078BF
:10115000012802D101F064FC26E001F04DFC23E0FF
:10116000802C21D112480078002806D001280AD00E
:10117000022809D0032816D10FE0002240210D4893
:1011800000F017F910BD00BF00224021094800F00F
:1011900010F901200849087005E0012240210548A6
:1011A00000F007F9EEE700BF00BFEBE7E00000202A
:1011B000E100002000040050CD00002010B50446DE
:1011C0000548C0682040002804D00348C460204679
:1011D000FFF7B8FF10BD00000018024070B50346CD
:1011E0000022CBE0012696400C683440002C71D0E0
:1011F0004D68022D02D04D68122D15D1D508AE00D4
:101200001D462035A8595507EE0E0F25B540064658
:10121000AE4330465607F60E0D69B5402843D50853
:10122000AD001E4620367051186856000325B540A3
:101230000646AE4330460D79AD07AD0F5600B540BA
:10124000284318604D68012D08D04D68022D05D047
:101250004D68112D02D04D68122D18D19868560096
:101260000325B5400646AE4330465600CD68B5402E
:10127000284398605868012595400646AE4330469D
:1012800010264D6835402D09954028435860D86890
:1012900056000325B5400646AE43304656008D68DD
:1012A000B5402843D860012636074D683540B54221
:1012B00063D1354D9608B600A8599507EE0E0F2557
:1012C000B5400646AE43304605252D07AB4202D158
:1012D000002506E051E02D4DAB4201D1012500E093
:1012E00002259607F60EB5402843274D9608B6000E
:1012F000A851254D203528680546A54328460126D6
:1013000036044D683540B54202D10546254328468E
:101310001D4D2035286068680546A54328460126EE
:1013200076044D683540B54202D10546254328462E
:10133000154D20356860144D603D28680546A5436D
:101340002846012636054D683540B54202D105468E
:10135000254328460C4D603D286068680546A54336
:101360002846012676054D683540B54202D105462E
:1013700025432846044D603D6860521C0D68D540E9
:10138000002D00D02EE770BD601802400004005010
:10139000024613690B40002B01D0012000E0002021
:1013A000704742690A40002A01D0816200E08161F1
:1013B0007047002A01D0816100E08162704700001F
:1013C00001480068704700009C0100200148006847
:1013D00070470000000EFF1F014840687047000082
:1013E000000EFF1F0148806870470000000EFF1FBD
:1013F00070B50446002C01D1012070BD0F48216852
:1014000008600F48216808602168606848602168AA
:10141000A0688860FFF7D4FF054606E0FFF7D0FF1D
:10142000401B302801D90320E7E72068C068002866
:10143000F4D10448216808600020DEE7CCCC00002D
:1014400055550000AAAA0000014602480A6810602B
:1014500000207047AAAA00000348006803490968F1
:1014600040180149086070479C010020A401002039
:1014700010B50024032000F009F8002801D0012451
:1014800001E000F033F8204610BD0000F8B5044636
:1014900000251348006800281ED0114801687D20EF
:1014A000C000FEF725FE074639460E480068FEF7E5
:1014B0001FFE064600F0CAFA00280BD1042C07D202
:1014C00000222146401E00F02DF80748046004E089
:1014D000012502E0012500E001252846F8BD0000B5
:1014E000A4010020C0000020A00100200648006ADE
:1014F000012108430449086200BF0348006A022131
:1015000008400028F9D070474010024000BFC206D2
:10151000D20E01219140024A116000BF70470000C5
:1015200000E100E070B504460D4616462946204607
:1015300000F03EFE70BD000070B504460D46002C64
:1015400001D1012070BD5F480068C007C00FA842EC
:1015500018D25C4800684008400028435949086098
:10156000FFF72EFF064607E0FFF72AFF801B5649CC
:10157000884201D90320E5E752480068C007C00F40
:10158000A842F1D1022120680840022815D1042187
:1015900020680840042807D14C48806807210903C7
:1015A0008843401849498860484880680F210902EB
:1015B0008843A1680843454988602078C007C00F68
:1015C00000283CD06068012808D14048006801210B
:1015D00049040840002816D10120B3E760680028BC
:1015E00008D13A48006801218902084000280AD140
:1015F0000120A7E735484030006A02210840002852
:1016000001D101209EE731488068C008C0006168B0
:1016100008432E498860FFF7D3FE064607E0FFF730
:10162000CFFE801B2849884201D903208AE727483A
:101630008068382108406168C9008842EFD121489C
:101640000068C007C00FA84218D91E4800684008AB
:10165000400028431B490860FFF7B2FE064607E03A
:10166000FFF7AEFE801B1849884201D9032069E7C5
:1016700014480068C007C00FA842F1D104212068B7
:101680000840042808D111488068072109038843CD
:10169000E16808430D49886000F020F80B4989682B
:1016A0000F2212021140090A8900094A515CC90639
:1016B000C90EC8400749086007480068FFF7E6FE02
:1016C00040E70000002002408813000000100240A4
:1016D000A4330008C0000020A001002070B586B02F
:1016E00014221B4901A8FEF72DFD1A4880683821F5
:1016F0000840002817D11748006809020840C10AAD
:1017000001268E4013484068072149030840450BD5
:10171000042D00D90025A90001AA50583146FEF732
:10172000E7FC044611E00B4880683821084008288F
:1017300001D1094C09E00748806838210840182881
:1017400002D10124E40300E00024204606B070BD6D
:10175000243400080010024000366E0170B50446C3
:10176000002C01D1012070BD2078C007C00F0028D7
:1017700077D0B248866838210E40082E09D100681B
:10178000B103084000286CD06068002869D10120AE
:10179000E9E7606800280DD0A068002808D0A748B5
:1017A00000690C218843A1680843A449086101E04D
:1017B0000120D8E700BF012109046068884205D1F3
:1017C0009E48006808439D49086021E005210904FE
:1017D000606888420ED19948006801218904084355
:1017E00096490860084600680121090408439349A6
:1017F00008600DE0914800680121090488438F4981
:101800000860084600680121890488438B49086004
:1018100000BF6068002812D0FFF7D2FD054606E041
:10182000FFF7CEFD401BC82801D903209BE7834862
:1018300000680121490408400028F1D011E0FFF7B9
:10184000BFFD054606E0FFF7BBFD401BC82801D9D8
:10185000032088E7794800680121490408400028EE
:10186000F1D102212068084002287BD173488068AA
:10187000382108400646002E48D1704800680121F2
:1018800089020840002804D0E068002801D1012026
:1018900069E76A484068000C0004616908436749C9
:1018A0004860FFF78DFD054606E0FFF789FD401B08
:1018B000022801D9032056E7604800680121890207
:1018C00008400028F1D0002E18D15C48006807219C
:1018D000C90288432169084358490860FFF7FEFEA2
:1018E000564989680F2212021140090A8900544A98
:1018F000515CC906C90EC840524908605248006888
:10190000FFF7C4FD002847D001202CE7E06800283D
:1019100029D04A4800680721C90288432169084341
:10192000464908600846006889150843434908602D
:10193000FFF746FD054606E0FFF742FD401B022883
:1019400001D903200FE73D480068012189020840C2
:101950000028F1D039484068000C00046169084350
:101960003649486018E035480068FF210131884356
:1019700032490860FFF724FD054606E0FFF720FD29
:10198000401B022801D90320EDE62C480068012104
:10199000890208400028F1D1082120680840082861
:1019A00049D1264880683821084018280BD123489F
:1019B0004030006A0221084000283CD0A06900287D
:1019C00039D10120CFE6A06900281AD01B48403049
:1019D000006A01210843194940310862FFF7F0FC11
:1019E000054606E0FFF7ECFC401B022801D9032066
:1019F000B9E612484030006A022108400028F1D0C0
:101A000019E00E484030006A400840000B49403160
:101A10000862FFF7D5FC054606E0FFF7D1FC401B46
:101A2000022801D903209EE604484030006A0221C2
:101A300008400028F1D1002095E600000010024087
:101A4000A4330008C0000020A001002070B50446A7
:101A50002546681E0949884201D901200CE0681E0C
:101A6000074948610321081F00F0A2FB0020044938
:101A7000886107200861002070BD0000FFFFFF00A3
:101A800000E000E010B5044607492068884203D111
:101A900006A000F083FC06E008492068884202D1D5
:101AA00007A000F07BFC10BD0044014054494D31BB
:101AB000362D427265616B43616C6C00002C0140F5
:101AC00054494D312D427265616B43616C6C00006D
:101AD00010B5044607492068884203D106A000F0EB
:101AE0005DFC06E009492068884202D108A000F0A8
:101AF00055FC10BD0044014054494D31362D436F13
:101B00006D6D757443616C6C00000000002C014029
:101B100054494D312D436F6D6D757443616C6C008C
:101B200010B50446002C01D1012010BDA07F002873
:101B300003D16077204600F00BF80220A077211D2A
:101B4000206800F09DFB0120A0770020EDE7000059
:101B500038B5044600BF174800680121490408430E
:101B600014490860084600680121490408400090B3
:101B700000BF00BF002211461520FFF7D3FC15203F
:101B8000FFF7C4FC00BF0B4800680121C9020843ED
:101B90000849086008460068C9140840009000BF62
:101BA00000BF002211460D20FFF7BCFC0D20FFF7FF
:101BB000ADFC38BD4010024001460868C0680123F2
:101BC00018430B68D860086880684207520F062ADD
:101BD00005D008680068012318430B6818600020CE
:101BE0007047704710B5044620680069022108401C
:101BF000400800281CD02068C06808404008002821
:101C000016D0481F2168086101202077206880696C
:101C10008007800F002803D02046FFF7E2FF05E091
:101C2000204600F0C3F8204600F0C1F800202077DD
:101C30002068006904210840800800281DD0206821
:101C4000C06808408008002817D0C8432168086190
:101C500002202077206880690321090208400028BB
:101C600003D02046FFF7BDFF05E0204600F09EF8B8
:101C7000204600F09CF800202077206800690821A9
:101C80000840C00800281CD02068C0680840C00870
:101C9000002816D0C84321680861042020772068F6
:101CA000C0698007800F002803D02046FFF799FF06
:101CB00005E0204600F07AF8204600F078F8002091
:101CC00020772068006910210840000900281DD0F5
:101CD0002068C06808400009002817D0C843216860
:101CE0000861082020772068C069032109020840A4
:101CF000002803D02046FFF774FF05E0204600F0DF
:101D000055F8204600F053F800202077206800693D
:101D1000C007C00F01214840484000280CD020686F
:101D2000C068084048404840002805D0C81E2168C7
:101D30000861204600F03CF82068006980210840D6
:101D4000C00900280BD02068C0680840C0090028DE
:101D500005D0C843216808612046FFF793FE20683C
:101D6000006940210840800900280BD02068C06825
:101D700008408009002805D0C84321680861204632
:101D800000F0E0F8206800692021084040090028A0
:101D90000BD02068C06808404009002805D0C8431F
:101DA000216808612046FFF793FE10BD7047704719
:101DB00010B504465449206888427DD153480078C4
:101DC000002839D052480078401C514908705148C9
:101DD0000078002803D04F480078032803D1002062
:101DE0004B49087028E04B48007801280ED148483C
:101DF0000078422820DB00204549087043490870DC
:101E0000012240214448FFF7D4FA15E04148007808
:101E100002280ED13E4800783A280DDB00203C49CC
:101E200008703A490870012240213B48FFF7C1FA87
:101E300002E000203649087000F0C0FB3748007807
:101E4000401CC0B235490870142829D10020087000
:101E500033480078401C324908700878C10F0918CF
:101E600049104900411A01D100F030FE19212C48D7
:101E70000078FEF753F9002909D12A480078401C60
:101E8000284908700120284908702849087024480A
:101E90000078C82804D100202149087001F0D2F947
:101EA00023480078FC2804DA21480078401C2049A7
:101EB00008702048006800E003E0401C1D490860ED
:101EC00020E01D49206888421CD100BF1B480068E3
:101ED000006A1B49084000280ED118480068006AB3
:101EE00089100840002807D114480068006840089D
:101EF000400012490968086000BF012240210648DD
:101F0000FFF757FA10BD0000002C0140CD00002063
:101F1000D0000020E100002000040050CE0000208E
:101F2000CF000020EB000020F2000020CC000020B9
:101F3000D6000020E400002000440140B801002049
:101F4000111100007047FFB583B004460D461746D7
:101F5000002001903D20005D202871D1002D01D08E
:101F6000002F02D1012007B0F0BD01210903A068B4
:101F7000884208D12069002805D1E807C00F002851
:101F800001D00120EFE700BF3C20005D012801D116
:101F90000220E8E701213C20015500BF0020206419
:101FA00021213D200155FFF70BFA01902786678616
:101FB00001210903A068884205D12069002802D1C7
:101FC0000026029502E02E46002002901EE00698B0
:101FD0000090002280212046019B00F0A7F90028F4
:101FE00001D00320BFE7002E09D102980088C00568
:101FF000C00D216848600298801C029003E0307890
:1020000021684860761C608E401E6086608E0028C5
:10201000DDD106980090002240212046019B00F06F
:1020200085F9002801D003209DE720213D2001559E
:1020300000BF00213C20015500BF002093E7FFE7CF
:10204000022090E700BFFEE7F8B500270025002634
:1020500000240EE04148005DBB2802D1681CC5B2D7
:1020600005E03E48005D1B2801D1701CC6B2601C13
:10207000C4B23B4800788442ECDB39480078002841
:1020800000D1F8BDB54201DDBB2702E0B54200DA60
:102090001B270020324908701B2F02D0BB2F58D1BC
:1020A00022E000202F4908702F4908702F4800783F
:1020B000002804D12E480078401C2D4908702D4876
:1020C0000078002801D12C490870002027490870A9
:1020D00027480078032802DD00202549087024489D
:1020E000007800F0FDFE35E0012020490870002056
:1020F000224908601B480078012806D001201949B0
:1021000008700020184908701EE000201949087066
:1021100015480078012803D001201349087013E006
:1021200017480078002805DD13480078401C124944
:10213000087002E00020104908700F480078082855
:1021400002DD00200C4908700B48007801F01AF8F5
:1021500000E096E700BF00BF93E700000D020020FB
:10216000D9000020E20000200D0100200401002021
:10217000D8000020140100201501002008010020D3
:10218000E1000020002000210AE0074A525C032AF7
:1021900001DB80221043072900DA40104A1CD1B22B
:1021A0000729F2DD7047000004020020704700009C
:1021B00010B5002819DA1A4A03071B0F083B9B08C1
:1021C0009B00D2588307DC0EFF23A3409A438B0762
:1021D0001B0E8407E40EA3401A43114B0407240F7F
:1021E000083CA408A4001A5118E00E4A03231B025D
:1021F000D21883089B00D2588307DC0EFF23A3402C
:102200009A438B071B0E8407E40EA3401A43054B29
:10221000032424021B198408A4001A5110BD0000D5
:102220001CED00E000E100E07047704710B5FFF7DB
:1022300013F910BD07484068000C00040121490350
:10224000401805494968084302494860C8030349E2
:102250008860704700100240000FFF1F00ED00E093
:1022600010B50248FFF7BEFC10BD0000B801002009
:1022700010B50248FFF7B6FC10BD0000D8010020E1
:1022800010B50268154B984205D170241346A3433C
:102290001A464B681A43114B984202D0104B984291
:1022A00006D1032424021346A3431A46CB681A43DB
:1022B00080241346A3434C6923431A4602608B686B
:1022C000C3620B688362054B984202D0044B98426C
:1022D00001D10B6903630123436110BD002C014050
:1022E0000044014010B50F480F490860F9210E481D
:1022F000C16007200C49486000210B4801618160E2
:10230000416180218161FFF70BFC002801D0FEF7BD
:1023100044F90548FFF750FC002801D0FEF73DF9CD
:1023200010BD0000002C0140D8010020FFB581B095
:1023300004460D4617460A9E24E0701C002821D052
:10234000002E05D0FFF73CF80499401AB04219D985
:102350002068C068FF21A13188432168C8602068D7
:102360004069400840002168486120213D20015516
:102370003E20015500BF00213C20015500BF032035
:1023800005B0F0BD206800682840A84201D10120B6
:1023900000E00020B842D0D00020F1E70FB410B523
:1023A00003A9044B044A029800F026F810BC08BCAC
:1023B00004B0184781270008A801002030B47446F3
:1023C000641E2578641CAB4204D3635D5B00E31894
:1023D00030BC18471D46F8E702E008C8121F08C1C4
:1023E000002AFAD170477047002001E001C1121F96
:1023F000002AFBD170470000FFB58DB004460025D0
:1024000006E025280AD0109A0F999047641C6D1C8D
:1024100020780028F5D1284611B0F0BD0027012111
:10242000484A009700E00743641C23780846203B95
:1024300098401042F7D120782E2817D10420074366
:102440006078641C2A280CD10E98641C02C8009184
:102450000E900BE000990A22514330394018641C59
:1024600000902078014630390929F3D920780028D6
:10247000D1D0642808D0692806D075281ED0109ABB
:102480000F9990476D1C5BE00A200E99019001C9DD
:102490000E91002802DA40422D2102E0390504D5D0
:1024A0002B216A461172012103E0F90704D0202193
:1024B000F7E70BAE0B910DE00021FAE70A200E9929
:1024C000019001C90E91F7E70199FDF711FE303136
:1024D000761E31700028F7D103A8801B20300190B0
:1024E000780701D5009801E0012000900199884209
:1024F00001DD401A00E000200027009006E002A85D
:10250000109AC05D0F9990476D1C7F1C0B988742F5
:10251000F5DB04E0109A30200F9990476D1C00996C
:10252000481E00900029F5DC05E03078109A761CF2
:102530000F9990476D1C0199481E01900029F4DC09
:10254000641C65E70928010010B50448FEF768FB24
:10255000002801D0FEF721F810BD0000180200206D
:10256000002805D10E21064A11700121517006E0A4
:10257000012804D10121024A11700E2151707047C7
:102580000501002010B50446012C04D101210548A5
:10259000FEF707FF04E0012211460248FEF709FF9B
:1025A00010BD00000004005000B500200249087072
:1025B000022000F02DF800BDEA00002010B504480C
:1025C0000078002802D00120FFF7DCFF10BD0000DA
:1025D000EA00002010B50B48007800280DD00A480A
:1025E00000780A49097888420ADD00200549087008
:1025F00005490870FFF7C6FF02E000200249087095
:1026000010BD0000EA000020EB000020EC000020DC
:102610000149087070470000EC00002070B500F020
:10262000E2FC05461448854201D1002070BD00241B
:1026300014E00A20FEF744FB01F062FE0A20FEF7D8
:102640003FFB00F065F9002804D000F0F3FB002800
:1026500000D001E000BFFEE7601CC4B2052CE8DB3F
:102660003320000200F00CF8064632468021034871
:1026700000F00DF80120D9E7CC33AA551C01002049
:10268000014680200003103000024018704770B5EA
:1026900005460E461446FEF73BFD31462046FDF743
:1026A00085FE31462046FDF771FE2246314628461A
:1026B000FDF791FEFEF73EFC224631462846FDF727
:1026C000A2FE70BD10B50446012C0CD11048007854
:1026D00010490870104800781049087010480078B8
:1026E0001049087013E00B48007809490870084643
:1026F000007800F0F5FB09480078074908700948A0
:102700000078074908700848007800F03BFD10BDCC
:10271000D800002010010020040100201101002039
:10272000E1000020120100201501002010B5024632
:10273000002016E08300D3580B338400135183002C
:10274000D35855246340840013518300D3583E3B33
:10275000840013518300D3589B0084001351431C01
:10276000D8B28842E6DB10BD0246002004E0135CCC
:10277000DB431354431CD8B28842F8DB7047000097
:1027800013B50C467D23DB00012269460248FFF7A2
:10279000DAFB00981CBD00009002002010B5044632
:1027A000002C00D110BDFEF711FE2060FEF714FED4
:1027B0006060FEF717FEA06000BFF3E770B5054646
:1027C0000C462846FFF75CFF06468022314620462D
:1027D000FDF7B8FC70BD000000B587B000BF4948E8
:1027E000406B01210843474948630846406BC007D6
:1027F000C00F019000BF00BF00BF0846406B022120
:102800000843404948630846406B02210840019054
:1028100000BF00BF00BF3B48406B2021084339493F
:1028200048630846406B20210840019000BF00BF6C
:10283000082002900020039004900220059002A935
:102840003148FEF7CBFC7F2002900120039000204E
:1028500004900220059002A905200007FEF7BEFCA7
:1028600000227F2105200007FEF7A3FD0120029032
:102870000390002004900220059002A92348FEF74F
:10288000ADFC022002900120039000200490022061
:10289000059002A91D48FEF7A1FC002203211B4858
:1028A000FEF787FD01200290039000200490022093
:1028B000059002A91448FEF791FC01221146124826
:1028C000FEF777FD80200290002003900490022004
:1028D000059002A905200007FEF780FC4020029029
:1028E00001200390002004900220059002A90648D0
:1028F000FEF774FC002240210348FEF75AFD07B0A2
:1029000000BD000000100240000400500014005000
:10291000FEB500266846FFF741FF32252D020C4A1E
:102920002946022000F028FB00240BE0A0006946A5
:102930000858A100064A5158884201D0012603E0F8
:10294000601CC4B2032CF1DB00BF3046FEBD0000AA
:102950005C02002010B531242402034A312109020F
:10296000012000F009FB10BD5002002010B53124F9
:1029700024028034044A2146022000F0FDFA03219B
:102980000148FFF7D3FE10BD5C02002010B50848D7
:10299000007800280AD007480078F02806DD0020DB
:1029A0000449087002490870FFF74EFB10BD000093
:1029B000D5000020D60000200020084908700849F2
:1029C00008700849087008490870044908700749E8
:1029D000086007490870074908707047D800002050
:1029E000D5000020D6000020D9000020DC00002007
:1029F000E1000020E200002006480078222805DDE2
:102A00000120054908700020044908700020014990
:102A100008707047D6000020E3000020D700002097
:102A200010B51948007800282AD0184800781849AD
:102A3000184A127888540020144908701548007804
:102A4000401C1449087008460078082818D1012055
:102A50001149087000200F4908700B490870FFF7F2
:102A600091FB0E490E4A127888540D480078401C9C
:102A70000B490870084600780A2801DB002008701E
:102A800000200249087010BDE3000020D60000209D
:102A900004020020D7000020D50000200D020020F5
:102AA000D900002010B50748074908600320486096
:102AB000C82105488160FEF79BFC002801D0FDF786
:102AC0006CFD10BD00300040F801002070B54B488F
:102AD0000078012834D14A480068401C4849086001
:102AE00048480078002822D008460068FF212D3190
:102AF000884203D801204449087021E0404800681A
:102B0000FF21913188420ED900203D4908603F499C
:102B100008703C4908703C49087000F0A1FB002097
:102B2000364908700CE000203749087008E0344846
:102B30000068FF212D31884202D900202F490870FA
:102B40002E480078022806D12E480078002802D0AE
:102B500001202D49087029480078002801D12A4910
:102B600008702948007800281AD028480078401CAE
:102B7000264908700846007814280ADA0022012144
:102B80002348FEF716FC002202212148FEF711FC23
:102B900070BD1E480078282802DD00201B490870FF
:102BA0001648007800280AD11A4804784578002091
:102BB00013490860154908701749087002E0174862
:102BC0000478457816480078012808D1144801781F
:102BD000204600F031F80220114908700BE010483F
:102BE0000078022807D10E480178284600F024F822
:102BF00001200B49087000BFCAE700000401002053
:102C0000080100200D0100200E0100200C01002011
:102C10000014005002010020E20000200501002005
:102C20000F01002000200249087002490870704717
:102C3000040100200D01002070B504460D4600225D
:102C400001213F48FEF7B5FB002202213C48FEF778
:102C5000B0FB2300FFF7B2FB110A0F14191E232843
:102C60002D32373C41464B50555A5F003F200521DD
:102C70000907486154E006200521090748614FE033
:102C80005B200521090748614AE04F20052109071B
:102C9000486145E0662005210907486140E06D2054
:102CA0000521090748613BE07D20052109074861AE
:102CB00036E0072005210907486131E07F20052122
:102CC000090748612CE06F2005210907486127E0CA
:102CD000772005210907486122E07C2005210907AA
:102CE00048611DE0392005210907486118E06E2080
:102CF00005210907486113E079200521090748618A
:102D00000EE0712005210907486109E038200521FE
:102D10000907486104E0402005210907486100BF18
:102D200000BF012D05D1012211460548FEF741FBE8
:102D300004E0012202210248FEF73BFB70BD0000C7
:102D400000140050FEF794FBFDF770FBFDF7BCFA92
:102D5000FDF7E0FB0020FDF7A1FBFFF7C3FAFFF74B
:102D6000A1FEFFF739FDFFF727FE00F00DFBFFF78F
:102D70001BFC00F02DFA00F0EBF9002000F0B0F899
:102D8000FFF750FF002025490870254908702548A5
:102D9000FEF75AFB002801D0FDF7FFFBFFF73EFCD2
:102DA00000BFFFF7B5FD00280AD01E48FEF74CFB18
:102DB000002801D0FDF7F1FB3220FDF781FFF0E79D
:102DC0002AE01848FEF740FB002801D0FDF7E5FB9C
:102DD00000F03EF900F04CF8002800D01CE0FFF7AE
:102DE000D5FD00F087FAFFF7F5FB0C4800780128C5
:102DF00011D100200949087000F0F8F900280AD024
:102E000000200949087009490870094908700846F6
:102E1000007800F065F800BFD3E70000CC00002088
:102E2000CD000020F8010020140100201501002031
:102E3000D800002070B50025FFF78CFDFFF796FD48
:102E400000240BE0A00008490858A100074A515887
:102E5000884201D0012503E0601CC4B2032CF1DBE1
:102E600000BF284670BD0000500200205C02002018
:102E700010B51648007801281AD1154800780028A6
:102E800002DD0120124908700020FFF769FB0220D3
:102E90001049087010480078002807D10120FFF77A
:102EA00011FC01200C4908700C490870012010BD6C
:102EB00009480078002807D0002007490870FFF76C
:102EC00001FC0020054908700020F0E7F000002018
:102ED000E100002004010020FD0000200D01002081
:102EE00010B50446012021490870FFF7A3FF002810
:102EF00000D006242300FFF761FA07050C141C36E6
:102F0000242D360000201A490870487019490870AD
:102F10002AE01020164908700120487015490870F1
:102F200022E01020124908700220487011490870F0
:102F30001AE010200E490870032048700D490870EF
:102F400012E00E200A49087001204870002009494B
:102F5000087009E00120064908700E204870002022
:102F60000449087000E000BF00BF10BDEA00002067
:102F700002010020E1000020F7B5A4B00646154686
:102F800001A92598FFF71AFC012E0ED10024002775
:102F900009E0E00001A90A5C3846791CCFB221A9FA
:102FA0000A54601CC4B20C2CF3D3022E13D100249B
:102FB00000270AE0E00001A90858020E3846791CF3
:102FC000CFB221A90A54601CC4B20C2CF2D30C213C
:102FD00021A8FFF7C9FB21982860229868602398F0
:102FE000A86027B0F0BD70B56124E4012046FFF76A
:102FF00047FB04462646B569284670BD10B5082132
:103000000548FEF7C5F9002801D0012000E00020A6
:103010000446204610BD00000004005030B5A1B0A9
:10302000552401A90020FFF7C9FB6120C001FFF76B
:1030300027FB05462402AA34240233342402CC346C
:1030400007942A46802101A8FFF721FB21B030BD5B
:10305000F8B5344F0020009000263348007801284E
:1030600007D100203049087030490870FFF76CFA2A
:1030700056E02E480078012852D100202B490870D4
:103080002B4800682B49097889002B4A5050294861
:103090000078401C27490870084600780A283FDB62
:1030A000002416E0A00024490858B84201D2A0002C
:1030B0000F58A000204909580098814203D9A00068
:1030C0001D4908580090A0001B4908588619601C2B
:1030D000C4B20A2CE6DBF11B00980E1AF50817485B
:1030E000854203D20120164908700AE0154885423E
:1030F00003D900201249087003E00020124908702B
:10310000F8BD114801780078401C0F4A107004295E
:1031100006DD0B4800780D49087000201146087044
:1031200000BFEDE7FFFF0000F2000020F3000020E9
:10313000F8000020FC000020680200207307000057
:10314000F1000020D9080000F4000020F000002069
:1031500000200649087006490870064908700649AB
:10316000087006490870064908707047F000002092
:10317000F1000020F2000020F4000020F300002005
:10318000FC00002000B501210F4A11700300FFF779
:1031900015F909060B0C0D0E0F1011121800FF2166
:1031A0000A4A117051700DE000BF00BF00BF00BFA0
:1031B00000BF00BF00BF0021044A117011464870D3
:1031C00000E000BF00BF00BDEA00002005010020B4
:1031D00000200349086003490870034908707047DC
:1031E00018010020150100201401002010B511481D
:1031F0000078002803D01048007800280AD1002069
:103200000E4908600B480078002801D10C4908706D
:10321000002010BDE121090108480068FCF768FFA3
:10322000C4B207480078844201DB0120F1E70020A6
:10323000EFE70000E1000020140100201801002049
:103240001501002004480078002804D003480068D5
:10325000401C02490860704714010020180100203A
:1032600008480078002807DD06480078082803DCB5
:1032700001200549087004E0002002490870024955
:1032800008707047150100201401002010B5FFF7E9
:10329000B5FE002814D115480078002803D000207E
:1032A000134908601FE012480068FF212D31884251
:1032B00019D900200E49086001200C49087010BD82
:1032C0000A48007800280BD00948006819214901F4
:1032D000884208D90020064908600449087002E0C5
:1032E0000020034908600020E9E70000E800002012
:1032F000E400002010B5FFF7C9FF00F001F810BD91
:1033000010B519480078002829D0184800780028FE
:1033100028D1012015490870002015490870154969
:10332000087015480078002804D114480078401C23
:103330001249087012480078002801D1114908701C
:1033400000200D4908700D480078032802DD002098
:103350000A49087009480078FFF7C2FD02E0002022
:103360000249087010BD0000E8000020E9000020BC
:10337000E20000200D01002004010020D800002000
:1033800014010020150100200020034908600349B2
:103390000870034908707047E4000020E80000202E
:1033A000E900002000000000000000000000000014
:1033B000000000000000000000000000000000000D
:1033C00000000000010000000200000003000000F7
:1033D00004000000060000000700000008000000D4
:1033E00009000000000000000000000000000000D4
:1033F00000000000010000000200000003000000C7
:103400000400000000093D0000127A000024F400CE
:103410004086510100366E0100093D0000093D0063
:1034200000093D0000093D0000127A000024F4006C
:103430004086510100366E011C0FFF1F300FFF1F29
:10344000440FFF1F580FFF1F6C0FFF1F1C0FFF1FA4
:103450001C0FFF1F1C0FFF1F00440008000000206E
:10346000AC010000B001000848440008AC01002095
:1034700044050000E82300080000000000000000F0
:10348000000000000000000000000000000000003C
:10349000000000000000000000000000000000002C
:1034A000000000000000000000000000000000001C
:1034B000000000000000000000000000000000000C
:1043000030B5A7B0FEF78AFE24A8FEF747FA0321CE
:1043100024A8FEF70BFA249821902598229026983D
:10432000239001A90020FEF749FA002411E0E000E3
:1043300001A90858000A0002E10001AA5050E0005B
:1043400001A9085821A9095D4018E1005050601CDE
:10435000C4B20C2CEBD331200002FEF791F90546D4
:104360002A46802101A8FEF792F92448FDF76CF84F
:10437000002801D0FCF711F924A8FEF70FFA2498C1
:10438000219025982290269823900C2121A8FEF7B1
:10439000EBF9002412E0E00001A908580002000A2D
:1043A000E10001AA5050E00001A9085821A9095DC7
:1043B00009064018E1005050601CC4B20C2CEAD32E
:1043C0006320C001FEF75CF905462A46802101A85A
:1043D000FEF75DF90948FDF737F8002801D0FCF732
:1043E000DCF819204002FEF74BF905462A468021E9
:1043F00001A8FEF74CF927B030BD0000F8010020FD
:1044000001C1034C127AAB01FF0D1901180A89672B
:1044100045239A785634AB091ABC091ACD091ADE1D
:10442000091AEF091AF0091A01091A12091A2309BF
:104430001A34091A45091A56091937293F093B4008
:08444000412A0488710000000C
:04000005080000C12E
:00000001FF
