:100000000205080208B0D288D2A8220206F2D28ADB
:10001000D2AA220205948FEA8FFA220209B4EF6471
:1000200001700443BC802253BC7F22020AB730090E
:1000300010C209E4F51F7F7F120016E4F5F2D2DE4C
:1000400022E51FD3951E400AE4F51FC2DE53F2C01D
:10005000F5FA22020ABBC0E0E5F630E30353F6F7F7
:10006000D0E032020AA51207F4120A1C120A321258
:100070000A45120006120A9D120A93120A6AD2AFAA
:100080007FF47E01120A7975C123120A87E4FF12F8
:100090000753E4F51BF513D20943C11012083412BB
:1000A0000972EF70F4120A05120AAB12002E80E9F1
:1000B0008F1E22020056EFD3940774809480400371
:1000C0007FFF221207AEFED3940374809480400316
:1000D0007FFF22EF7044EE700B9000011207C7F40F
:1000E000529352941207AE6401700B9000011207F4
:1000F000C74293F452941207AEFE6402700A900055
:10010000011207C742934294EE6403700D90000100
:100110001207C7FEF45293EE4294EF640170461248
:1001200007AEFE700B9000011207C7F45291529275
:10013000EE6401700B9000011207C74291F45292D5
:100140001207AE6402700A9000011207C742914282
:10015000921207AE6403700D9000011207C7FEF4FF
:100160005291EE4292EF640270461207AEFE700B9F
:100170009000011207C7F452955296EE6401700B7D
:100180009000011207C74295F452961207AE64021E
:10019000700A9000011207C7429542961207AE649A
:1001A00003700D9000011207C7FEF45295EE4296BF
:1001B000EF640370461207AEFE700B900001120749
:1001C000C7F452B152B2EE6401700B9000011207F5
:1001D000C742B1F452B21207AE6402700A90000135
:1001E0001207C742B142B21207AE6403700D90000D
:1001F000011207C7FEF452B1EE42B2EF640470463A
:100200001207AEFE700B9000011207C7F452B352F2
:10021000B4EE6401700B9000011207C742B3F452B0
:10022000B41207AE6402700A9000011207C742B30D
:1002300042B41207AE6403700D9000011207C7FEAE
:10024000F452B3EE42B4EF640570461207AEFE708E
:100250000B9000011207C7F452C952CAEE64017034
:100260000B9000011207C742C9F452CA1207AE64CC
:1002700002700A9000011207C742C942CA1207AEB3
:100280006403700D9000011207C7FEF452C9EE42DC
:10029000CAEF640670461207AEFE700B90000112A2
:1002A00007C7F452CB52CCEE6401700B90000112E0
:1002B00007C742CBF452CC1207AE6402700A90001A
:1002C000011207C742CB42CC1207AE6403700D90F7
:1002D00000011207C7FEF452CBEE42CCEF64077068
:1002E000491207AEFF7E00700B9000011207C7F4A1
:1002F00052E152E2EF64014E700B9000011207C709
:1003000042E1F452E21207AE6402700A9000011258
:1003100007C742E142E21207AE6403700D9000018C
:100320001207C7FFF452E1EF42E27F0022C2CCC2C3
:1003300090EFB411004003020428900341F82828EC
:100340007302037402037D02038102038902039492
:1003500002039E0203A80203AA0203A80203BC022E
:1003600003C80203D40203E00203EC0203F8020410
:1003700008020418D2B5D296D29402041EC2B580E7
:100380002BD2B5D296C2948069D2B5D296D294D2ED
:1003900092020430C2B5D296D294C2928026D2B5CF
:1003A000C296D294D292801C800CD2B5D296D294AE
:1003B000C292C293805CD2B5D296801CD2B5D2963E
:1003C000D294D292C293803AD2B5D296D294C292AB
:1003D000D293802EC2B5C296D294D292D29380226A
:1003E000D2B5C296D294D292D2938016C2B5D2968A
:1003F000D294D292D293803AD2B5C296C294D2927B
:10040000D293D2B7D2B4802ED2B5D296C294D29221
:10041000D293C2B7C2B4801EC2B5C296C294D29261
:10042000D293D2B7C2B4800EC2B5C296C294C29261
:10043000C293C2B7D2B4ED64017003D2CC22D29081
:10044000229000011207C7FFE5DE54F04FF5DE9061
:1004500000021207C76401700543BC80800353BCCF
:100460007F9000031207C76401700543DE208003FC
:1004700053DEDF9000051207C764017004D2AD801F
:1004800002C2AD9000041207C7FF7E00D39403742C
:100490008094805072EF700553B7DFC2BDEF6401E6
:1004A0004E700553B7DFD2BDEF64024E700543B7FF
:1004B00020C2BDEF64034E700543B720D2BD1207C2
:1004C000AED3941F74809480503D9000061207C7ED
:1004D000FFD3940174809480502D9000071207C7B9
:1004E000FED3940374809480501D43BA80EEC433CD
:1004F00054E0FEEFC433333354804EFF1207AE4F47
:1005000090FEA8F053BA7F22787FE4F6D8FD75817B
:100510003E02054F020066E493A3F8E493A3400370
:10052000F68001F208DFF48029E493A3F85407244D
:100530000CC8C333C4540F4420C8834004F456800D
:100540000146F6DFE4800B01020408102040809091
:100550000949E47E019360BCA3FF543F30E5095490
:100560001FFEE493A360010ECF54C025E060A840B5
:10057000B8E493A3FAE493A3F8E493A3C8C582C8AC
:10058000CAC583CAF0A3C8C582C8CAC583CADFE981
:10059000DEE780BEC0E0C0D075D000C000C004C09F
:1005A00005C006C007300519C28AD2AAC205D3E524
:1005B0002C943274809480404475220175370080F9
:1005C0003CD28AD2AAD205E522603274232537F8BC
:1005D000A62C752C000537E53764087020D206F587
:1005E00037F5221208EA742D253DF8A607053DC30C
:1005F000E53D940A748094804003753D00752C009D
:10060000D007D006D005D004D000D0D0D0E032EF53
:10061000D3940F7480948040028063E4F5BDF5BEEE
:10062000E5BC54F044404FF5BC00000000E4FDED93
:10063000C394FA748094805045E5BC30E53D53BCCA
:10064000DFE5DEAFBD30E50EEFFEACBEECFBEEF558
:1006500008EBF50980207508008F09E5BEC4540F2A
:10066000FBE509C4F8540FC868FFE508C454F04816
:10067000F508EF4BF509AE08AF09220D80B17E10E9
:100680007F0022E4FFFEFDFCECC3953D5019742D64
:100690002CF8E6FB7A00641B70030E8007EB64BB4A
:1006A0004A70010D0C80E1E53D6046EED39D4004AB
:1006B0007F1B8007EEC39D50027FBBE4F53DEF2416
:1006C00045601A24A0702AD2040538D3E538940472
:1006D000748094804016E4F538C204800F3004071B
:1006E000C204E4F5388005D204753801AF3812072A
:1006F0005322C0E0C0F0C083C082C0D075D000C01B
:1007000000C001C002C003C004C005C006C007C3CA
:10071000E52C94FC748094805002052C051DE51D89
:100720007002051CAF1A051AD3EF942874809480C8
:100730004006751A0012091ED007D006D005D00455
:10074000D003D002D001D000D0D0D082D083D0F05E
:10075000D0E032EF14601614602014602A14603464
:1007600014603E24057046E4F513F51B2275130151
:100770007514FF7515FFD2098030751301751410BB
:10078000751501751B01227513017514107515027D
:10079000751B0222751301751410751503751B0363
:1007A0002275130175140E751501E4F51B22BB01AA
:1007B0000689828A83E0225002E722BBFE02E322FE
:1007C00089828A83E49322BB010CE58229F582E5C4
:1007D000833AF583E0225006E92582F8E622BBFE43
:1007E00006E92582F8E222E58229F582E5833AF5D9
:1007F00083E4932253B14F43B2B05391A343925C2D
:100800005391FE43920153C9EF43CA10C2CCC29622
:1008100043BA8090FE1BE054F7F053BA7F43B1080F
:1008200053B2F753917F439280C2975391FD439205
:1008300002D2912230013CC2017F0512060FEF70F7
:1008400003EE6410602DC3EF94DDEE94015004D2EA
:1008500003800BD3EF942CEE94024014C203AF3EFE
:10086000053ED3EF9404748094804007A203920263
:10087000E4F53E2230B61A300702802CD3E51D94F1
:10088000F4E51C94014026E4F51CF51DD2077F0118
:1008900022300714D3E51D94D0E51C9407400EE4E4
:1008A000F51CF51DC2078005E4F51CF51D7F00222F
:1008B000C0E0C0D0538EEFE51B14600E1460151419
:1008C000601C2403701CC297801BC29775D6F275FA
:1008D000D7DA800EC29775D6F975D73C8004D297C7
:1008E0008003438E10D0D0D0E032E4FFFEEEFD7CDA
:1008F00000D3940774809480502374232EF8E6C3A9
:100900009405748094804003430780C3ED9407EC02
:10091000648094805004EFC313FF0E80D022E5134F
:100920006022E5126401700BAD12AF1412032D7535
:10093000120222E5126402700FAD12AF1512032DE0
:1009400075120122C2CCC290220112010118FF01CE
:100950001A00011900C105C106012C00013800016F
:100960003D00043900000000012200C107C108C198
:1009700000003002127F051207532000077F01128A
:100980000A58D2007F0122300007C200E4FF120A99
:10099000587F002230071A200819D2080538D3E5FD
:1009A000389404748094804003E4F538AF3802072B
:1009B00053C20822C0E0C0D0051F0519C3E5199431
:1009C00008748094804005751900D201D0D0D0E021
:1009D0003275081FE4F50E750F01F509750B01FB63
:1009E0007A0079081204417F0102001E53A2E7E455
:1009F000F5D875D980F5E9F5F975DA42F5F275EAB9
:100A00007F75FA7F22300613D3E52C94F07480941E
:100A1000804008E4F52CC20612068322538E7F53D1
:100A200089F0438902758ABA758CBAC28DD28CD28C
:100A3000A922538EBF53890F758BDC758D0BC28F26
:100A4000D28ED2AB2253EFFE538EFB75D77875D67C
:100A5000EC538EEF75AF0422EF64017004853818F3
:100A600022851838AF3812075322D2091209EC7FB9
:100A70007F1200167F020200B0EF1FAC0670011E4D
:100A80004C60030080F322C202C203C201E4F53EBF
:100A90000209D1E4F51CF51DC207C20822E4F538AD
:100AA000D20502000E53EFFED297321208740209EB
:0C0AB00094D2A8758F102253BCDF3232A4
:00000001FF
