:020000040800F2
:10000000B0050020D5000008851000088110000808
:1000100000000000000000000000000000000000E0
:1000200000000000000000000000000003110008B4
:100030000000000000000000011100080511000888
:10004000000000000000000000000000E7000008C1
:10005000E7000008E7000008E7000008E7000008E4
:100060000000000000000000000000000000000090
:1000700019020008E7000008E7000008000000007F
:1000800000000000E7000008000000000000000081
:1000900000000000E700000800000000E700000882
:1000A00000000000E700000800000000E700000872
:1000B0000000000000000000000000000000000040
:1000C0000348854600F05AF800480047E50100085B
:1000D000B00500200448804704480047FEE7FEE7DB
:1000E000FEE7FEE7FEE7FEE70D110008C10000088D
:1000F00030B50B46014600202022012409E00D46C0
:10010000D5409D4205D31D469540491B2546954047
:1001100040191546521E002DF1DC30BDF0B51FB45C
:100120000646002082B005464024019100901BE065
:10013000019922460F46304600F042F8049A059B8A
:10014000801A994110D310461946224600F028F82B
:10015000361A8F410197224601200021009F00F0AE
:100160001FF838184D4100902046641E0028DFDC3F
:10017000019B00982946324607B0F0BD064C012588
:10018000064E05E0E36807CC2B430C3C984710343F
:10019000B442F7D3FFF798FF6819000888190008E0
:1001A00010B5202A04DB0146203A9140002010BD02
:1001B000914020239C1A0346E3401943904010BD10
:1001C00010B5202A04DB0846203AD040002110BD9B
:1001D0000B46D340D0402024A21A91400843194630
:1001E00010BD000070B50125ED06002406E0A0005A
:1001F0002858A100064A5050601CC4B2302CF6DBCF
:10020000012040070349886001F056FB002070BDC3
:100210000000002000ED00E010B5024800F0C5FA33
:1002200010BD0000E800002038B504460020009012
:1002300020688068C007C00F01214840484000285E
:1002400027D12068806814490840002801D1012086
:1002500000E00020002809D1206B10210843206312
:10026000606B012108436063012038BD206880680D
:100270000121084321688860084909480068FFF7A0
:1002800037FF009002E00098401E00900098002880
:10029000F9D10020E9E700001500008040420F007E
:1002A000C000002008B500BF3748006801210905DB
:1002B00008433549086008460068012109050840DF
:1002C000009000BF00BF30484038006B08432E4903
:1002D000403908630846006B0121090588432A4913
:1002E0004039086300BF2848006801210905084318
:1002F000254908600846006801210905084000906A
:1003000000BF00BF214822490860084600F026F9D6
:10031000002801D000F020F91C481D490860002089
:10032000486000211A488160C160022101610421F6
:100330004161012101760021417601218176002170
:10034000C1610321890201620021416207218162AA
:1003500000F0B0FA002801D000F0FEF80120000300
:100360000C49486000200860094800F047F900285F
:1003700001D000F0F1F8064800F090FB002801D011
:1003800000F0EAF808BD00004010024000240140DF
:10039000E80000202001002008B500BF19480068CF
:1003A0000121C90208431749086008460068C914BA
:1003B0000840009000BF00BF13481449086014496A
:1003C0001248C16063201149486000210F48016153
:1003D00081604161816100F063FD002801D000F07F
:1003E000BBF820200B49086000204860074800F057
:1003F00027FD064800F06CFD002801D000F0ACF8A5
:1004000008BD000040100240002C01402C010020DB
:100410003F1F0000C800002010B586B0044600BF92
:1004200000BF1448406B0121084312494863084645
:10043000406BC007C00F009000BF00BF00BF60004E
:100440000D49085A019001200290002003900220DB
:100450000490A100094A505801A900F06FFB620006
:10046000054B995AA200054B9858012200F040FC18
:1004700006B010BD0010024060190008D000002036
:1004800000B587B000BF002001903048006801210E
:10049000890308432D490860084600680121890343
:1004A0000840019000BF00BF29482A490860E120A8
:1004B00040024860002127488160C160016181617C
:1004C0000C21416100F017FD00BF20484038406B0F
:1004D000012108431D49403948630846406BC00765
:1004E000C00F019000BF00BF00BF0846406B012154
:1004F00008431649403948630846406BC007C00F9F
:10050000019000BF00BF0420029002200390012050
:100510000490032005900120069002A90520000701
:1005200000F00CFB082002900120069002A9052093
:10053000000700F003FB012200211B2000F040FC1B
:100540001B2000F031FC07B000BD0000401002404D
:10055000003801406801002000BFFEE770B5044686
:100560000025002600BF2C20005D012801D10220BB
:1005700070BD01212C20015500BF20688068084013
:100580004840484000282CD1206B090288430221B2
:1005900008432063206880688907084321688860D1
:1005A00000F0ACFB064611E000F0A8FB801B02281F
:1005B0000CD9206B0221884310210843206300BF1F
:1005C00000212C20015500BF0120D1E72068806860
:1005D000C00FC0070028E7D1206B022188432063A9
:1005E00004E0206B202108432063012500BF002187
:1005F0002C20015500BF2846BAE70000F8B5044694
:100600000D46002600200090A06A002815D0A06AA0
:10061000012812D0A06A02280FD0A06A03280CD0AB
:10062000A06A042809D0A06A052806D0A06A062876
:1006300003D0A06A072800D000BF00BF2C20005DB7
:10064000012801D10220F8BD01212C20015500BF55
:100650002068806804210840800800287BD1444934
:10066000686888425AD02068806A2A7801219140BF
:10067000084321688862A06A002829D0A06A01285E
:1006800026D0A06A022823D0A06A032820D0A06A1E
:1006900004281DD0A06A05281AD0A06A062817D001
:1006A000A06A072814D0A868216849694907490F3A
:1006B00088420DD020684069C008C00021684861A8
:1006C00020684069297A4907490F08432168486131
:1006D0002868092802D028680C2841D1254880685C
:1006E0002968092902D10121C90501E001218905F3
:1006F0000843204988602868092831D11E491F48CD
:100700000068FFF7F5FC0A214843009002E00098DA
:10071000401E009000980028F9D121E02068806AEE
:100720002A78012191408843216888622868092835
:1007300002D028680C2813D10E488068296809293E
:1007400003D10121C90502E005E0012189058843A3
:100750000849886004E0206B2021084320630126BB
:1007600000BF00212C20015500BF30466BE7000080
:10077000011000000027014040420F00C00000208F
:1007800010B504462068006C0349088008460188BB
:1007900002A000F029FE10BDC40000204144433AED
:1007A00020253033780A0D00704710B504462068C4
:1007B000006804210840042804D1206840680840EB
:1007C00004280AD02068006808210840082840D181
:1007D00020684068084008283BD1206B1021084061
:1007E000002803D1206B4901084320632068C068BA
:1007F000032189020840002825D1607E002822D1EB
:10080000206800680821084008281CD120688068FA
:1008100004210840800800280DD1206840680C2180
:10082000884321684860206BFF2101318843012102
:100830000843206307E0206B202108432063606B9E
:100840000121084360632046FFF79AFF0C202168CE
:100850000860206800688021084080280ED1206848
:1008600040680840802809D1206B49020843206372
:10087000204600F0E9F880202168086020680068C0
:1008800010210840102814D1206840680840102822
:100890000FD1606A012809D1606B022108436063AF
:1008A0001020216808602046FFF77EFF1020216895
:1008B000086010BD70B5044600260025002C01D14B
:1008C000012070BD206B002806D1606300212C2020
:1008D0000155204600F0BAF8206B1021084000288E
:1008E0007ED1002EFCD12068806804210840800859
:1008F0000028F5D1206B8901884302210843206339
:1009000020688068C007C00F012148404840002887
:100910000FD12068C06818218843A1680843216866
:10092000C860206800690001000961680843216807
:1009300008612068C068424908402168C860207E7C
:100940008003617E49030843616A012902D00121C5
:10095000090300E000210843E168084321690229F6
:1009600001D1042100E0002108430543A07E0128B5
:100970000ED1607E002803D101200004054307E06A
:10098000206B202108432063606B012108436063D2
:10099000FF21C231E069884203D0216AE06908433F
:1009A00005432068C06828432168C860A06A002801
:1009B00014D0A06A012811D0A06A02280ED0A06A23
:1009C00003280BD0A06A042808D0A06A052805D007
:1009D000A06A062802D0A06A07280FD1206800E08C
:1009E00027E04069C008C00021684861206840696C
:1009F000218D4907490F0843216848612068C06874
:100A000010490840A84208D100206063206B0221F1
:100A1000884301210843206310E0206B02218843B2
:100A2000102108432063606B0121084360630126A5
:100A300004E0206B1021084320630126304640E784
:100A40001BC2FEFFE7FF3FC37047000010B586B032
:100A5000044600BF1048406B012108430E4948631B
:100A60000846406BC007C00F009000BF00BF0120C8
:100A70000190032002900020039001A905200007A7
:100A800000F05CF8002211460C2000F099F90C20CF
:100A900000F08AF906B010BD0010024070B504469F
:100AA000002520688068042108408008002840D183
:100AB00000BF2C20005D012801D1022070BD012162
:100AC0002C20015500BF2046FFF7AEFB0546002D48
:100AD00030D1206B18490840FF21013108432063C1
:100AE0000020606300BF00212C20015500BF1C20A6
:100AF00021680860606908280CD1206840680421DA
:100B000088432168486020684068182108432168AC
:100B1000486006E0206840681C210843216848605E
:100B200000BF00BF206880680421084321688860F6
:100B300000E002252846C1E7FEF1FFFF70B503463D
:100B40000022CBE0012696400C683440002C71D086
:100B50004D68022D02D04D68122D15D1D508AE007A
:100B60001D462035A8595507EE0E0F25B5400646FF
:100B7000AE4330465607F60E0D69B5402843D508FA
:100B8000AD001E4620367051186856000325B5404A
:100B90000646AE4330460D79AD07AD0F5600B54061
:100BA000284318604D68012D08D04D68022D05D0EE
:100BB0004D68112D02D04D68122D18D1986856003D
:100BC0000325B5400646AE4330465600CD68B540D5
:100BD000284398605868012595400646AE43304644
:100BE00010264D6835402D09954028435860D86837
:100BF00056000325B5400646AE43304656008D6884
:100C0000B5402843D860012636074D683540B542C7
:100C100063D1354D9608B600A8599507EE0E0F25FD
:100C2000B5400646AE43304605252D07AB4202D1FE
:100C3000002506E051E02D4DAB4201D1012500E039
:100C400002259607F60EB5402843274D9608B600B4
:100C5000A851254D203528680546A543284601267C
:100C600036044D683540B54202D105462543284635
:100C70001D4D2035286068680546A5432846012695
:100C800076044D683540B54202D1054625432846D5
:100C9000154D20356860144D603D28680546A54314
:100CA0002846012636054D683540B54202D1054635
:100CB000254328460C4D603D286068680546A543DD
:100CC0002846012676054D683540B54202D10546D5
:100CD00025432846044D603D6860521C0D68D54090
:100CE000002D00D02EE770BD6018024000040050B7
:100CF000002A01D0816100E08162704701480068EC
:100D000070470000D80000200348006803490968C4
:100D10004018014908607047D8000020E00000201A
:100D200010B50024032000F009F8002801D00124A8
:100D300001E000F033F8204610BD0000F8B504468D
:100D400000251348006800281ED0114801687D2046
:100D5000C000FFF7CDF9074639460E480068FFF797
:100D6000C7F9064600F050F800280BD1042C07D232
:100D700000222146401E00F023F80748046004E0EA
:100D8000012502E0012500E001252846F8BD00000C
:100D9000E0000020C0000020DC00002010B5002092
:100DA000FFF73AFB10BD000000BFC206D20E0121C2
:100DB0009140024A116000BF7047000000E100E06E
:100DC00070B504460D4616462946204600F05CF9EB
:100DD00070BD00000148006870470000C00000209E
:100DE00000B5FFF7F7FF0649896807221203114093
:100DF000090B8900034A515CC906C90EC84000BDF1
:100E0000001002402019000870B504462546681EEF
:100E10000949884201D901200CE0681E0749486150
:100E20000321081F00F030F90020044988610720E1
:100E30000861002070BD0000FFFFFF0000E000E03F
:100E400030B502460B4600BF507F012801D1022079
:100E500030BD0120507700BF0220907710684468B1
:100E60001068816870252046A8430446186804432A
:100E700010684460094D1068A84207D180250846D3
:100E8000A8430146586801431068816001209077AB
:100E900000BF0020507700BF00BFD9E7002C014001
:100EA00010B50446002C01D1012010BDA07F002800
:100EB00003D16077204600F00AF80220A077211DB8
:100EC000206800F039F90120A0770020EDE7704795
:100ED000014602208877086880684207520F062A78
:100EE00005D008680068012318430B6818600120CA
:100EF00088770020704710B50446002C01D10120EE
:100F000010BDA069002800D000E000BF3D20005DBA
:100F1000002805D100213C200155204600F030F882
:100F200024213D2001552068C068012149038843E0
:100F30002168C860204600F04DF9206A002802D0E0
:100F4000204600F02BF9206800690121C90288437E
:100F50002168086120684069082188432168486148
:100F60002068C0680121490308432168C860002047
:100F7000206420213D2001553E2001550020BFE77F
:100F80007047FFB583B004460D4617460020019018
:100F90003D20005D202871D1002D01D0002F02D10D
:100FA000012007B0F0BD01210903A068884208D1E3
:100FB0002069002805D1E807C00F002801D00120D2
:100FC000EFE700BF3C20005D012801D10220E8E7E7
:100FD00001213C20015500BF0020206421213D203B
:100FE0000155FFF78BFE01902786678601210903D3
:100FF000A068884205D12069002802D10026029508
:1010000002E02E46002002901EE00698009000228A
:1010100080212046019B00F0AFF9002801D0032079
:10102000BFE7002E09D102980088C005C00D2168D5
:1010300048600298801C029003E030782168486084
:10104000761C608E401E6086608E0028DDD106987A
:101050000090002240212046019B00F08DF90028DD
:1010600001D003209DE720213D20015500BF002134
:101070003C20015500BF002093E7FFE7022090E7E6
:1010800000BFFEE77047000010B5002819DA1A4AC1
:1010900003071B0F083B9B089B00D2588307DC0EFD
:1010A000FF23A3409A438B071B0E8407E40EA34043
:1010B0001A43114B0407240F083CA408A4001A513A
:1010C00018E00E4A03231B02D21883089B00D25853
:1010D0008307DC0EFF23A3409A438B071B0E840774
:1010E000E40EA3401A43054B032424021B19840871
:1010F000A4001A5110BD00001CED00E000E100E06A
:101100007047704710B5FFF7FFFD10BD07484068F6
:10111000000C0004012149034018054949680843AF
:1011200002494860C80303498860704700100240C4
:10113000000FFF1F00ED00E010B50268154B98424C
:1011400005D170241346A3431A464B681A43114B2A
:10115000984202D0104B984206D103242402134631
:10116000A3431A46CB681A4380241346A3434C6911
:1011700023431A4602608B68C3620B688362054B87
:10118000984202D0044B984201D10B6903630123BA
:10119000436110BD002C0140004401404022016A1F
:1011A0001140002915D00168496992019143426AB2
:1011B00011430268516101221203416A914208D130
:1011C00001684969032252039143826A114302680C
:1011D00051617047FEB5044620680069012149034A
:1011E0008843E1680843216808612169A0680843D1
:1011F0006169084302902068C0685E49084002990E
:1012000008432168C860E0690290206840690121B4
:10121000C9028843029908432168486120684069EF
:10122000032109028843A16908432168486101211B
:10123000C902E06988424ED1FFF7D2FD05466268D7
:10124000510019226A431046FEF752FF06466421F8
:10125000FEF74EFF07016268510019226A431046EB
:10126000FEF746FF06466268510019226A4310469F
:10127000FEF73EFF64210090FEF73AFF64214843E9
:10128000301AC00032300190FEF732FFF8210840DA
:1012900040003F186268510019226A431046FEF769
:1012A00027FF06466268510019226A431046FEF77E
:1012B0001FFF64210090FEF71BFF64214843301A92
:1012C000C00032300190FEF713FF4007400F38187E
:1012D000216888604CE0FFF783FD05466268910055
:1012E00019226A431046FEF703FF06466421FEF703
:1012F000FFFE07016268910019226A431046FEF75B
:10130000F7FE06466268910019226A431046FEF70E
:10131000EFFE64210090FEF7EBFE64214843301A93
:10132000000132300190FEF7E3FEF02108403F1843
:101330006268910019226A431046FEF7D9FE0646FC
:101340006268910019226A431046FEF7D1FE6421BB
:101350000090FEF7CDFE64214843301A0001323080
:101360000190FEF7C5FE0007000F3818216888605D
:10137000FEBD0000F3E9FFFFFFB581B004460D4656
:1013800017460A9E24E0701C002821D0002E05D0AC
:10139000FFF7B4FC0499401AB04219D92068C0681C
:1013A000FF21A13188432168C86020684069400856
:1013B00040002168486120213D2001553E20015513
:1013C00000BF00213C20015500BF032005B0F0BD47
:1013D000206800682840A84201D1012000E00020D8
:1013E000B842D0D00020F1E70FB410B503A9044BE8
:1013F000044A029800F018F810BC08BC04B0184762
:101400009D180008E400002002E008C8121F08C16F
:10141000002AFAD170477047002001E001C1121F75
:10142000002AFBD170470000FFB591B00F4605467A
:10143000002606E025280AD0149A139990476D1CBF
:10144000761C28780028F5D1304615B0F0BD002470
:1014500000940121F34A029400E004436D1C2B78B0
:101460000846203B98401042F7D128782A280ED011
:10147000022128780246303A092A15D8009A0A2310
:101480005A43303A80180C436D1C0090F1E701CFAD
:101490000090002805DA01204003044300984042F0
:1014A0000090022004436D1C28782E2815D10420BA
:1014B000044368786D1C2A280AD101CF6D1C029064
:1014C0000BE002990A225143303940186D1C0290FA
:1014D0002878014630390929F3D928786C2810D0AA
:1014E00006DC4C281AD068280ED06A2817D104E0F0
:1014F000742813D07A2812D110E00120400504434B
:101500000CE00121090501E0032109050C4369787C
:10151000814203D10120000524186D1C6D1C287820
:1015200003906E281ED00CDC632831D004DC002828
:101530008AD0582811D1B2E064287BD069280CD118
:1015400078E073282DD004DC6F2870D0702804D187
:10155000A7E075286CD078286BD0149A139990471F
:10156000761C62E06002400F022807D003280AD0F0
:10157000042838680AD006603F1D56E03868F11725
:1015800006604160F8E738680680F5E70670F3E723
:101590003878694608740020487404A80390012034
:1015A00003E0386803900020C0433F1D61070FD55A
:1015B000002101E00199491C029A0191914213DA3C
:1015C0008142F7DB019A0399895C0029F2D10BE093
:1015D000002101E00199491C01918142FADB019A45
:1015E0000399895C0029F5D101990098139A401A52
:1015F00000902146149B00F03BF901998019461890
:1016000007E0039803990078491C0391149A1399F1
:1016100090470198401E0190401CF2D12146149B36
:10162000139A009800F014F986196D1C09E741E03F
:1016300033E034E00A200021049005916002410F5C
:10164000022905D001CFC2179446032905D007E02F
:10165000FF1DFF08FF0003CF06E000B2C21794464B
:10166000042902D140B2C1178C460022614694453C
:1016700006DA0A460021404291418C462D2102E0C3
:10168000210504D52B216A461176012103E0E107EB
:1016900001D02021F7E7019154E00A200BE010204F
:1016A00009E0102004900021042004430820059143
:1016B000029003E008200021059104906002410F90
:1016C000022905D001CF00229446032906D006E066
:1016D000FF1DFF08FF0003CF8C4603E080B2042902
:1016E00000D1C0B20021019121072BD503997029A7
:1016F00006D0049A1021059B4A401A4305D00EE0FB
:1017000040216A461176012108E06146014306D076
:1017100030216A4611760399517602210191049A8B
:101720000821059B4A401A430CD16146014301D16F
:10173000610707D530216A4611760121019102998E
:10174000491E02910399582904D037A103910FA98A
:101750000F910DE039A1F9E76146059B049AFEF768
:10176000DDFC039B8C469B5C0F9A521E0F921370FC
:1017700061460143F0D10F9807A9081A2030039061
:10178000600704D5012000048443029801E0012091
:1017900002900399884201DD401A00E000204118C0
:1017A0000290019809180098401A0090E00306D4AE
:1017B0002146149B139A009800F05AF886190020CD
:1017C000049008E006A9085C149A139990470498BD
:1017D000401C761C049001998842F3DBE0030CD591
:1017E0002146149B139A009800F042F8861904E0F1
:1017F000149A302013999047761C0299481E029043
:101800000029F5DC08E00F980F990078491C0F912A
:10181000149A13999047761C0399481E0390002947
:10182000F1DCFBE60928010030313233343536373C
:10183000383961626364656600000000303132331C
:1018400034353637383941424344454600000000BC
:10185000F8B5044600251E461746880404D405E062
:1018600039462020B0476D1C641EF9D52846F8BDC6
:10187000FFB50446002581B01E46C80301D53027B8
:1018800000E02027880404D505E038460399B047D6
:101890006D1C641EF9D5284605B0F0BD13B50C4685
:1018A0007D23DB00012269460248FFF76AFB0098AE
:1018B0001CBD000068010020FFF732FAFEF7E0FDD2
:1018C00004A0FFF791FDFEF767FDFEF7EBFC00BFFC
:1018D000FEE700007072696E742074657374000016
:1018E00000000000000000000000000000000000F8
:1018F00000000000000000000000000000000000E8
:1019000001000000020000000300000004000000CD
:1019100006000000070000000800000009000000A9
:1019200000000000000000000000000000000000B7
:10193000010000000200000003000000040000009D
:1019400000093D0000127A000024F4004086510195
:1019500000366E0100093D0000093D0000093D0010
:101960002000040006000000881900080000002084
:10197000E800000008140008701A0008E8000020C1
:10198000C804000018140008000000000000000057
:101990000000000000000000000000000000000047
:1019A0000000000000000000000000000000000037
:1019B0000000000000000000000000000000000027
:1019C0000000000000000000000000000000000017
:1019D0000000000000000000000000000000000007
:1019E00000000000000000000000000000000000F7
:1019F00000000000000000000000000000000000E7
:101A000000000000000000000000000000000000D6
:101A100000000000000000000000000000000000C6
:101A200000000000000000000000000000000000B6
:101A300000000000000000000000000000000000A6
:101A4000000000000000000000127A00000000000A
:101A500000000000000000000000005000040050E2
:101A60000000000004000000010000000000000071
:04000005080000C12E
:00000001FF
