:1000000002005ED28AD2AAD203223202034C43C13A
:020010001022BC
:030013000201D215
:10001B0002022620B41A300002802CD3E52494F47B
:10002B00E52394014026E4F523F524D2007F012239
:10003B00300014D3E52494D0E5239407400EE4F567
:0F004B0023F524C2008005E4F523F5247F00226D
:10005B0002000A787FE4F6D8FD7581410200A50203
:10006B000173E493A3F8E493A34003F68001F20831
:10007B00DFF48029E493A3F85407240CC8C333C4DA
:10008B00540F4420C8834004F456800146F6DFE445
:10009B00800B01020408102040809002E4E47E01F2
:1000AB009360BCA3FF543F30E509541FFEE493A3B8
:1000BB0060010ECF54C025E060A840B8E493A3FACA
:1000CB00E493A3F8E493A3C8C582C8CAC583CAF056
:1000DB00A3C8C582C8CAC583CADFE9DEE780BEE410
:1000EB00FFFEFDEDC39541501974302DF8E6FB7AF8
:1000FB000064BB70030F8007EB641B4A70010E0D8D
:10010B0080E1E541C313FDEFD39D4005750CBB802A
:10011B0008EED39D4003750C1B7E007F0A7D007B90
:10012B00007A007930120292E4F541E50C24E56087
:10013B00192460703230012A053CC3E53C940474E9
:10014B00809480401D753C018018300107C201E48A
:10015B00F53C8005D201753C01E4F540F53FF53ED9
:10016B00F53DAF3C12030A22E4F50B1202BED2AFEF
:10017B0012036A1203801200037FE87E03120393BB
:10018B00300624C206E4F52ED20212025FAE410500
:10019B004174302EF8A607C3E541940A748094800D
:1001AB004018E4F5418013D3E52E940174809480BC
:1001BB004008300205C2021200EA12001EEF600274
:1001CB00D20112032C80B9C0E0C0D075D000C000A2
:1001DB0030031FC28AD2AAC203D3E52F943C74808A
:1001EB0094804009852F25753B01752101752F00E2
:1001FB008022D28AD2AAD203E52160187425253B2E
:10020B00F8A62F752F00053BE53B64097006D20657
:10021B00F53BF521D000D0D0D0E032C0E0C0D030DB
:10022B000202052E0522C3E52294087480948040B7
:10023B001E752200753A01300515E5402401F54085
:10024B00E4353FF53FE4353EF53EE4353DF53DD035
:10025B00D0D0E032E4FF7E01FDEDD394077480949F
:10026B0080502374252EF8E6D39405748094804037
:10027B0003430780EDC39407748094805004EFC34D
:10028B0013FF0E0D80D322EF4E6012EF60010EEDC7
:10029B00BB010B89828A83F0A3DFFCDEFA2289F093
:1002AB005007F709DFFCA9F022BBFEFCF309DFFCCA
:1002BB00A9F02243BA8090FE13E04403F053BA7FB7
:1002CB005391FE43920153B13F43B2C043B1185314
:1002DB00B2E7C2B7C290C2B622C106012F00C1005D
:1002EB00C104C103C102013C00043D000000000138
:1002FB003A00012E0001410001210001220000EF14
:10030B0014600F14601114601324037013C2B7C26E
:10031B009022D2B7C29022C2B7D29022D2B7D2903B
:10032B002230001A200419D204053CC3E53C940486
:10033B00748094804003753C01AF3C02030AC204F5
:10034B0022C0E0C0D0C3E52F94F07480948050029B
:10035B00052F0524E52470020523D0D0D0E03253BD
:10036B008E7F5389F0438902758ABA758CBAC28D18
:10037B00D28CD2A922538EBF53890F758BDC758D0E
:10038B000BC28FD28ED2AB22EF1FAC0670011E4C6C
:10039B0060030080F3228B088A09890A75C1232226
:101000002A2A2A257535463030257535334445253D
:1010100075383030352575464631412575353436BD
:10102000382575363736382575364345325554469A
:051030002D382A2A2AD8
:00000001FF
