:020000040800F2
:10000000B0060020D50000084D2000084920000857
:1000100000000000000000000000000000000000E0
:10002000000000000000000000000000CB200008DD
:100030000000000000000000C9200008CD200008DA
:10004000000000000000000000000000E7000008C1
:10005000E7000008E70000089D040008A704000866
:100060000000000000000000000000000000000090
:100070003D02000811210008E70000080000000010
:1000800000000000E7000008000000000000000081
:10009000000000000121000800000000E700000847
:1000A00000000000E700000800000000E700000872
:1000B0000000000000000000000000000000000040
:1000C0000348854600F062F800480047090200082E
:1000D000B00600200448804704480047FEE7FEE7DA
:1000E000FEE7FEE7FEE7FEE7D5200008C1000008B6
:1000F00030B50B46014600202022012409E00D46C0
:10010000D5409D4205D31D469540491B2546954047
:1001100040191546521E002DF1DC30BD70B500248B
:100120002546002801DA01244042002901DA012590
:100130004942FFF7DDFFAC4200D04042002C00D026
:10014000494270BD03460B439B0703D009E008C931
:10015000121F08C0042AFAD203E00B780370401C77
:10016000491C521EF9D27047D2B201E00270401C05
:10017000491EFBD270470022F6E710B513460A4627
:1001800004461946FFF7F0FF204610BD064C012536
:10019000064E05E0E36807CC2B430C3C984710342F
:1001A000B442F7D3FFF790FF003300082033000874
:1001B00070B58C180578401C6B075B0F01D1037874
:1001C000401C2A1106D10278401C03E006780E700C
:1001D000401C491C5B1EF9D12B0705D40023521E7D
:1001E0000DD40B70491CFAE70378401CCB1A921C03
:1001F00003E01D780D70491C5B1C521EF9D5A1420D
:10020000D8D3002070BD000070B50125ED06002494
:1002100006E0A0002858A100064A5050601CC4B255
:10022000302CF6DB012040070349886002F0F8FD1E
:10023000002070BD0000002000ED00E010B5024875
:1002400000F0F7FA10BD0000D801002038B50446D0
:100250000020009020688068C007C00F012148403E
:100260004840002827D120688068144908400028A9
:1002700001D1012000E00020002809D1206B1021CD
:1002800008432063606B012108436063012038BD8F
:10029000206880680121084321688860084909486E
:1002A0000068FFF725FF009002E00098401E0090D4
:1002B00000980028F9D10020E9E70000150000802F
:1002C00040420F00C000002008B52C48006B0121FF
:1002D00009050843294908630846006B01210905FF
:1002E00088432649086300BF244840300068012144
:1002F000090508432149403108600846006801218A
:1003000009050840009000BF00BF1D481D49086056
:10031000084600F06FF9002801D000F0C9F818482D
:100320001849086000204860002116488160C160BB
:100330000121016104214161012101760021417601
:1003400001218176FF21C231C16100210162416238
:100350000521816200F0F2FA002801D000F0A8F82F
:10036000012000030849486009200860054800F0A2
:1003700091F9002801D000F09BF808BD0010024060
:1003800000240140D80100208001002070B50546FE
:100390000E46002407E028590021C943884201D0B5
:1003A00000F086F8241DB442F5D370BD30B587B097
:1003B00004460D4600200690022001900294E809B0
:1003C000039006A901A800F033FC002801D000F03A
:1003D0006FF807B030BDFEB506460F4615462C46F1
:1003E000E819019000960AE021460120009A00F0E9
:1003F00099FE002803D18034009880300090019845
:100400008442F1D3FEBDF8B505460E4617460024DA
:1004100008E0A008800028583959884201D000F02F
:1004200047F8241DB442F4D3F8BD000000B58BB0EA
:100430001C2104A8FFF79FFE00200090019002906D
:1004400003900B200490FF200130079000200890BB
:1004500011488088C004C00C012149030843099059
:100460000020059001200A9004A801F011FA00284C
:1004700001D000F01DF807200090002001900290AC
:1004800003900021684601F0F1F8002801D000F047
:100490000FF80BB000BD0000000FFF1F10B50420C7
:1004A00000F038FF10BD10B5802000F033FF10BD04
:1004B00000BFFEE700200649486006484069042165
:1004C0000843044948610448C106086070470000B9
:1004D0009402002000200240214334120448006AA4
:1004E000C1B2AA2901D1AA2070470846FCE7000042
:1004F000002002400449096A090A0902DF221202A7
:1005000011400846704700000020024030B5064CFC
:10051000236AFF2404431D46A5432B461C460C4377
:100520001443014D2C6230BD002002400021054AD9
:1005300051600549496902221143034A5161FF2173
:10054000016070479402002000200240F0B502468E
:100550000B46002014461D46104E766901273E4387
:100560000E4F7E6100BFEFF31086314672B60EE08B
:100570002E6826602D1D241D461CF0B21F2806D1B2
:10058000064E76690127FF043E43044F7E61202812
:10059000EED300BF81F3108800BFF0BD0020024001
:1005A000044949690122D2021143024A5161FF21E3
:1005B000016070470020024070B5044600F09AFFC9
:1005C000051905E000F096FFA84201D3032070BD95
:1005D00006480069012109040840000C0028F1D1F7
:1005E0000348024908610020F1E7000000200240B2
:1005F0001180000070B504460025002600BF2C20A5
:10060000005D012801D1022070BD01212C2001557F
:1006100000BF2068806808404840484000282CD12E
:10062000206B090288430221084320632068806808
:10063000890708432168886000F05CFF064611E0E6
:1006400000F058FF801B02280CD9206B0221884340
:1006500010210843206300BF00212C20015500BF5A
:100660000120D1E720688068C00FC0070028E7D1CB
:10067000206B02218843206304E0206B2021084383
:100680002063012500BF00212C20015500BF284612
:10069000BAE70000F8B504460D4600260020009099
:1006A000A06A002815D0A06A012812D0A06A0228EA
:1006B0000FD0A06A03280CD0A06A042809D0A06A31
:1006C000052806D0A06A062803D0A06A072800D013
:1006D00000BF00BF2C20005D012801D10220F8BD21
:1006E00001212C20015500BF2068806804210840AA
:1006F000800800287BD14449686888425AD0206825
:10070000806A2A7801219140084321688862A06AA2
:10071000002829D0A06A012826D0A06A022823D068
:10072000A06A032820D0A06A04281DD0A06A05284A
:100730001AD0A06A062817D0A06A072814D0A86883
:10074000216849694907490F88420DD020684069EE
:10075000C008C0002168486120684069297A4907BB
:10076000490F0843216848612868092802D0286891
:100770000C2841D1254880682968092902D1012126
:10078000C90501E0012189050843204988602868DE
:10079000092831D11E491F480068FFF7A9FC0A212A
:1007A0004843009002E00098401E00900098002806
:1007B000F9D121E02068806A2A780121914088439C
:1007C000216888622868092802D028680C2813D17B
:1007D0000E4880682968092903D10121C90502E072
:1007E00005E00121890588430849886004E0206B01
:1007F000202108432063012600BF00212C20015541
:1008000000BF30466BE700000110000000270140E8
:1008100040420F00C00000200168096C024A1160CC
:100820000121024A11707047D4000020D10000203D
:10083000704710B504462068006804210840042869
:1008400004D120684068084004280AD02068006865
:1008500008210840082840D120684068084008283E
:100860003BD1206B10210840002803D1206B4901A7
:10087000084320632068C0680321890208400028DB
:1008800025D1607E002822D1206800680821084018
:1008900008281CD1206880680421084080080028AE
:1008A0000DD1206840680C21884321684860206B86
:1008B000FF210131884301210843206307E0206BB9
:1008C000202108432063606B0121084360632046B8
:1008D000FFF7A2FF0C2021680860206800688021D3
:1008E000084080280ED1206840680840802809D13F
:1008F000206B490208432063204600F0E9F880207D
:10090000216808602068006810210840102814D170
:1009100020684068084010280FD1606A012809D17A
:10092000606B022108436063102021680860204644
:10093000FFF77EFF10202168086010BD70B50446E7
:1009400000260025002C01D1012070BD206B00285D
:1009500006D1606300212C200155204600F0BAF832
:10096000206B1021084000287ED1002EFCD1206889
:1009700080680421084080080028F5D1206B890197
:10098000884302210843206320688068C007C00FA5
:1009900001214840484000280FD12068C068182134
:1009A0008843A16808432168C86020680069000185
:1009B000000961680843216808612068C0684249ED
:1009C00008402168C860207E8003617E4903084397
:1009D000616A012902D00121090300E000210843D6
:1009E000E16808432169022901D1042100E00021C6
:1009F00008430543A07E01280ED1607E002803D164
:100A000001200004054307E0206B202108432063F8
:100A1000606B012108436063FF21C231E0698842B5
:100A200003D0216AE069084305432068C068284371
:100A30002168C860A06A002814D0A06A012811D0DB
:100A4000A06A02280ED0A06A03280BD0A06A04284E
:100A500008D0A06A052805D0A06A062802D0A06A9E
:100A600007280FD1206800E027E04069C008C000D7
:100A70002168486120684069218D4907490F084372
:100A8000216848612068C06810490840A84208D120
:100A900000206063206B022188430121084320630A
:100AA00010E0206B02218843102108432063606B13
:100AB000012108436063012604E0206B10210843F4
:100AC00020630126304640E71BC2FEFFE7FF3FC31D
:100AD0007047000010B586B0044600BF1F48406B49
:100AE000012108431D4948630846406BC007C00FF9
:100AF000009000BF00BF00BF1848403000680121CF
:100B0000090508431549403108600846006801217D
:100B100009050840009000BF00BF1048006B084363
:100B20000E4908630846006B0121090588430B49FB
:100B3000086302200190032002900020039001A985
:100B4000074800F0F7FB002211460C2000F084FD5E
:100B50000C2000F075FD06B010BD00000010024032
:100B60000004005070B50446002520688068042108
:100B700008408008002840D100BF2C20005D0128DB
:100B800001D1022070BD01212C20015500BF20465B
:100B9000FFF75CFB0546002D30D1206B184908405B
:100BA000FF210131084320630020606300BF002162
:100BB0002C20015500BF1C202168086060690828AE
:100BC0000CD120684068042188432168486020686F
:100BD0004068182108432168486006E020684068A2
:100BE0001C2108432168486000BF00BF206880685E
:100BF000042108432168886000E002252846C1E7F7
:100C0000FEF1FFFF70B5044600F074FC0646254671
:100C1000681C002802D0054800682D1800BF00F0AD
:100C200069FC801BA842FAD370BD00007801002047
:100C3000F8B504460E460127002500BF8948007814
:100C4000012801D10220F8BD01208649087000BFAB
:100C500000BF85494968072252031140480B834968
:100C600009688200824B9A581278914244D17F4998
:100C7000496882009A581268D201D20D91423BD144
:100C80007A49096982009A5812881204120E914218
:100C900032D17649896882009A58127991422BD1D3
:100CA0007249C96882009A5852685201520D9142A5
:100CB00022D16E49496982009A589268D203D20BB8
:100CC000914219D16949896982009A58D268D20340
:100CD000D20B914210D16549C96982009A58128A93
:100CE00092B2914208D16149096A82009A58126908
:100CF0009200920C914244D000BF81005C4A51584E
:100D000009785A4A11608100594A51580968C90145
:100D1000C90D564A51608100554A51580988090445
:100D2000090E524A11618100514A515809794F4ABE
:100D3000916081004E4A515849684901490D4B4A1A
:100D4000D16081004A4A51588968C903C90B474A92
:100D500051618100464A5158C968C903C90B434AC9
:100D600091618100424A5158098A89B23F4AD16152
:100D700081003F4A515809698900890C3B4A116238
:100D800000BF00BF2068012813D17D20C000FFF7FD
:100D900013FC00285ED1FFF78DFB7D20C000FFF71C
:100DA0000BFC0746334840690421884331494861B8
:100DB00050E02068022823D17D20C000FFF7FCFB13
:100DC000002847D1401E3060656812E02846FFF7D2
:100DD000ADFB7D20C000FFF7EFFB074625484069CB
:100DE0000221884323494861002F01D0356006E085
:100DF0008035A068C00161684018A842E6D829E0A3
:100E00002068032826D17D20C000FFF7D5FB0028ED
:100E100020D1401E3060E56815E02846FFF7C0FB92
:100E20007D20C000FFF7C8FB07461248406901213A
:100E3000C90288430F494861002F01D0356008E09E
:100E4000012000032D1820690003E1684018A84222
:100E5000E3D800BF00BF00200249087000BF384639
:100E6000F1E6000094020020001002400021024040
:100E7000E032000800200240012007494969C2070A
:100E80001143054A516111464969C90FC907002933
:100E900000D00020704700000020024070B50446DA
:100EA000012500BF7E480078012801D1022070BDD5
:100EB00001207B49087000BF00BF7A4949680722BA
:100EC00052031140480B784909688200774B9A58C1
:100ED0001278914244D17449496882009A58126844
:100EE000D201D20D91423BD16F49096982009A58D3
:100EF00012881204120E914232D16B498968820025
:100F00009A58127991422BD16749C96882009A5840
:100F100052685201520D914222D1634949698200BF
:100F20009A589268D203D20B914219D15E498969CD
:100F300082009A58D268D203D20B914210D15A49FA
:100F4000C96982009A58128A92B2914208D15649D0
:100F5000096A82009A5812699200920C914244D018
:100F600000BF8100514A515809784F4A11608100F1
:100F70004E4A51580968C901C90D4B4A5160810058
:100F80004A4A515809880904090E474A11618100EB
:100F9000464A51580979444A91608100434A515860
:100FA00049684901490D404AD16081003F4A515882
:100FB0008968C903C90B3C4A516181003B4A5158B9
:100FC000C968C903C90B384A91618100374A515831
:100FD000098A89B2344AD1618100344A5158096979
:100FE0008900890C304A116200BF00BF2078C00719
:100FF000C00F002804D0A088C04380B22C49C8622A
:10100000022120680840002805D0E1680902A06894
:101010000843274948620C21206808400C2805D164
:101020002269A1696069FFF771FA1AE0042120685A
:101030000840002808D0FFF75DFA064631463046E2
:101040002269FFF763FA0CE00821206808400028B5
:1010500007D0FFF743FA06463246A1696069FFF7F9
:1010600055FA134840690121490408431049486171
:10107000084640690121090608430D494861FF20DF
:101080000949803908607D20C000FFF795FA0546C0
:1010900000BF00200249087000BF284607E7000093
:1010A000940200200010024000210240E0320008BB
:1010B00000200240044840690121C9060843024952
:1010C00048610120704700000020024001200749CC
:1010D000496982071143054A5161114649698207EE
:1010E0001140002900D0002070470000002002407D
:1010F0000120094949698207114000290BD007499D
:10110000054AD1600649D1601146496982071140FC
:10111000002900D100207047002002403B2A190816
:101120007F6E5D4CF8B507460C461646012500BF9C
:1011300065480078012801D10220F8BD01206249EC
:10114000087000BF00BF614949680722520311407F
:10115000480B5F49096882005E4B9A5812789142A9
:1011600044D15B49496882009A581268D201D20D75
:1011700091423BD15649096982009A58128812045B
:10118000120E914232D15249896882009A581279DE
:1011900091422BD14E49C96882009A585268520137
:1011A000520D914222D14A49496982009A58926867
:1011B000D203D20B914219D14549896982009A58CC
:1011C000D268D203D20B914210D14149C969820041
:1011D0009A58128A92B2914208D13D49096A820016
:1011E0009A5812699200920C914244D000BF81003B
:1011F000384A51580978364A11608100354A5158A9
:101200000968C901C90D324A51608100314A5158FB
:1012100009880904090E2E4A116181002D4A51588E
:1012200009792B4A916081002A4A5158496849013D
:10123000490D274AD1608100264A51588968C9035F
:10124000C90B234A51618100224A5158C968C90318
:10125000C90B1F4A916181001E4A5158098A89B2FF
:101260001B4AD16181001B4A515809698900890CC8
:10127000174A116200BF00BF6006400E002801D06F
:1012800001205AE77D20C000FFF796F90546002DA2
:1012900012D131462046FFF759F97D20C000FFF7F3
:1012A0008BF905460C484069400840000A494861EE
:1012B000002D01D0284640E700BF002002490870F9
:1012C00000BF284639E700009402002000100240C9
:1012D00000210240E03200080020024000200949BD
:1012E0004969C90FC90700290BD00749054A916010
:1012F0000649916011464969C90FC907002900D004
:10130000012070470020024023016745AB89EFCDE3
:101310007047000010B504460548C068204000280A
:1013200004D00348C4602046FFF7F2FF10BD000060
:101330000018024070B503460022CBE0012696401B
:101340000C683440002C71D04D68022D02D04D68DD
:10135000122D15D1D508AE001D462035A8595507C8
:10136000EE0E0F25B5400646AE4330465607F60E44
:101370000D69B5402843D508AD001E462036705192
:10138000186856000325B5400646AE4330460D7931
:10139000AD07AD0F5600B540284318604D68012DCC
:1013A00008D04D68022D05D04D68112D02D04D6832
:1013B000122D18D1986856000325B5400646AE4355
:1013C00030465600CD68B5402843986058680125DE
:1013D00095400646AE43304610264D6835402D09EF
:1013E000954028435860D86856000325B540064606
:1013F000AE43304656008D68B5402843D86001267C
:1014000036074D683540B54263D1354D9608B60074
:10141000A8599507EE0E0F25B5400646AE43304657
:1014200005252D07AB4202D1002506E051E02D4DE8
:10143000AB4201D1012500E002259607F60EB5402A
:101440002843274D9608B600A851254D2035286819
:101450000546A5432846012636044D683540B54269
:1014600002D10546254328461D4D20352860686871
:101470000546A5432846012676044D683540B54209
:1014800002D1054625432846154D20356860144D88
:10149000603D28680546A5432846012636054D6867
:1014A0003540B54202D10546254328460C4D603DE6
:1014B000286068680546A5432846012676054D68DC
:1014C0003540B54202D1054625432846044D603DCE
:1014D0006860521C0D68D540002D00D02EE770BD0D
:1014E0006018024000040050002A01D0816100E031
:1014F0008162704701480068704700007001002059
:101500000148006870470000000EFF1F0148406856
:1015100070470000000EFF1F014880687047000000
:10152000000EFF1F70B50446002C01D1012070BDD4
:101530000F48216808600F482168086021686068CA
:1015400048602168A0688860FFF7D4FF054606E080
:10155000FFF7D0FF401B302801D90320E7E72068C0
:10156000C0680028F4D10448216808600020DEE744
:10157000CCCC000055550000AAAA00000146024844
:101580000A68106000207047AAAA0000034800689B
:10159000034909684018014908607047700100203C
:1015A0007801002010B50024032000F009F800287D
:1015B00001D0012401E000F033F8204610BD000006
:1015C000F8B5044600251348006800281ED01148CD
:1015D00001687D20C000FEF78BFD074639460E48A6
:1015E0000068FEF785FD064600F0CAFA00280BD118
:1015F000042C07D200222146401E00F02DF8074897
:10160000046004E0012502E0012500E001252846F0
:10161000F8BD000078010020C00000207401002007
:101620000648006A012108430449086200BF0348D4
:10163000006A022108400028F9D07047401002409B
:1016400000BFC206D20E01219140024A116000BFC4
:101650007047000000E100E070B504460D461646F4
:101660002946204600F0F4FC70BD000070B5044629
:101670000D46002C01D1012070BD5F480068C007F5
:10168000C00FA84218D25C480068400840002843B8
:1016900059490860FFF72EFF064607E0FFF72AFFCB
:1016A000801B5649884201D90320E5E7524800686B
:1016B000C007C00FA842F1D10221206808400228CB
:1016C00015D1042120680840042807D14C488068BF
:1016D00007210903884340184949886048488068C1
:1016E0000F2109028843A168084345498860207892
:1016F000C007C00F00283CD06068012808D14048CE
:101700000068012149040840002816D10120B3E7F0
:101710006068002808D13A48006801218902084021
:1017200000280AD10120A7E735484030006A02218D
:101730000840002801D101209EE731488068C00898
:10174000C000616808432E498860FFF7D3FE064653
:1017500007E0FFF7CFFE801B2849884201D903200C
:101760008AE727488068382108406168C9008842B4
:10177000EFD121480068C007C00FA84218D91E4801
:1017800000684008400028431B490860FFF7B2FE8C
:10179000064607E0FFF7AEFE801B1849884201D9D4
:1017A000032069E714480068C007C00FA842F1D1C0
:1017B000042120680840042808D1114880680721C6
:1017C00009038843E16808430D49886000F020F868
:1017D0000B4989680F2212021140090A8900094A3F
:1017E000515CC906C90EC84007490860074800682F
:1017F000FFF7E6FE40E700000020024088130000EB
:101800000010024024320008C000002074010020B3
:1018100070B586B014221B4901A8FEF793FC1A4844
:10182000806838210840002817D11748006809024D
:101830000840C10A01268E40134840680721490329
:101840000840450B042D00D90025A90001AA5058D5
:101850003146FEF74DFC044611E00B488068382104
:101860000840082801D1094C09E007488068382160
:101870000840182802D10124E40300E00024204697
:1018800006B070BDCC3200080010024000366E0178
:1018900070B50446002C01D1012070BD2078C0072E
:1018A000C00F002877D0B248866838210E40082E35
:1018B00009D10068B103084000286CD06068002896
:1018C00069D10120E9E7606800280DD0A0680028F0
:1018D00008D0A74800690C218843A1680843A4499F
:1018E000086101E00120D8E700BF01210904606818
:1018F000884205D19E48006808439D49086021E060
:1019000005210904606888420ED1994800680121C8
:1019100089040843964908600846006801210904C3
:101920000843934908600DE09148006801210904CB
:1019300088438F490860084600680121890488436C
:101940008B49086000BF6068002812D0FFF7D2FD05
:10195000054606E0FFF7CEFD401BC82801D903204D
:101960009BE7834800680121490408400028F1D022
:1019700011E0FFF7BFFD054606E0FFF7BBFD401B8A
:10198000C82801D9032088E7794800680121490463
:1019900008400028F1D102212068084002287BD1AC
:1019A00073488068382108400646002E48D17048A8
:1019B0000068012189020840002804D0E06800285E
:1019C00001D1012069E76A484068000C00046169A0
:1019D000084367494860FFF78DFD054606E0FFF7BD
:1019E00089FD401B022801D9032056E760480068A2
:1019F0000121890208400028F1D0002E18D15C484E
:101A000000680721C90288432169084358490860D2
:101A1000FFF7FEFE564989680F2212021140090A9B
:101A20008900544A515CC906C90EC8405249086031
:101A300052480068FFF7C4FD002847D001202CE77A
:101A4000E068002829D04A4800680721C902884375
:101A5000216908434649086008460068891508431B
:101A600043490860FFF746FD054606E0FFF742FDE3
:101A7000401B022801D903200FE73D4800680121DF
:101A8000890208400028F1D039484068000C000461
:101A9000616908433649486018E035480068FF210D
:101AA0000131884332490860FFF724FD054606E00E
:101AB000FFF720FD401B022801D90320EDE62C484A
:101AC00000680121890208400028F1D1082120681E
:101AD0000840082849D1264880683821084018283D
:101AE0000BD123484030006A0221084000283CD036
:101AF000A069002839D10120CFE6A06900281AD0BA
:101B00001B484030006A01210843194940310862EE
:101B1000FFF7F0FC054606E0FFF7ECFC401B02284F
:101B200001D90320B9E612484030006A022108407A
:101B30000028F1D019E00E484030006A400840000B
:101B40000B4940310862FFF7D5FC054606E0FFF778
:101B5000D1FC401B022801D903209EE604484030F6
:101B6000006A022108400028F1D1002095E600001B
:101B70000010024024320008C00000207401002040
:101B800070B504462546681E0949884201D90120DE
:101B90000CE0681E074948610321081F00F058FA4D
:101BA00000200449886107200861002070BD000002
:101BB000FFFFFF0000E000E010B504460749206881
:101BC000884203D106A000F03BFB06E008492068EC
:101BD000884202D107A000F033FB10BD0044014051
:101BE00054494D31362D427265616B43616C6C0016
:101BF000002C014054494D312D427265616B4361A7
:101C00006C6C000010B5044607492068884203D177
:101C100006A000F015FB06E009492068884202D1C1
:101C200008A000F00DFB10BD0044014054494D31A7
:101C3000362D436F6D6D757443616C6C0000000050
:101C4000002C014054494D312D436F6D6D75744327
:101C5000616C6C0010B50446002C01D1012010BD50
:101C6000A07F002803D16077204600F00BF8022007
:101C7000A077211D206800F053FA0120A0770020F2
:101C8000EDE7000038B5044600BF174800680121A1
:101C900049040843144908600846006801214904C2
:101CA0000840009000BF00BF002211461520FFF73A
:101CB000D3FC1520FFF7C4FC00BF0B4800680121CE
:101CC000C90208430849086008460068C91408406A
:101CD000009000BF00BF002211460D20FFF7BCFCA2
:101CE0000D20FFF7ADFC38BD4010024001460868EA
:101CF000C068012318430B68D860086880684207F1
:101D0000520F062A05D008680068012318430B68A3
:101D1000186000207047704710B5044620680069BD
:101D200002210840400800281CD02068C0680840F4
:101D30004008002816D0481F21680861012020773C
:101D4000206880698007800F002803D02046FFF7B5
:101D5000E2FF05E0204600F0C3F8204600F0C1F89D
:101D600000202077206800690421084080080028AE
:101D70001DD02068C06808408008002817D0C843DC
:101D80002168086102202077206880690321090208
:101D90000840002803D02046FFF7BDFF05E020469D
:101DA00000F09EF8204600F09CF800202077206884
:101DB000006908210840C00800281CD02068C068BD
:101DC0000840C008002816D0C843216808610420D4
:101DD00020772068C0698007800F002803D0204644
:101DE000FFF799FF05E0204600F07AF8204600F062
:101DF00078F8002020772068006910210840000949
:101E000000281DD02068C06808400009002817D0AD
:101E1000C84321680861082020772068C069032131
:101E200009020840002803D02046FFF774FF05E0B0
:101E3000204600F055F8204600F053F800202077A7
:101E400020680069C007C00F0121484048400028B1
:101E50000CD02068C068084048404840002805D0A1
:101E6000C81E21680861204600F03CF8206800691F
:101E700080210840C00900280BD02068C0680840B5
:101E8000C009002805D0C843216808612046FFF733
:101E900093FE2068006940210840800900280BD08B
:101EA0002068C06808408009002805D0C843216820
:101EB0000861204600F048F82068006920210840A9
:101EC000400900280BD02068C0680840400900285D
:101ED00005D0C843216808612046FFF793FE10BD76
:101EE0007047704710B504461149206888421CD1DC
:101EF00010480078401C0F49087001200E490870F6
:101F00000E4908700B4800780D280FD10C48007856
:101F1000401C0B4908700020064908700948FFF76B
:101F20002DFB002802D0FEF7C3FA00BF10BD000051
:101F3000002C0140CE000020D0000020CD00002069
:101F4000E5000020CC0100207047FFB583B00446B7
:101F50000D461746002001903D20005D202871D1DC
:101F6000002D01D0002F02D1012007B0F0BD0121CA
:101F70000903A068884208D12069002805D1E80734
:101F8000C00F002801D00120EFE700BF3C20005D1A
:101F9000012801D10220E8E701213C20015500BFC2
:101FA0000020206421213D200155FFF7A3FA019074
:101FB0002786678601210903A068884205D1206928
:101FC000002802D10026029502E02E460020029051
:101FD0001EE006980090002280212046019B00F020
:101FE000F7F8002801D00320BFE7002E09D102989E
:101FF0000088C005C00D216848600298801C0290CE
:1020000003E0307821684860761C608E401E608650
:10201000608E0028DDD106980090002240212046E5
:10202000019B00F0D5F8002801D003209DE7202176
:102030003D20015500BF00213C20015500BF00207C
:1020400093E7FFE7022090E700BFFEE7704700003C
:1020500010B5002819DA1A4A03071B0F083B9B0822
:102060009B00D2588307DC0EFF23A3409A438B07C3
:102070001B0E8407E40EA3401A43114B0407240FE0
:10208000083CA408A4001A5118E00E4A03231B02BE
:10209000D21883089B00D2588307DC0EFF23A3408D
:1020A0009A438B071B0E8407E40EA3401A43054B8B
:1020B000032424021B198408A4001A5110BD000037
:1020C0001CED00E000E100E07047704710B5FFF73D
:1020D0005DFA10BD07484068000C00040121490367
:1020E000401805494968084302494860C803034944
:1020F0008860704700100240000FFF1F00ED00E0F5
:1021000010B50248FFF708FE10BD00008C0100204A
:1021100010B50248FFF700FE10BD0000AC01002022
:1021200010B50268154B984205D170241346A3439D
:102130001A464B681A43114B984202D0104B9842F2
:1021400006D1032424021346A3431A46CB681A433C
:1021500080241346A3434C6923431A4602608B68CC
:10216000C3620B688362054B984202D0044B9842CD
:1021700001D10B6903630123436110BD002C0140B1
:102180000044014010B50F480F4908600F490E4840
:10219000C16007200C49486000210B480161816043
:1021A000416180218161FFF755FD002801D0FEF7D4
:1021B0007FF90548FFF79AFD002801D0FEF778F96E
:1021C00010BD0000002C0140AC010020571B000096
:1021D000FFB581B004460D4617460A9E24E0701CE8
:1021E000002821D0002E05D0FFF784F90499401A69
:1021F000B04219D92068C068FF21A1318843216805
:10220000C86020684069400840002168486120217A
:102210003D2001553E20015500BF00213C200155C5
:1022200000BF032005B0F0BD206800682840A84228
:1022300001D1012000E00020B842D0D00020F1E719
:1022400010B5024A024900F022F810BD412B0008E7
:102250007C01002030B47446641E2578641CAB42B7
:1022600004D3635D5B00E31830BC18471D46F8E7F4
:1022700002E008C8121F08C1002AFAD1704770474F
:10228000002001E001C1121F002AFBD17047F8B500
:1022900016460F460446002503E03946B047641C45
:1022A0006D1C20780028F8D12846F8BD10B50448E8
:1022B000FEF758FC002801D0FEF7FAF810BD000028
:1022C000D801002070B5044606486043050B642120
:1022D0002846FDF70DFF0449086008460068801D88
:1022E000086070BD8E490000DC00002070B500F071
:1022F00044FE05461448854201D1002070BD0024EB
:1023000014E00A20FEF77EFC01F0FAFF0A20FEF737
:1023100079FC00F0E1FC002804D000F0D9FD002891
:1023200000D001E000BFFEE7601CC4B2052CE8DB72
:102330003320000200F00CF80646324680210348A4
:1023400000F00DF80120D9E7CC33AA55EC000020AD
:10235000014680200003103000024018704770B51D
:1023600005460E461446FEF7B9FF31462046FEF7F5
:102370001DF831462046FEF709F822463146284628
:10238000FEF729F8FEF778FD224631462846FEF78B
:102390003AF870BD10B51A48007801280AD11948DA
:1023A000047817480178204600F0AAF80220144962
:1023B000087024E012480078022812D111484478AD
:1023C0008078132804D0012204210F48FFF78CF8ED
:1023D0000B480178204600F093F803200849087064
:1023E0000DE007480078032809D10648847804489E
:1023F0000178204600F084F801200149087010BDE2
:10240000E8000020E20000200014005000200549F0
:1024100008700549087001200449087004490870D3
:1024200070470000E5000020E6000020E7000020E3
:10243000E800002070B53048057830480078012861
:1024400017D1642D01D101240AE0FF2D01D1102400
:1024500006E0FE2D03D102202849087070BD00243B
:1024600026480178204600F04BF8022023490870E6
:102470003FE02248007802281ED1642D01D10024BB
:1024800011E0FF2D01D111240DE0FE2D01D1122408
:1024900009E064212846FDF741FECCB20A2120461E
:1024A000FDF73CFEC4B215480178204600F028F83C
:1024B0000320124908701CE010480078032818D146
:1024C000642D01D100240CE0FF2D01D1102408E07F
:1024D000FE2D01D1152404E00A212846FDF71EFE39
:1024E000CCB206480178204600F00AF801200349E2
:1024F000087000BFB2E70000E6000020E7000020FF
:1025000070B505460C4600220121F948FEF7ECFFA4
:1025100000220221F648FEF7E7FF00220121F548DC
:10252000FEF7E2FF022C04D000220421F048FEF75F
:10253000DBFF0520000740690009000105210907AC
:1025400048612B00FFF786FE160C28445F7A95B091
:10255000CBF6F4F3F2F1F0EFEEEDECEBEAE9E8E7BD
:102560000520000740690F2108430521090748613C
:102570000122402105200007FEF7B6FF012280213D
:1025800005200007FEF7B0FF0022012149020520C7
:102590000007FEF7A9FF3AE205200007406906217F
:1025A0000843052109074861002240210520000752
:1025B000FEF79AFF0022802105200007FEF794FF16
:1025C00000220121490205200007FEF78DFF1EE2CF
:1025D0000520000740690B210843052109074861D0
:1025E0000122402105200007FEF77EFF0022802106
:1025F00005200007FEF778FF0122510205200007A1
:10260000FEF772FF03E20520000740690F2108432F
:102610000521090748610022402105200007FEF737
:1026200063FF0022802105200007FEF75DFF0122E5
:10263000510205200007FEF757FFE8E105200007DB
:10264000406906210843052109074861002240210D
:1026500005200007FEF748FF012280210520000722
:10266000FEF742FF0122510205200007FEF73CFF62
:10267000CDE10520000740690D2108430521090728
:1026800048610022402105200007FEF72DFF0122AE
:10269000802105200007FEF727FF012251020520B7
:1026A0000007FEF721FFB2E10520000740690D2178
:1026B0000843052109074861012240210520000740
:1026C000FEF712FF0122802105200007FEF70CFF14
:1026D0000122510205200007FEF706FF97E10520C1
:1026E00000074069072108430521090748610022C6
:1026F000402105200007FEF7F7FE0022802105207B
:102700000007FEF7F1FE0022012149020520000723
:10271000FEF7EAFE7BE179E15CE13FE122E106E1DF
:10272000EAE0CAE0AEE096E07AE05DE053E037E050
:102730001BE0FFE70520000740690F210843052142
:10274000090748610122402105200007FEF7CCFE61
:102750000122802105200007FEF7C6FE012251025A
:1027600005200007FEF7C0FE51E105200007406983
:102770000F21084305210907486100224021052057
:102780000007FEF7B1FE0122802105200007FEF7B9
:10279000ABFE0122510205200007FEF7A5FE36E13F
:1027A0000520000740690721084305210907486102
:1027B0000122402105200007FEF796FE012280211C
:1027C00005200007FEF790FE0122510205200007B8
:1027D000FEF78AFE1BE10520000740690C21084333
:1027E00005210907486112E1052000074069092118
:1027F00008430521090748610122402105200007FF
:10280000FEF772FE0122802105200007FEF76CFE14
:1028100000220121490205200007FEF765FEF6E0CF
:102820000520000740690E2108430521090748617A
:102830000022402105200007FEF756FE01228021DC
:1028400005200007FEF750FE012251020520000777
:10285000FEF74AFEDBE079200521090748610122E5
:10286000402105200007FEF73FFE012280210520C0
:102870000007FEF739FE0122510205200007FEF78E
:1028800033FEC4E00520000740690121084305210B
:10289000090748610122402105200007FEF724FEB8
:1028A0000122802105200007FEF71EFE01225102B1
:1028B00005200007FEF718FEA9E005200007406983
:1028C0000D21084305210907486100224021052008
:1028D0000007FEF709FE0122802105200007FEF710
:1028E00003FE0122510205200007FEF7FDFD8EE0E8
:1028F00000140050000400500520000740690C211E
:1029000008430521090748610122402105200007ED
:10291000FEF7EAFD0022802105200007FEF7E4FD16
:102920000122510205200007FEF7DEFD6FE00520C1
:102930000007406906210843052109074861012273
:10294000402105200007FEF7CFFD01228021052050
:102950000007FEF7C9FD0122510205200007FEF71E
:10296000C3FD54E00520000740690121084305210B
:10297000090748610022402105200007FEF7B4FD49
:102980000022802105200007FEF7AEFD0022012174
:10299000490205200007FEF7A7FD38E005200007E3
:1029A00040690821084305210907486100224021A8
:1029B00005200007FEF798FD002280210520000772
:1029C000FEF792FD00220121490205200007FEF7D3
:1029D0008BFD1CE005200007406904210843052108
:1029E000090748610022402105200007FEF77CFD11
:1029F0000022802105200007FEF776FD002201213C
:102A0000490205200007FEF76FFD00E000BF00BF90
:102A1000012C05D1012211460848FEF765FD0CE0A6
:102A2000022C05D1012202210448FEF75DFD04E0DD
:102A3000012211460248FEF757FD70BD00140050F8
:102A40000004005010B52148007812280CDA204804
:102A5000006800F069FBFFF79DFC01201D4908702C
:102A600000201D4908702FE018480078242809DA52
:102A70001748006800F058FBFFF7DCFC01201749FD
:102A8000087021E011480078BA281ADA01201249AA
:102A90000870002201211248FEF726FD00220221C3
:102AA0000F48FEF721FD002201210E48FEF71CFD14
:102AB000002204210A48FEF717FD00200A49087089
:102AC00002E000200149087010BD0000E500002070
:102AD000DC000020E7000020E0000020E8000020EB
:102AE00000140050000400506C01002010B5024694
:102AF000002016E08300D3580B3384001351830069
:102B0000D35855246340840013518300D3583E3B6F
:102B1000840013518300D3589B0084001351431C3D
:102B2000D8B28842E6DB10BD0246002004E0135C08
:102B3000DB431354431CD8B28842F8DB70470000D3
:102B400013B50C467D23DB00012269460248FFF7DE
:102B5000FCF900981CBD00005002002010B504468E
:102B6000002C00D110BDFEF7CBFC2060FEF7CEFCA0
:102B70006060FEF7D1FCA06000BFF3E770B50546CA
:102B80000C462846FFF7E4FB0646802231462046E5
:102B9000FDF7D8FA70BD000000B587B000BF4A4805
:102BA000406B01210843484948630846406BC00711
:102BB000C00F019000BF00BF00BF0846406B02215C
:102BC0000843414948630846406B02210840019090
:102BD00000BF00BF00BF3C48406B202108433A497A
:102BE00048630846406B20210840019000BF00BFA9
:102BF00036480290012003900020049002200590A6
:102C000002A905200007FEF795FB00222F490520A9
:102C10000007FEF769FC0120029003900020049059
:102C20000220059002A92A48FEF784FB0022012118
:102C30002748FEF759FC0220029001200390002053
:102C400004900220059002A92148FEF773FB0022A0
:102C500002211F48FEF748FC01200290039000204B
:102C600004900220059002A91A48FEF763FB002297
:102C700001211848FEF738FC04200290012003903F
:102C8000002004900220059002A91148FEF752FB93
:102C9000002204210E48FEF727FC03204003029087
:102CA00001200390002004900220059002A9052035
:102CB0000007FEF73FFB0022032149030520000720
:102CC000FEF712FC07B000BD00100240CF0200006A
:102CD0000014005000040050FEB500266846FFF7BF
:102CE0003DFF32252D020C4A2946022000F00EF944
:102CF00000240BE0A00069460858A100064A51587C
:102D0000884201D0012603E0601CC4B2032CF1DB31
:102D100000BF3046FEBD00001C02002010B531246B
:102D20002402034A31210902012000F0EFF810BD0E
:102D30001002002010B5312424028034044A2146B8
:102D4000022000F0E3F803210148FFF7CFFE10BD99
:102D50001C02002010B5084808490860032048609C
:102D6000FF212D3105488160FEF7DCFB002801D0F2
:102D7000FDF79EFB10BD000000300040CC0100209C
:102D800000200149087070476C01002010B52348ED
:102D90000078002806D0012813D002281FD003286D
:102DA00038D12AE000220121890305200007FEF71F
:102DB0009BFB00220121490305200007FEF794FB3D
:102DC00029E00122910305200007FEF78DFB002278
:102DD0000121490305200007FEF786FB1BE00022C6
:102DE0000121890305200007FEF77EFB0122510324
:102DF00005200007FEF778FB0DE001229103052076
:102E00000007FEF771FB0122510305200007FEF7C2
:102E10006BFB00E000BF00BF10BD00006C01002094
:102E2000FEF7C0FBFDF702FBFDF74EFA00F0ECF8F1
:102E30007D20C000FDF7E6FE00F004F97D200001D2
:102E4000FDF7E0FE00F0FEF8FFF79CF900F0A0F8B7
:102E5000FFF7A2FEFFF7DAFAFFF792FFFFF77AFF1C
:102E6000002017490870174908701749087017485B
:102E7000FEF784FB002801D0FDF71AFBFFF736FAB6
:102E800000BFFFF729FF00280AD01048FEF776FBA5
:102E9000002801D0FDF70CFB3220FDF7B3FEF0E770
:102EA0000CE0FFF773FF00F0CDF80648007800282B
:102EB00004D0002003490870FFF7C4FDF1E70000CB
:102EC000E5000020CD000020CC000020CC01002037
:102ED00070B50025FFF722FFFFF72CFF00240BE061
:102EE000A00008490858A100074A5158884201D05B
:102EF000012503E0601CC4B2032CF1DB00BF2846AF
:102F000070BD0000100200201C020020F7B5A4B024
:102F10000646154601A92598FFF730FE012E0ED171
:102F20000024002709E0E00001A90A5C3846791C6A
:102F3000CFB221A90A54601CC4B20C2CF3D3022EC8
:102F400013D1002400270AE0E00001A90858020E6E
:102F50003846791CCFB221A90A54601CC4B20C2C8B
:102F6000F2D30C2121A8FFF7DFFD219828602298D9
:102F700068602398A86027B0F0BD70B56124E401B3
:102F80002046FFF7E5F904462646B569284670BD98
:102F900000B587B00E48006A012189030840002867
:102FA00014D1FEF79BF9FEF7A3F8082000905F20EC
:102FB000000205906F20400206906846FDF76EFF04
:102FC000FDF75AFFFEF782F8FEF774F807B000BD70
:102FD0000020024030B5A1B0552401A90020FFF720
:102FE000CDFD6120C001FFF7B3F905462402AA34E4
:102FF000240233342402CC3407942A46802101A8C9
:10300000FFF7ADF921B030BD01200849087000205C
:1030100007490870074908700120074908600749F7
:10302000087000200649087070470000D00000209A
:10303000D1000020D8000020DC000020E0000020AB
:10304000E1000020F8B5304E002700252F48007819
:10305000002806D12E4908702E4908702E490870A4
:10306000F8BD2D480078012807D100202A490870B2
:1030700027490870FFF71AF944E02548007801282D
:1030800040D100202249087024480068214909786D
:103090008900234A50501F480078401C1D49087081
:1030A000084600780A2822DB002413E0A0001C490F
:1030B0000858B04201D2A0000E58A0001849085884
:1030C000B84201D9A0000F58A00015490858451969
:1030D000601CC4B20A2CE9DBA81BC51BE8080090E1
:1030E0000098FFF7EFF80020084908700AE00D4843
:1030F0000078002806D109480068FFF7E3F80120AE
:103100000849087000BFABE7FFFF0000E0000020A7
:10311000D1000020D8000020D0000020D4000020E2
:1031200028020020E1000020F8B505462C461327B0
:10313000962C03D3FE203749087027E03648807864
:10314000A04206D2962C04D23348C0783149087088
:103150001CE0381F40003049085CA04206D9F81E28
:103160004000401840782B4908700FE000260BE023
:1031700070002949085CA04204D1700040184078D2
:1031800024490870701CC6B2BE42F1DBA02C07D9DE
:10319000012022490870062048701320887024E01E
:1031A000781E40001C49085CA04207D314201B492C
:1031B0000870092048700020887016E064212046BD
:1031C000FCF796FF1549087064212046FCF790FF34
:1031D0000C460A212046FCF78BFF104948700A2153
:1031E0002046FCF785FF0D4881707D2D03D9022014
:1031F0000B4908700CE07C2D01D07D2D03D10320FC
:103200000749087004E07C2D02D2012004490870AF
:10321000F8BD0000E6000020A4320008E200002013
:103220006C01002000000000000000000000000011
:10323000000000000000000000000000000000008E
:103240000000000001000000020000000300000078
:103250000400000006000000070000000800000055
:103260000900000000000000000000000000000055
:103270000000000001000000020000000300000048
:103280000400000000093D0000127A000024F40050
:103290004086510100366E0100093D0000093D00E5
:1032A00000093D0080647F647E5F7D507C4B7B46DF
:1032B0007A3C793778327728761E75197414730A38
:1032C000720A710A70FF6FFF59FF000000093D008C
:1032D00000127A000024F4004086510100366E018D
:1032E0001C0FFF1F300FFF1F440FFF1F580FFF1F42
:1032F0006C0FFF1F1C0FFF1F1C0FFF1F1C0FFF1F5A
:10330000004400080000002080010000B001000817
:10331000444400088001002030050000802200089D
:10332000000000000000000000000000000000009D
:10333000000000000000000000000000000000008D
:10334000000000000000000000000000000000007D
:10335000000000000000000000000000000000006D
:1043000030B5A7B0FEF766FE24A8FEF727FC032110
:1043100024A8FEF7EBFB249821902598229026985C
:10432000239001A90020FEF729FC002411E0E00001
:1043300001A90858000A0002E10001AA5050E0005B
:1043400001A9085821A9095D4018E1005050601CDE
:10435000C4B20C2CEBD331200002FDF7F9FF054667
:104360002A46802101A8FDF7FAFF2448FDF706F947
:10437000002801D0FCF79CF824A8FEF7EFFB249856
:10438000219025982290269823900C2121A8FEF7B1
:10439000CBFB002412E0E00001A908580002000A4B
:1043A000E10001AA5050E00001A9085821A9095DC7
:1043B00009064018E1005050601CC4B20C2CEAD32E
:1043C0006320C001FDF7C4FF05462A46802101A8ED
:1043D000FDF7C5FF0948FDF7D1F8002801D0FCF72B
:1043E00067F819204002FDF7B3FF05462A468021F1
:1043F00001A8FDF7B4FF27B030BD0000CC010020BC
:1044000001C10329127A1A0101180A896745239A02
:10441000785634AB091ABC091ACD091ADE091AEF0D
:10442000091AF0091A01091A12091A23091A34097A
:104430001A45091A56091937293F093B40812A04B0
:044440008C7100007B
:04000005080000C12E
:00000001FF
