:020000040800F2
:1000000050060020D5000008CD170008CD160008C6
:1000100000000000000000000000000000000000E0
:100020000000000000000000000000004B18000865
:100030000000000000000000491800084D180008EA
:10004000000000000000000000000000E7000008C1
:10005000E7000008E70000089D030008C10300084E
:100060000000000000000000000000000000000090
:100070001502000891180008E700000800000000C1
:1000800000000000E7000008000000000000000081
:10009000000000008118000800000000E7000008D0
:1000A00000000000E700000800000000E700000872
:1000B0000000000000000000000000000000000040
:1000C0000348854600F04EF800480047E10100086B
:1000D000500600200448804704480047FEE7FEE73A
:1000E000FEE7FEE7FEE7FEE755180008C10000083E
:1000F00030B50B46014600202022012409E00D46C0
:10010000D5409D4205D31D469540491B2546954047
:1001100040191546521E002DF1DC30BD03460B433D
:100120009B0703D009E008C9121F08C0042AFAD2AD
:1001300003E00B780370401C491C521EF9D2704733
:10014000D2B201E00270401C491EFBD2704700226F
:10015000F6E710B513460A4604461946FFF7F0FFC6
:10016000204610BD064C0125064E05E0E36807CC8D
:100170002B430C3C98471034B442F7D3FFF7A4FF4D
:100180007C2300089C23000870B58C180578401C5F
:100190006B075B0F01D10378401C2A1106D102784E
:1001A000401C03E006780E70401C491C5B1EF9D110
:1001B0002B0705D40023521E0DD40B70491CFAE7FF
:1001C0000378401CCB1A921C03E01D780D70491C6B
:1001D0005B1C521EF9D5A142D8D3002070BD00008F
:1001E00070B50125ED06002406E0A0002858A10006
:1001F000064A5050601CC4B2302CF6DB0120400788
:100200000349886001F068FE002070BD00000020F6
:1002100000ED00E0704770B505460E46002407E08B
:1002200028590021C943884201D000F0CAF8241D92
:10023000B442F5D370BD30B587B004460D460020FA
:100240000690022001900294E809039006A901A8F3
:1002500000F048F9002801D000F0B3F807B030BD35
:10026000FEB506460F4615462C46E8190190009645
:100270000AE021460120009A00F06AFA002803D122
:10028000803400988030009001988442F1D3FEBD04
:10029000F8B505460E461746002408E0A008800081
:1002A00028583959884201D000F08BF8241DB442F7
:1002B000F4D3F8BD00B58BB01C2104A8FFF747FFAD
:1002C000002000900190029003900B200490FF20EA
:1002D000013007900020089011488088C004C00CAD
:1002E00001214903084309900020059001200A904C
:1002F00004A800F003FE002801D000F062F80720F7
:10030000009000200190029003900021684600F0C8
:10031000E3FC002801D000F054F80BB000BD000051
:10032000000FFF1F10B586B0044600BF1748406B92
:1003300001210843154948630846406BC007C00FB8
:10034000009000BF00BF002C05D111480290002092
:100350001049087004E01048029001200D4908700F
:1003600001200390022004900420019001A905209F
:10037000000700F003FB062000F098FC012200219A
:10038000062000F09FFC06B010BD000000100240E7
:1003900000002110DC0000200000111010B5042026
:1003A00000F0DCFA05480078012803D10020FFF7AF
:1003B000B9FF02E00120FFF7B5FF10BDDC0000200F
:1003C000704700BFFEE7000000200649486006486D
:1003D000406904210843044948610448C106086093
:1003E00070470000380200200020024021433412F0
:1003F0000021054A51600549496902221143034A17
:100400005161FF2101607047380200200020024046
:10041000F0B502460B46002014461D46104E766984
:1004200001273E430E4F7E6100BFEFF31086314639
:1004300072B60EE02E6826602D1D241D461CF0B2FB
:100440001F2806D1064E76690127FF043E43044F5C
:100450007E612028EED300BF81F3108800BFF0BD7D
:1004600000200240044949690122D2021143024A94
:100470005161FF21016070470020024070B50446C1
:1004800000F06EFB051905E000F06AFBA84201D3FD
:10049000032070BD06480069012109040840000CD2
:1004A0000028F1D10348024908610020F1E700006B
:1004B000002002401180000070B5044600F050FB9F
:1004C00006462546681C002802D0054800682D18FD
:1004D00000BF00F045FB801BA842FAD370BD0000AE
:1004E00074010020F8B504460E460127002500BF20
:1004F00089480078012801D10220F8BD01208649F1
:10050000087000BF00BF85494968072252031140A7
:10051000480B834909688200824B9A5812789142AD
:1005200044D17F49496882009A581268D201D20D9D
:1005300091423BD17A49096982009A581288120483
:10054000120E914232D17649896882009A58127906
:1005500091422BD17249C96882009A58526852015F
:10056000520D914222D16E49496982009A5892688F
:10057000D203D20B914219D16949896982009A58F4
:10058000D268D203D20B914210D16549C969820069
:100590009A58128A92B2914208D16149096A82003E
:1005A0009A5812699200920C914244D000BF810087
:1005B0005C4A515809785A4A11608100594A515889
:1005C0000968C901C90D564A51608100554A515800
:1005D00009880904090E524A11618100514A515893
:1005E00009794F4A916081004E4A51584968490142
:1005F000490D4B4AD16081004A4A51588968C90364
:10060000C90B474A51618100464A5158C968C9031C
:10061000C90B434A91618100424A5158098A89B203
:100620003F4AD16181003F4A515809698900890CCC
:100630003B4A116200BF00BF2068012813D17D2012
:10064000C000FFF71BFF00285ED1FFF7BDFE7D2035
:10065000C000FFF713FF0746334840690421884371
:100660003149486150E02068022823D17D20C00034
:10067000FFF704FF002847D1401E3060656812E094
:100680002846FFF7B5FE7D20C000FFF7F7FE0746BE
:10069000254840690221884323494861002F01D041
:1006A000356006E08035A068C00161684018A84246
:1006B000E6D829E02068032826D17D20C000FFF776
:1006C000DDFE002820D1401E3060E56815E0284698
:1006D000FFF7C8FE7D20C000FFF7D0FE0746124896
:1006E00040690121C90288430F494861002F01D0A8
:1006F000356008E0012000032D1820690003E1683F
:100700004018A842E3D800BF00BF0020024908708B
:1007100000BF3846F1E60000380200200010024019
:10072000002102405C23000800200240012007490C
:100730004969C2071143054A516111464969C90F08
:10074000C907002900D000207047000000200240A7
:10075000F8B507460C461646012500BF65480078E7
:10076000012801D10220F8BD01206249087000BFB4
:1007700000BF61494968072252031140480B5F4995
:10078000096882005E4B9A581278914244D15B49C5
:10079000496882009A581268D201D20D91423BD129
:1007A0005649096982009A5812881204120E914221
:1007B00032D15249896882009A58127991422BD1DC
:1007C0004E49C96882009A5852685201520D9142AE
:1007D00022D14A49496982009A589268D203D20BC1
:1007E000914219D14549896982009A58D268D20349
:1007F000D20B914210D14149C96982009A58128A9C
:1008000092B2914208D13D49096A82009A58126910
:100810009200920C914244D000BF8100384A515856
:100820000978364A11608100354A51580968C90172
:10083000C90D324A51608100314A51580988090472
:10084000090E2E4A116181002D4A515809792B4A0F
:10085000916081002A4A515849684901490D274A47
:10086000D1608100264A51588968C903C90B234ABF
:1008700051618100224A5158C968C903C90B1F4AF6
:10088000916181001E4A5158098A89B21B4AD1617F
:1008900081001B4A515809698900890C174A116265
:1008A00000BF00BF6006400E002801D001205AE7BB
:1008B0007D20C000FFF7E2FD0546002D12D1314634
:1008C0002046FFF7A5FD7D20C000FFF7D7FD0546B8
:1008D0000C484069400840000A494861002D01D099
:1008E000284640E700BF00200249087000BF2846A4
:1008F00039E70000380200200010024000210240C9
:100900005C23000800200240002009494969C90F02
:10091000C90700290BD00749054A91600649916033
:1009200011464969C90FC907002900D00120704745
:100930000020024023016745AB89EFCD10B5044686
:10094000042C08D104480078012802D101F06CFA87
:1009500001E001F055FA10BDDC00002010B504469E
:100960000548C0682040002804D00348C4602046E1
:10097000FFF7E4FF10BD00000018024070B5034609
:100980000022CBE0012696400C683440002C71D048
:100990004D68022D02D04D68122D15D1D508AE003C
:1009A0001D462035A8595507EE0E0F25B5400646C1
:1009B000AE4330465607F60E0D69B5402843D508BC
:1009C000AD001E4620367051186856000325B5400C
:1009D0000646AE4330460D79AD07AD0F5600B54023
:1009E000284318604D68012D08D04D68022D05D0B0
:1009F0004D68112D02D04D68122D18D198685600FF
:100A00000325B5400646AE4330465600CD68B54096
:100A1000284398605868012595400646AE43304605
:100A200010264D6835402D09954028435860D868F8
:100A300056000325B5400646AE43304656008D6845
:100A4000B5402843D860012636074D683540B54289
:100A500063D1354D9608B600A8599507EE0E0F25BF
:100A6000B5400646AE43304605252D07AB4202D1C0
:100A7000002506E051E02D4DAB4201D1012500E0FB
:100A800002259607F60EB5402843274D9608B60076
:100A9000A851254D203528680546A543284601263E
:100AA00036044D683540B54202D1054625432846F7
:100AB0001D4D2035286068680546A5432846012657
:100AC00076044D683540B54202D105462543284697
:100AD000154D20356860144D603D28680546A543D6
:100AE0002846012636054D683540B54202D10546F7
:100AF000254328460C4D603D286068680546A5439F
:100B00002846012676054D683540B54202D1054696
:100B100025432846044D603D6860521C0D68D54051
:100B2000002D00D02EE770BD601802400004005078
:100B3000024613690B40002B01D0012000E0002089
:100B4000704742690A40002A01D0816200E0816159
:100B50007047002A01D0816100E081627047000087
:100B600001480068704700006C01002001480068DF
:100B700070470000000EFF1F0148406870470000EA
:100B8000000EFF1F0148806870470000000EFF1F25
:100B900070B50446002C01D1012070BD0F482168BA
:100BA00008600F4821680860216860684860216813
:100BB000A0688860FFF7D4FF054606E0FFF7D0FF86
:100BC000401B302801D90320E7E72068C0680028CF
:100BD000F4D10448216808600020DEE7CCCC000096
:100BE00055550000AAAA0000014602480A68106094
:100BF00000207047AAAA000003480068034909685A
:100C000040180149086070476C0100207401002001
:100C100010B50024032000F009F8002801D00124B9
:100C200001E000F033F8204610BD0000F8B504469E
:100C300000251348006800281ED0114801687D2057
:100C4000C000FFF755FA074639460E480068FFF71F
:100C50004FFA064600F0CAFA00280BD1042C07D23E
:100C600000222146401E00F02DF80748046004E0F1
:100C7000012502E0012500E001252846F8BD00001D
:100C800074010020C0000020700100200648006AA6
:100C9000012108430449086200BF0348006A022199
:100CA00008400028F9D070474010024000BFC2063B
:100CB000D20E01219140024A116000BF704700002E
:100CC00000E100E070B504460D4616462946204670
:100CD00000F07EFD70BD000070B504460D46002C8E
:100CE00001D1012070BD5F480068C007C00FA84255
:100CF00018D25C4800684008400028435949086001
:100D0000FFF72EFF064607E0FFF72AFF801B564934
:100D1000884201D90320E5E752480068C007C00FA8
:100D2000A842F1D1022120680840022815D10421EF
:100D300020680840042807D14C488068072109032F
:100D40008843401849498860484880680F21090253
:100D50008843A1680843454988602078C007C00FD0
:100D600000283CD06068012808D140480068012173
:100D700049040840002816D10120B3E76068002824
:100D800008D13A48006801218902084000280AD1A8
:100D90000120A7E735484030006A022108400028BA
:100DA00001D101209EE731488068C008C000616819
:100DB00008432E498860FFF7D3FE064607E0FFF799
:100DC000CFFE801B2849884201D903208AE72748A3
:100DD0008068382108406168C9008842EFD1214805
:100DE0000068C007C00FA84218D91E480068400814
:100DF000400028431B490860FFF7B2FE064607E0A3
:100E0000FFF7AEFE801B1849884201D9032069E72D
:100E100014480068C007C00FA842F1D1042120681F
:100E20000840042808D11148806807210903884335
:100E3000E16808430D49886000F020F80B49896893
:100E40000F2212021140090A8900094A515CC906A1
:100E5000C90EC8400749086007480068FFF7E6FE6A
:100E600040E700000020024088130000001002400C
:100E7000C8220008C00000207001002070B586B0B4
:100E800014221B4901A8FFF749F91A488068382144
:100E90000840002817D11748006809020840C10A15
:100EA00001268E4013484068072149030840450B3E
:100EB000042D00D90025A90001AA50583146FFF79A
:100EC00017F9044611E00B488068382108400828CB
:100ED00001D1094C09E007488068382108401828EA
:100EE00002D10124E40300E00024204606B070BDD6
:100EF000482300080010024000366E0170B5044619
:100F0000002C01D1012070BD2078C007C00F00283F
:100F100077D0B248866838210E40082E09D1006883
:100F2000B103084000286CD06068002869D1012016
:100F3000E9E7606800280DD0A068002808D0A7481D
:100F400000690C218843A1680843A449086101E0B5
:100F50000120D8E700BF012109046068884205D15B
:100F60009E48006808439D49086021E00521090466
:100F7000606888420ED199480068012189040843BD
:100F8000964908600846006801210904084393490E
:100F900008600DE0914800680121090488438F49E9
:100FA0000860084600680121890488438B4908606D
:100FB00000BF6068002812D0FFF7D2FD054606E0AA
:100FC000FFF7CEFD401BC82801D903209BE78348CB
:100FD00000680121490408400028F1D011E0FFF722
:100FE000BFFD054606E0FFF7BBFD401BC82801D941
:100FF000032088E779480068012149040840002857
:10100000F1D102212068084002287BD17348806812
:10101000382108400646002E48D17048006801215A
:1010200089020840002804D0E068002801D101208E
:1010300069E76A484068000C000461690843674931
:101040004860FFF78DFD054606E0FFF789FD401B70
:10105000022801D9032056E760480068012189026F
:1010600008400028F1D0002E18D15C480068072104
:10107000C90288432169084358490860FFF7FEFE0A
:10108000564989680F2212021140090A8900544A00
:10109000515CC906C90EC8405249086052480068F0
:1010A000FFF7C4FD002847D001202CE7E0680028A6
:1010B00029D04A4800680721C902884321690843AA
:1010C0004649086008460068891508434349086096
:1010D000FFF746FD054606E0FFF742FD401B0228EC
:1010E00001D903200FE73D4800680121890208402B
:1010F0000028F1D039484068000C000461690843B9
:101100003649486018E035480068FF2101318843BE
:1011100032490860FFF724FD054606E0FFF720FD91
:10112000401B022801D90320EDE62C48006801216C
:10113000890208400028F1D10821206808400828C9
:1011400049D1264880683821084018280BD1234807
:101150004030006A0221084000283CD0A0690028E5
:1011600039D10120CFE6A06900281AD01B484030B1
:10117000006A01210843194940310862FFF7F0FC79
:10118000054606E0FFF7ECFC401B022801D90320CE
:10119000B9E612484030006A022108400028F1D028
:1011A00019E00E484030006A400840000B494031C9
:1011B0000862FFF7D5FC054606E0FFF7D1FC401BAF
:1011C000022801D903209EE604484030006A02212B
:1011D00008400028F1D1002095E6000000100240F0
:1011E000C8220008C00000207001002070B504462D
:1011F0002546681E0949884201D901200CE0681E75
:10120000074948610321081F00F0E2FA0020044961
:10121000886107200861002070BD0000FFFFFF000B
:1012200000E000E010B5044607492068884203D179
:1012300006A000F0BDFB06E008492068884202D104
:1012400007A000F0B5FB10BD0044014054494D31EA
:10125000362D427265616B43616C6C00002C01405D
:1012600054494D312D427265616B43616C6C0000D5
:1012700010B5044607492068884203D106A000F053
:1012800097FB06E009492068884202D108A000F0D7
:101290008FFB10BD0044014054494D31362D436F42
:1012A0006D6D757443616C6C00000000002C014092
:1012B00054494D312D436F6D6D757443616C6C00F5
:1012C00010B50446002C01D1012010BDA07F0028DC
:1012D00003D16077204600F00BF80220A077211D93
:1012E000206800F0D7FA0120A0770020EDE7000089
:1012F00038B5044600BF1748006801214904084377
:10130000144908600846006801214904084000901B
:1013100000BF00BF002211461520FFF7D3FC1520A7
:10132000FFF7C4FC00BF0B4800680121C902084355
:101330000849086008460068C9140840009000BFCA
:1013400000BF002211460D20FFF7BCFC0D20FFF767
:10135000ADFC38BD4010024001460868C06801235A
:1013600018430B68D860086880684207520F062A45
:1013700005D008680068012318430B681860002036
:101380007047704710B50446206800690221084084
:10139000400800281CD02068C06808404008002889
:1013A00016D0481F216808610120207720688069D5
:1013B0008007800F002803D02046FFF7E2FF05E0FA
:1013C000204600F0C3F8204600F0C1F80020207746
:1013D0002068006904210840800800281DD020688A
:1013E000C06808408008002817D0C84321680861F9
:1013F0000220207720688069032109020840002824
:1014000003D02046FFF7BDFF05E0204600F09EF820
:10141000204600F09CF80020207720680069082111
:101420000840C00800281CD02068C0680840C008D8
:10143000002816D0C843216808610420207720685E
:10144000C0698007800F002803D02046FFF799FF6E
:1014500005E0204600F07AF8204600F078F80020F9
:1014600020772068006910210840000900281DD05D
:101470002068C06808400009002817D0C8432168C8
:101480000861082020772068C0690321090208400C
:10149000002803D02046FFF774FF05E0204600F047
:1014A00055F8204600F053F80020207720680069A6
:1014B000C007C00F01214840484000280CD02068D8
:1014C000C068084048404840002805D0C81E216830
:1014D0000861204600F03CF820680069802108403F
:1014E000C00900280BD02068C0680840C009002847
:1014F00005D0C843216808612046FFF793FE2068A5
:10150000006940210840800900280BD02068C0688D
:1015100008408009002805D0C8432168086120469A
:1015200000F054F820680069202108404009002894
:101530000BD02068C06808404009002805D0C84387
:10154000216808612046FFF793FE10BD7047704781
:1015500010B5044617492068884229D100F07AFA6C
:1015600015480078401CC0B213490870142810D1E7
:101570000020087011480078401CC0B20F49087064
:10158000192806D1002008700D480078401C0C492D
:1015900008700C480078FC2804DA0A480078401CDF
:1015A0000849087008480068401C0749086000E0C6
:1015B00000BF10BD00440140CC000020CD00002041
:1015C000E7000020D2000020E00000207047FFB5B7
:1015D00083B004460D461746002001903D20005D73
:1015E000202871D1002D01D0002F02D1012007B099
:1015F000F0BD01210903A068884208D120690028B4
:1016000005D1E807C00F002801D00120EFE700BF97
:101610003C20005D012801D10220E8E701213C20A7
:10162000015500BF0020206421213D200155FFF716
:1016300097FA01902786678601210903A0688842EE
:1016400005D12069002802D10026029502E02E462D
:10165000002002901EE00698009000228021204683
:10166000019B00F06DF9002801D00320BFE7002E98
:1016700009D102980088C005C00D21684860029811
:10168000801C029003E0307821684860761C608EF0
:10169000401E6086608E0028DDD1069800900022F2
:1016A00040212046019B00F04BF9002801D0032087
:1016B0009DE720213D20015500BF00213C20015520
:1016C00000BF002093E7FFE7022090E700BFFEE79E
:1016D000F8B500270025002600240EE02C48005D08
:1016E000BB2802D1681CC5B205E02948005D1B2853
:1016F00001D1701CC6B2601CC4B226480078844276
:10170000ECDB24480078002800D1F8BDB54201DDAB
:10171000BB2702E0B54200DA1B2700201D490870F4
:101720001B2F02D0BB2F2BD10BE01B480078401C95
:101730001949087008460078062801DB0020087067
:101740001FE015480078002816D1144800780028BA
:1017500009D00022802105200007FFF7FAF90020B8
:101760000E49087008E00122802105200007FFF7DC
:10177000F0F9012009490870012009490870C4E7FF
:10178000C3E700BF0448007800F0FEFB00BFBCE7E1
:10179000D1010020D5000020D4000020D00000207E
:1017A000E6000020002000210AE0074A525C032ADC
:1017B00001DB80221043072900DA40104A1CD1B215
:1017C0000729F2DD70470000C801002070470000C3
:1017D00010B5002819DA1A4A03071B0F083B9B08AB
:1017E0009B00D2588307DC0EFF23A3409A438B074C
:1017F0001B0E8407E40EA3401A43114B0407240F69
:10180000083CA408A4001A5118E00E4A03231B0246
:10181000D21883089B00D2588307DC0EFF23A34015
:101820009A438B071B0E8407E40EA3401A43054B13
:10183000032424021B198408A4001A5110BD0000BF
:101840001CED00E000E100E07047704710B5FFF7C5
:10185000D3F910BD07484068000C0004012149037A
:10186000401805494968084302494860C8030349CC
:101870008860704700100240000FFF1F00ED00E07D
:1018800010B50248FFF77EFD10BD00007C0100206E
:101890007047000010B50268154B984205D17024BE
:1018A0001346A3431A464B681A43114B984202D081
:1018B000104B984206D1032424021346A3431A4630
:1018C000CB681A4380241346A3434C6923431A462A
:1018D00002608B68C3620B688362054B984202D03A
:1018E000044B984201D10B6903630123436110BD8E
:1018F000002C01400044014010B50F480F4908601A
:10190000F9210E48C16007200C49486000210B48AE
:1019100001618160416180218161FFF7D1FC002874
:1019200001D0FEF74EFD0548FFF716FD002801D057
:10193000FEF747FD10BD0000004401407C0100207F
:10194000FFB581B004460D4617460A9E24E0701C80
:10195000002821D0002E05D0FFF702F90499401A83
:10196000B04219D92068C068FF21A131884321689D
:10197000C860206840694008400021684861202113
:101980003D2001553E20015500BF00213C2001555E
:1019900000BF032005B0F0BD206800682840A842C1
:1019A00001D1012000E00020B842D0D00020F1E7B2
:1019B00010B5024A024900F022F810BD851B00084C
:1019C0007801002030B47446641E2578641CAB4254
:1019D00004D3635D5B00E31830BC18471D46F8E78D
:1019E00002E008C8121F08C1002AFAD170477047E8
:1019F000002001E001C1121F002AFBD17047F8B599
:101A000016460F460446002503E03946B047641CDD
:101A10006D1C20780028F8D12846F8BD10B5044682
:101A2000012C04D101210548FFF78BF804E00122C5
:101A300011460248FFF78DF810BD00000014005059
:101A400000B5012002490870022000F02DF800BD09
:101A5000E600002010B504480078002802D00120DC
:101A6000FFF7DCFF10BD0000E600002010B50B48BA
:101A7000007800280DD00A4800780A490978884281
:101A80000ADD00200549087005490870FFF7C6FF08
:101A900002E000200249087010BD0000E6000020AE
:101AA000E7000020E80000200149087070470000AE
:101AB000E800002070B500F048FB04460948844265
:101AC00001D1002070BD02F01BFC3320000200F0A9
:101AD0000DF805462A468021034800F00EF8012043
:101AE000F0E70000CC33AA55EC000020014680202E
:101AF0000003103000024018704770B505460E46CE
:101B00001446FEF701FF31462046FEF794FB3146AE
:101B10002046FEF780FB224631462846FEF7A0FB12
:101B2000FEF704FE224631462846FEF7B1FB70BDA3
:101B300010B50246002016E08300D3580B33840012
:101B400013518300D35855246340840013518300FC
:101B5000D3583E3B840013518300D3589B0084002C
:101B60001351431CD8B28842E6DB10BD0246002068
:101B700004E0135CDB431354431CD8B28842F8DB07
:101B80007047000013B50C467D23DB000122694637
:101B90000248FFF71CFD00981CBD0000F401002066
:101BA00010B50446002C00D110BDFEF7DFFF206009
:101BB000FEF7E2FF6060FEF7E5FFA06000BFF3E71D
:101BC00070B505460C462846FFF790FF0646802272
:101BD00031462046FEF7A2FA70BD000000B587B07E
:101BE00000BF4C48406B012108434A4948630846FE
:101BF000406BC007C00F019000BF00BF00BF084688
:101C0000406B02210843434948630846406B022168
:101C10000840019000BF00BF00BF3E48406B20213C
:101C200008433C4948630846406B20210840019026
:101C300000BF00BF02200290002003900490022009
:101C4000059002A905200007FEF798FE48200290A3
:101C500001200390002004900220059002A9052095
:101C60000007FEF78BFE0122082105200007FEF782
:101C700070FF0022402105200007FEF76AFF802048
:101C8000029001200390002004900220059002A9F8
:101C900005200007FEF772FE0022802105200007C4
:101CA000FEF757FF012002900390002004900220CD
:101CB000059002A91848FEF761FE01221146164858
:101CC000FEF747FF01204002029001200390002010
:101CD00004900220059002A905200007FEF74EFEA1
:101CE00000220121490205200007FEF732FF0220F1
:101CF000029001200390002004900220059002A988
:101D00000648FEF73BFE002202210448FEF721FFB1
:101D100007B000BD00100240001400500004005045
:101D2000FEB500266846FFF73BFF32252D020C4A20
:101D30002946022000F0D2F900240BE0A0006946F9
:101D40000858A100064A5158884201D0012603E0F4
:101D5000601CC4B2032CF1DB00BF3046FEBD0000A6
:101D6000E801002010B531242402034A3121090280
:101D7000012000F0B3F910BDDC01002010B53124C2
:101D800024028034044A2146022000F0A7F90321EE
:101D90000148FFF7CDFE10BDE801002010B508484E
:101DA000007800280AD007480078F02806DD0020D7
:101DB0000449087002490870FFF78AFC10BD000052
:101DC000D1000020D20000200020074908700749F8
:101DD00008700749087007490870034908700649E8
:101DE0000860064908707047D4000020D100002028
:101DF000D2000020D5000020D8000020DD00002007
:101E000006480078222805DD0120054908700020D9
:101E1000044908700020014908707047D200002072
:101E2000DE000020D300002010B5194800780028FB
:101E30002AD0184800781849184A12788854002087
:101E40001449087015480078401C14490870084669
:101E50000078082818D101201149087000200F4986
:101E600008700B490870FFF79DFC0E490E4A127866
:101E700088540D480078401C0B49087008460078CB
:101E80000A2801DB0020087000200249087010BDFC
:101E9000DE000020D2000020C8010020D300002076
:101EA000D1000020D1010020D500002010B5084845
:101EB0000849086003204860FF212D3105488160F2
:101EC000FEF766FE002801D0FEF77BFA10BD000089
:101ED00000300040BC010020FEF79AFEFEF7EAF950
:101EE0000020FEF71FFAFFF707FDFFF7DFFFFFF700
:101EF00075FEFFF769FF00F0D9F9FFF7A1FD00209B
:101F000000F042F8FFF7D6FD00BFFFF709FF0028F9
:101F10000AD00D48FEF768FE002801D0FEF751FAFE
:101F20006420FEF7C9FAF0E70CE00748FEF75CFE14
:101F3000002801D0FEF745FAFFF730FF00F06CF9FA
:101F4000FFF794FDF1E70000BC01002070B500250B
:101F5000FFF708FFFFF712FF00240BE0A00008497D
:101F60000858A100074A5158884201D0012503E0D2
:101F7000601CC4B2032CF1DB00BF284670BD00001A
:101F8000DC010020E801002010B504460120504982
:101F90000870FFF7DBFF002800D006242300FFF7BE
:101FA00011FD07052733404C5E719300002201218B
:101FB000490205200007FEF7CCFD0022022145481A
:101FC000FEF7C7FD0022402105200007FEF7C1FDF6
:101FD0000122082105200007FEF7BBFD0022802119
:101FE00005200007FEF7B5FD00203B4908706CE0B6
:101FF0000122510205200007FEF7ABFD002202215D
:102000003448FEF7A6FD60E00022012149020520C8
:102010000007FEF79EFD012202212E48FEF799FDE2
:1020200053E00122510205200007FEF792FD012234
:1020300002212848FEF78DFD47E0012251020520CC
:102040000007FEF786FD012202212248FEF781FDEE
:102050000122802105200007FEF77BFD35E00022EC
:102060000121490205200007FEF773FD002202212D
:102070001848FEF76EFD0122802105200007FEF7BB
:1020800068FD22E00022802105200007FEF761FDA7
:102090000020114908700022012149020520000793
:1020A000FEF757FD002202210A48FEF752FD0022EA
:1020B000402105200007FEF74CFD012208210520E4
:1020C0000007FEF746FD00E000BF00BF10BD0000A6
:1020D000E600002000040050D0000020F7B5A4B0B6
:1020E0000646154601A92598FFF76AFD012E0ED177
:1020F0000024002709E0E00001A90A5C3846791CA9
:10210000CFB221A90A54601CC4B20C2CF3D3022E06
:1021100013D1002400270AE0E00001A90858020EAC
:102120003846791CCFB221A90A54601CC4B20C2CC9
:10213000F2D30C2121A8FFF719FD219828602298DD
:1021400068602398A86027B0F0BD70B56124E401F1
:102150002046FFF7CBFC04462646B569284670BDED
:1021600010B5022105200007FEF7E2FC002801D08F
:10217000012000E000200446204610BD30B5A1B08B
:10218000552401A90020FFF71BFD6120C001FFF7C6
:10219000ADFC05462402AA34240233342402CC3494
:1021A00007942A46802101A8FFF7A7FC21B030BD83
:1021B00010B5FFF7D5FF002814D115480078002886
:1021C00003D00020134908601FE012480068FF2177
:1021D0002D31884219D900200E49086001200C4990
:1021E000087010BD0A48007800280BD00948006824
:1021F00019214901884208D900200649086004498C
:10220000087002E00020034908600020E9E70000B0
:10221000E4000020E000002010B5FFF7C9FF00F047
:1022200001F810BD10B51D480078002831D01C48B9
:102230000078002830D10120194908701948007829
:10224000401C184908700122402105200007FEF7B4
:1022500080FC0022082105200007FEF77AFC1148C7
:102260000078062810DB00200E4908700E4908701F
:102270000022402105200007FEF76BFC0122082107
:1022800005200007FEF765FC06480078FFF77CFE96
:1022900002E000200249087010BD0000E4000020A8
:1022A000E5000020D4000020D000002000200349D9
:1022B000086003490870034908707047E000002077
:1022C000E4000020E5000020000000000000000005
:1022D00000000000000000000000000000000000FE
:1022E00000000000000000000100000002000000EB
:1022F00003000000040000000600000007000000CA
:1023000008000000090000000000000000000000BC
:1023100000000000000000000100000002000000BA
:10232000030000000400000000093D0000127A00D4
:102330000024F4004086510100366E0100093D0082
:1023400000093D0000093D0000093D0000127A002F
:102350000024F4004086510100366E011C0FFF1F5F
:10236000300FFF1F440FFF1F580FFF1F6C0FFF1F81
:102370001C0FFF1F1C0FFF1F1C0FFF1FE043000857
:10238000000000207C0100008801000824440008AF
:102390007C010020D4040000F019000800000000B7
:1023A000000000000000000000000000000000002D
:1023B000000000000000000000000000000000001D
:1023C000000000000000000000000000000000000D
:1023D00000000000000000000000000000000000FD
:1043000030B5A7B0FDF73AFF24A8FDF749FC03211B
:1043100024A8FDF70DFC249821902598229026983A
:10432000239001A90020FDF74BFC002411E0E000E0
:1043300001A90858000A0002E10001AA5050E0005B
:1043400001A9085821A9095D4018E1005050601CDE
:10435000C4B20C2CEBD331200002FDF7C7FB05469D
:104360002A46802101A8FDF7C8FB24A8FDF718FC08
:104370002498219025982290269823900C2121A8FA
:10438000FDF7F4FB002412E0E00001A90858000248
:10439000000AE10001AA5050E00001A9085821A933
:1043A000095D09064018E1005050601CC4B20C2C95
:1043B000EAD36320C001FDF799FB05462A46802118
:1043C00001A8FDF79AFB19204002FDF78FFB054677
:1043D0002A46802101A8FDF790FB27B030BD0000E0
:1043E00001C10329127A1A0101180A896745239A23
:1043F000785634AB091ABC091ACD091ADE091AEF2E
:10440000091AF0091A01091A12091A23091A34099A
:104410001A45091A56091937293F093B40412A0410
:04442000887100009F
:04000005080000C12E
:00000001FF
