:020000040800F2
:10000000F0050020D5000008ED110008E9110008F6
:1000100000000000000000000000000000000000E0
:100020000000000000000000000000006B1200084B
:100030000000000000000000691200086D120008B6
:10004000000000000000000000000000E7000008C1
:10005000E7000008E7000008E7000008E7000008E4
:100060000000000000000000000000000000000090
:10007000E7000008E7000008E700000800000000B3
:1000800000000000E7000008000000000000000081
:1000900000000000E700000800000000E700000882
:1000A00000000000E700000800000000E700000872
:1000B0000000000000000000000000000000000040
:1000C0000348854600F04EF800480047E10100086B
:1000D000F00500200448804704480047FEE7FEE79B
:1000E000FEE7FEE7FEE7FEE775120008C100000824
:1000F00030B50B46014600202022012409E00D46C0
:10010000D5409D4205D31D469540491B2546954047
:1001100040191546521E002DF1DC30BD03460B433D
:100120009B0703D009E008C9121F08C0042AFAD2AD
:1001300003E00B780370401C491C521EF9D2704733
:10014000D2B201E00270401C491EFBD2704700226F
:10015000F6E710B513460A4604461946FFF7F0FFC6
:10016000204610BD064C0125064E05E0E36807CC8D
:100170002B430C3C98471034B442F7D3FFF7A4FF4D
:10018000C4130008E413000870B58C180578401CEF
:100190006B075B0F01D10378401C2A1106D102784E
:1001A000401C03E006780E70401C491C5B1EF9D110
:1001B0002B0705D40023521E0DD40B70491CFAE7FF
:1001C0000378401CCB1A921C03E01D780D70491C6B
:1001D0005B1C521EF9D5A142D8D3002070BD00008F
:1001E00070B50125ED06002406E0A0002858A10006
:1001F000064A5050601CC4B2302CF6DB0120400788
:100200000349886001F05BF8002070BD0000002009
:1002100000ED00E000B5002009E00649411809683A
:100220000022D243914201D000F01EF9001DFF28A8
:10023000F3D900BD0020000800B587B0002006906B
:1002400003200190064804900120059006A901A80A
:1002500000F09AF9002801D000F006F907B000BDBF
:100260000020000870B5084C084E094D08E02A46E9
:100270002146012000F0BEFA002801D180348035EB
:10028000B442F4D370BD0000002000080021000833
:10029000C400002000B500200BE081088900064A58
:1002A0005158064A82181268914201D000F0DCF8D9
:1002B000001DFF28F1D900BDC40000200020000867
:1002C00000B58BB01C2104A8FFF741FF002000906F
:1002D0000190029003900B200490FF2001300790C2
:1002E0000020089010488088C004C00C01214903F8
:1002F00008430990002005900A9004A800F0E0FD52
:10030000002801D000F0B0F80720009000200190F4
:10031000029003900021684600F0C0FC002801D044
:1003200000F0A2F80BB000BD000FFF1F10B586B0A3
:10033000044600BF00BF1448406B01210843124926
:1003400048630846406BC007C00F009000BF00BF65
:1003500000BF60000D49085A019001200290002062
:10036000039002200490A100094A505801A900F00E
:1003700037FB6200054B995AA200054B98580122A1
:1003800000F019FC06B010BD0010024088130008F0
:10039000C401002010B504466200044B995AA20023
:1003A000034B985800F0FFFB10BD000088130008B5
:1003B000C401002010B504466200044B995AA20003
:1003C000034B985800F0E6FB10BD00008A130008AC
:1003D000C801002030B587B004460D4600BF002C90
:1003E0000DD100BF1B48406B0221084319494863E7
:1003F0000846406B02210840019000BF00BF00BFCB
:1004000060001549085A02900020049001200590D0
:10041000002D07D100200390A100104A505802A9D6
:1004200000F0DEFA012D13D10D480390A1000B4A14
:10043000505802A900F0D4FA0A49095D48B20022D6
:100440000F2100F021FC0749095D48B200F010FCC3
:1004500007B030BD001002408A130008C801002018
:10046000000021108C13000800BFFEE700200649A1
:10047000486006484069042108430449486104482B
:10048000C106086070470000D8010020002002402B
:10049000214334120021054A51600549496902226D
:1004A0001143034A5161FF2101607047D8010020C8
:1004B00000200240F0B502460B46002014461D46BF
:1004C000104E766901273E430E4F7E6100BFEFF369
:1004D0001086314672B60EE02E6826602D1D241D52
:1004E000461CF0B21F2806D1064E76690127FF048C
:1004F0003E43044F7E612028EED300BF81F3108875
:1005000000BFF0BD00200240044949690122D20227
:100510001143024A5161FF210160704700200240EF
:1005200070B5044600F04EFB051905E000F04AFBEB
:10053000A84201D3032070BD0648006901210904C7
:100540000840000C0028F1D103480249086100204E
:10055000F1E70000002002401180000070B5044661
:1005600000F030FB06462546681C002802D00548EE
:1005700000682D1800BF00F025FB801BA842FAD3AD
:1005800070BD0000D4010020F8B504460E460127D6
:10059000002500BF89480078012801D10220F8BD5C
:1005A00001208649087000BF00BF854949680722BD
:1005B00052031140480B834909688200824B9A58C4
:1005C0001278914244D17F49496882009A58126852
:1005D000D201D20D91423BD17A49096982009A58E1
:1005E00012881204120E914232D176498968820033
:1005F0009A58127991422BD17249C96882009A584F
:1006000052685201520D914222D16E4949698200CD
:100610009A589268D203D20B914219D169498969DB
:1006200082009A58D268D203D20B914210D1654908
:10063000C96982009A58128A92B2914208D16149DE
:10064000096A82009A5812699200920C914244D031
:1006500000BF81005C4A515809785A4A11608100F4
:10066000594A51580968C901C90D564A516081005B
:10067000554A515809880904090E524A11618100EE
:10068000514A515809794F4A916081004E4A515858
:1006900049684901490D4B4AD16081004A4A515885
:1006A0008968C903C90B474A51618100464A5158BC
:1006B000C968C903C90B434A91618100424A515834
:1006C000098A89B23F4AD16181003F4A515809697C
:1006D0008900890C3B4A116200BF00BF20680128D5
:1006E00013D17D20C000FFF71BFF00285ED1FFF76C
:1006F000BDFE7D20C000FFF713FF07463348406969
:10070000042188433149486150E02068022823D100
:100710007D20C000FFF704FF002847D1401E306055
:10072000656812E02846FFF7B5FE7D20C000FFF7A0
:10073000F7FE07462548406902218843234948615E
:10074000002F01D0356006E08035A068C0016168E7
:100750004018A842E6D829E02068032826D17D2049
:10076000C000FFF7DDFE002820D1401E3060E568A4
:1007700015E02846FFF7C8FE7D20C000FFF7D0FE39
:100780000746124840690121C90288430F49486160
:10079000002F01D0356008E0012000032D182069EA
:1007A0000003E1684018A842E3D800BF00BF002062
:1007B0000249087000BF3846F1E60000D801002069
:1007C0000010024000210240A41300080020024053
:1007D000012007494969C2071143054A5161114681
:1007E0004969C90FC907002900D0002070470000DF
:1007F00000200240F8B507460C461646012500BF0A
:1008000065480078012801D10220F8BD0120624925
:10081000087000BF00BF61494968072252031140B8
:10082000480B5F49096882005E4B9A5812789142E2
:1008300044D15B49496882009A581268D201D20DAE
:1008400091423BD15649096982009A581288120494
:10085000120E914232D15249896882009A58127917
:1008600091422BD14E49C96882009A585268520170
:10087000520D914222D14A49496982009A589268A0
:10088000D203D20B914219D14549896982009A5805
:10089000D268D203D20B914210D14149C96982007A
:1008A0009A58128A92B2914208D13D49096A82004F
:1008B0009A5812699200920C914244D000BF810074
:1008C000384A51580978364A11608100354A5158E2
:1008D0000968C901C90D324A51608100314A515835
:1008E00009880904090E2E4A116181002D4A5158C8
:1008F00009792B4A916081002A4A51584968490177
:10090000490D274AD1608100264A51588968C90398
:10091000C90B234A51618100224A5158C968C90351
:10092000C90B1F4A916181001E4A5158098A89B238
:100930001B4AD16181001B4A515809698900890C01
:10094000174A116200BF00BF6006400E002801D0A8
:1009500001205AE77D20C000FFF7E2FD0546002D8B
:1009600012D131462046FFF7A5FD7D20C000FFF7DC
:10097000D7FD05460C484069400840000A494861D7
:10098000002D01D0284640E700BF00200249087032
:1009900000BF284639E70000D801002000100240BF
:1009A00000210240A4130008002002400020094951
:1009B0004969C90FC90700290BD00749054A916049
:1009C0000649916011464969C90FC907002900D03D
:1009D000012070470020024023016745AB89EFCD1D
:1009E00070B503460022CBE0012696400C683440E7
:1009F000002C71D04D68022D02D04D68122D15D1FA
:100A0000D508AE001D462035A8595507EE0E0F2516
:100A1000B5400646AE4330465607F60E0D69B54062
:100A20002843D508AD001E46203670511868560080
:100A30000325B5400646AE4330460D79AD07AD0FF0
:100A40005600B540284318604D68012D08D04D6808
:100A5000022D05D04D68112D02D04D68122D18D1F0
:100A6000986856000325B5400646AE43304656000A
:100A7000CD68B540284398605868012595400646E2
:100A8000AE43304610264D6835402D099540284329
:100A90005860D86856000325B5400646AE43304638
:100AA00056008D68B5402843D860012636074D684A
:100AB0003540B54263D1354D9608B600A859950723
:100AC000EE0E0F25B5400646AE43304605252D07F0
:100AD000AB4202D1002506E051E02D4DAB4201D1E1
:100AE000012500E002259607F60EB5402843274D64
:100AF0009608B600A851254D203528680546A5431F
:100B00002846012636044D683540B54202D10546D7
:100B1000254328461D4D2035286068680546A543B5
:100B20002846012676044D683540B54202D1054677
:100B300025432846154D20356860144D603D2868D2
:100B40000546A5432846012636054D683540B54281
:100B500002D10546254328460C4D603D2860686853
:100B60000546A5432846012676054D683540B54221
:100B700002D1054625432846044D603D6860521C5D
:100B80000D68D540002D00D02EE770BD60180240E2
:100B900000040050024613690B40002B01D00120D5
:100BA00000E00020704742690A40002A01D08162BB
:100BB00000E081617047002A01D0816100E081621C
:100BC000704700000148006870470000CC01002019
:100BD00003480068034909684018014908607047E4
:100BE000CC010020D401002010B50024032000F027
:100BF00009F8002801D0012401E000F033F8204674
:100C000010BD0000F8B50446002513480068002810
:100C10001ED0114801687D20C000FFF769FA074621
:100C200039460E480068FFF763FA064600F0C0FA3E
:100C300000280BD1042C07D200222146401E00F0D0
:100C400023F80748046004E0012502E0012500E0E4
:100C500001252846F8BD0000D4010020C000002076
:100C6000D001002010B50020FFF760FB10BD000090
:100C700000BFC206D20E01219140024A116000BF9E
:100C80007047000000E100E070B504460D461646CE
:100C90002946204600F0ACFA70BD000070B504464D
:100CA0000D46002C01D1012070BD5F480068C007CF
:100CB000C00FA84218D25C48006840084000284392
:100CC00059490860FFF77EFF064607E0FFF77AFF05
:100CD000801B5649884201D90320E5E75248006845
:100CE000C007C00FA842F1D10221206808400228A5
:100CF00015D1042120680840042807D14C48806899
:100D0000072109038843401849498860484880689A
:100D10000F2109028843A16808434549886020786B
:100D2000C007C00F00283CD06068012808D14048A7
:100D30000068012149040840002816D10120B3E7CA
:100D40006068002808D13A480068012189020840FB
:100D500000280AD10120A7E735484030006A022167
:100D60000840002801D101209EE731488068C00872
:100D7000C000616808432E498860FFF723FF0646DC
:100D800007E0FFF71FFF801B2849884201D9032095
:100D90008AE727488068382108406168C90088428E
:100DA000EFD121480068C007C00FA84218D91E48DB
:100DB00000684008400028431B490860FFF702FF15
:100DC000064607E0FFF7FEFE801B1849884201D95E
:100DD000032069E714480068C007C00FA842F1D19A
:100DE000042120680840042808D1114880680721A0
:100DF00009038843E16808430D49886000F020F842
:100E00000B4989680F2212021140090A8900094A18
:100E1000515CC906C90EC840074908600748006808
:100E2000FFF7F0FE40E700000020024088130000BA
:100E30000010024008130008C0000020D00100206C
:100E400070B586B014221B4901A8FFF767F91A484C
:100E5000806838210840002817D117480068090227
:100E60000840C10A01268E40134840680721490303
:100E70000840450B042D00D90025A90001AA5058AF
:100E80003146FFF735F9044611E00B4880683821F8
:100E90000840082801D1094C09E00748806838213A
:100EA0000840182802D10124E40300E00024204671
:100EB00006B070BD901300080010024000366E01AD
:100EC00070B50446002C01D1012070BD2078C00708
:100ED000C00F002877D0B248866838210E40082E0F
:100EE00009D10068B103084000286CD06068002870
:100EF00069D10120E9E7606800280DD0A0680028CA
:100F000008D0A74800690C218843A1680843A44978
:100F1000086101E00120D8E700BF012109046068F1
:100F2000884205D19E48006808439D49086021E039
:100F300005210904606888420ED1994800680121A2
:100F4000890408439649086008460068012109049D
:100F50000843934908600DE09148006801210904A5
:100F600088438F4908600846006801218904884346
:100F70008B49086000BF6068002812D0FFF722FE8E
:100F8000054606E0FFF71EFE401BC82801D90320D6
:100F90009BE7834800680121490408400028F1D0FC
:100FA00011E0FFF70FFE054606E0FFF70BFE401BC2
:100FB000C82801D9032088E779480068012149043D
:100FC00008400028F1D102212068084002287BD186
:100FD00073488068382108400646002E48D1704882
:100FE0000068012189020840002804D0E068002838
:100FF00001D1012069E76A484068000C000461697A
:10100000084367494860FFF7DDFD054606E0FFF746
:10101000D9FD401B022801D9032056E7604800682B
:101020000121890208400028F1D0002E18D15C4827
:1010300000680721C90288432169084358490860AC
:10104000FFF7FEFE564989680F2212021140090A75
:101050008900544A515CC906C90EC840524908600B
:1010600052480068FFF7CEFD002847D001202CE74A
:10107000E068002829D04A4800680721C90288434F
:1010800021690843464908600846006889150843F5
:1010900043490860FFF796FD054606E0FFF792FD1D
:1010A000401B022801D903200FE73D4800680121B9
:1010B000890208400028F1D039484068000C00043B
:1010C000616908433649486018E035480068FF21E7
:1010D0000131884332490860FFF774FD054606E098
:1010E000FFF770FD401B022801D90320EDE62C48D4
:1010F00000680121890208400028F1D108212068F8
:101100000840082849D12648806838210840182816
:101110000BD123484030006A0221084000283CD00F
:10112000A069002839D10120CFE6A06900281AD093
:101130001B484030006A01210843194940310862C8
:10114000FFF740FD054606E0FFF73CFD401B022887
:1011500001D90320B9E612484030006A0221084054
:101160000028F1D019E00E484030006A40084000E5
:101170000B4940310862FFF725FD054606E0FFF701
:1011800021FD401B022801D903209EE6044840307F
:10119000006A022108400028F1D1002095E60000F5
:1011A0000010024008130008C0000020D0010020F9
:1011B00070B504462546681E0949884201D90120B8
:1011C0000CE0681E074948610321081F00F010F871
:1011D00000200449886107200861002070BD0000DC
:1011E000FFFFFF0000E000E000BFFEE770470000E7
:1011F00010B5002819DA1A4A03071B0F083B9B0891
:101200009B00D2588307DC0EFF23A3409A438B0731
:101210001B0E8407E40EA3401A43114B0407240F4E
:10122000083CA408A4001A5118E00E4A03231B022C
:10123000D21883089B00D2588307DC0EFF23A340FB
:101240009A438B071B0E8407E40EA3401A43054BF9
:10125000032424021B198408A4001A5110BD0000A5
:101260001CED00E000E100E07047704710B5FFF7AB
:10127000AFFC10BD07484068000C00040121490381
:10128000401805494968084302494860C8030349B2
:101290008860704700100240000FFF1F00ED00E063
:1012A00002E008C8121F08C1002AFAD1704770472F
:1012B000002001E001C1121F002AFBD17047FFF797
:1012C00093FC00210846FFF785F800BF0020FFF7D8
:1012D00071F80028FAD1FFF729F8FEF7F1FFFFF7C0
:1012E00065FBFEF7A9FFFEF795FFFEF7BBFFFFF7D3
:1012F0006FFAFEF7CFFF06E00020FFF74BF8FF2064
:10130000F530FFF72BF9F7E70000000000000000C0
:1013100000000000000000000000000000000000CD
:1013200000000000000000000100000002000000BA
:101330000300000004000000060000000700000099
:10134000080000000900000000000000000000008C
:10135000000000000000000001000000020000008A
:10136000030000000400000000093D0000127A00A4
:101370000024F4004086510100366E0100093D0052
:1013800000093D0000093D002000040006000000A7
:1013900000093D0000127A000024F400408651014B
:1013A00000366E011C0FFF1F300FFF1F440FFF1F81
:1013B000580FFF1F6C0FFF1F1C0FFF1F1C0FFF1F7D
:1013C0001C0FFF1FE413000800000020D8010000DC
:1013D000880100083C140008D8010020180400000F
:1013E000B012000801C113127A1A0101180A8967A4
:1013F00045239A785634AB091ABC091ACD091ADE6E
:10140000091AEF091AF0091A01091A12091A23090F
:101410001A34091A45091A56091937293F093B4058
:10142000293C1AAA011A550109120C095E20311231
:0C143000501A04043132043201000000A4
:04000005080000C12E
:00000001FF
