:020000040800F2
:10000000D8040020D500000839050008350500088F
:1000100000000000000000000000000000000000E0
:10002000000000000000000000000000B70500080C
:100030000000000000000000B5050008B905000838
:10004000000000000000000000000000E7000008C1
:10005000E7000008E7000008E7000008E7000008E4
:100060000000000000000000000000000000000090
:10007000E7000008E7000008E700000800000000B3
:1000800000000000E7000008000000000000000081
:1000900000000000E700000800000000E700000882
:1000A00000000000E700000800000000E700000872
:1000B0000000000000000000000000000000000040
:1000C0000348854600F02AF800480047410100082F
:1000D000D80400200448804704480047FEE7FEE7B4
:1000E000FEE7FEE7FEE7FEE7C1050008C1000008E5
:1000F00030B50B46014600202022012409E00D46C0
:10010000D5409D4205D31D469540491B2546954047
:1001100040191546521E002DF1DC30BD064C01255C
:10012000064E05E0E36807CC2B430C3C984710349F
:10013000B442F7D3FFF7C8FF2C0600084C060008AE
:1001400070B50125ED06002406E0A0002858A100A6
:10015000064A5050601CC4B2302CF6DB0120400728
:100160000349886000F051FA002070BD00000020B3
:1001700000ED00E010B586B0044600BF00BF144893
:10018000406B01210843124948630846406BC00791
:10019000C00F009000BF00BF00BF60000D49085AAB
:1001A0000190012002900020039002200490A10001
:1001B000094A505801A900F05BF86200054B995AB2
:1001C000A200054B9858012200F034F906B010BD8A
:1001D0000010024024060008C400002010B50446A8
:1001E0006200044B995AA200034B985800F01AF988
:1001F00010BD000024060008C400002000B587B030
:1002000000BF0D48406B022108430B494863084674
:10021000406B02210840019000BF00BF07480390D7
:1002200001200490022005900420029002A90448B5
:1002300000F01EF807B000BD0010024000002210C0
:100240000004005070B5044600F0FAF80646254652
:10025000681C002802D0054800682D1800BF00F077
:10026000EFF8801BA842FAD370BD0000D400002034
:1002700070B503460022CBE0012696400C6834405E
:10028000002C71D04D68022D02D04D68122D15D171
:10029000D508AE001D462035A8595507EE0E0F258E
:1002A000B5400646AE4330465607F60E0D69B540DA
:1002B0002843D508AD001E462036705118685600F8
:1002C0000325B5400646AE4330460D79AD07AD0F68
:1002D0005600B540284318604D68012D08D04D6880
:1002E000022D05D04D68112D02D04D68122D18D168
:1002F000986856000325B5400646AE433046560082
:10030000CD68B54028439860586801259540064659
:10031000AE43304610264D6835402D0995402843A0
:100320005860D86856000325B5400646AE433046AF
:1003300056008D68B5402843D860012636074D68C1
:100340003540B54263D1354D9608B600A85995079A
:10035000EE0E0F25B5400646AE43304605252D0767
:10036000AB4202D1002506E051E02D4DAB4201D158
:10037000012500E002259607F60EB5402843274DDB
:100380009608B600A851254D203528680546A54396
:100390002846012636044D683540B54202D105464F
:1003A000254328461D4D2035286068680546A5432D
:1003B0002846012676044D683540B54202D10546EF
:1003C00025432846154D20356860144D603D28684A
:1003D0000546A5432846012636054D683540B542F9
:1003E00002D10546254328460C4D603D28606868CB
:1003F0000546A5432846012676054D683540B54299
:1004000002D1054625432846044D603D6860521CD4
:100410000D68D540002D00D02EE770BD6018024059
:100420000004005042690A40002A01D0816200E0C5
:1004300081617047002A01D0816100E081627047CC
:100440000148006870470000CC00002003480068A5
:10045000034909684018014908607047CC00002032
:10046000D400002010B50024032000F009F8002873
:1004700001D0012401E000F033F8204610BD000057
:10048000F8B5044600251348006800281ED011481E
:1004900001687D20C000FFF72BFE074639460E4855
:1004A0000068FFF725FE064600F028F800280BD16B
:1004B000042C07D200222146401E00F016F80748FF
:1004C000046004E0012502E0012500E00125284642
:1004D000F8BD0000D4000020C0000020D0000020A3
:1004E00010B50020FFF746FE10BD70B504460D465E
:1004F00016462946204600F021F870BD70B5044626
:100500002546681E0949884201D901200CE0681E71
:10051000074948610321081F00F010F80020044932
:10052000886107200861002070BD0000FFFFFF0008
:1005300000E000E000BFFEE77047000010B50028B3
:1005400019DA1A4A03071B0F083B9B089B00D25875
:100550008307DC0EFF23A3409A438B071B0E8407FF
:10056000E40EA3401A43114B0407240F083CA408CF
:10057000A4001A5118E00E4A03231B02D218830864
:100580009B00D2588307DC0EFF23A3409A438B07BE
:100590001B0E8407E40EA3401A43054B03242402D8
:1005A0001B198408A4001A5110BD00001CED00E0C6
:1005B00000E100E07047704710B5FFF747FF10BD3E
:1005C00007484068000C0004012149034018054910
:1005D0004968084302494860C80303498860704776
:1005E00000100240000FFF1F00ED00E002E008C80D
:1005F000121F08C1002AFAD170477047002001E09D
:1006000001C1121F002AFBD17047FFF72BFFFFF734
:10061000F5FD06E00020FFF7E1FDFF20F530FFF7D4
:1006200011FEF7E720000400060000004C06000859
:1006300000000020D8000000EC0500082407000896
:10064000D800002000040000FC05000800000000A5
:10065000000000000000000000000000000000009A
:10066000000000000000000000000000000000008A
:10067000000000000000000000000000000000007A
:10068000000000000000000000000000000000006A
:10069000000000000000000000000000000000005A
:1006A000000000000000000000000000000000004A
:1006B000000000000000000000000000000000003A
:1006C000000000000000000000000000000000002A
:1006D000000000000000000000000000000000001A
:1006E000000000000000000000000000000000000A
:1006F00000000000000000000000000000000000FA
:1007000000000000000000000000000000127A005D
:100710000000005000040050000000000400000031
:0407200001000000D4
:04000005080000C12E
:00000001FF
