:0300000002067283
:0C067200787FE4F6D8FD75814D0206B9D2
:030AD50001190103
:100AAA00E51A6022E5196401700BAD19AF1B12003B
:100ABA00B675190222E5196402700FAD19AF1C123E
:0A0ACA0000B675190122C2CCC290DB
:010AD40022FF
:1000B600C2CCC290EFB4110040030201B19000CA55
:1000C600F82828730200FD02010602010A02011245
:1000D60002011D0201270201310201330201310230
:1000E600014502015102015D020169020175020129
:1000F600810201910201A1D2B5D296D2940201A742
:10010600C2B5802BD2B5D296C2948069D2B5D296AA
:10011600D294D2920201B9C2B5D296D294C292803A
:1001260026D2B5C296D294D292801C800CD2B5D279
:1001360096D294C292C293805CD2B5D296801CD2DB
:10014600B5D296D294D292C293803AD2B5D296D2F2
:1001560094C292D293802EC2B5C296D294D292D233
:10016600938022D2B5C296D294D292D2938016C2EE
:10017600B5D296D294D292D293803AD2B5C296C2D2
:1001860094D292D293D2B7D2B4802ED2B5D296C29E
:1001960094D292D293C2B7C2B4801EC2B5C296C2DE
:1001A60094D292D293D2B7C2B4800EC2B5C296C2CE
:1001B60094C292C293C2B7D2B4ED64017003D2CC9A
:0401C60022D290228F
:090AD8000146FF0148000147003E
:1008A00012094C120BAC120BC2120BD5120006121D
:1008B0000C4C120C42120C0AD2AF7FF47E01120CC7
:1008C0002875C123120C36E4FF120845E4F54912DD
:1008D0000A08EF600C43C1107FF47E01120C2880DF
:1008E000EE43C11012098C120B22EF70F4120B951B
:0808F000120C5A12002E80E9DF
:10094C0053B14F43B2B05391A343925C5391FE43C6
:10095C00920153C9EF43CA10C2CCC29643BA8090DD
:10096C00FE1BE054F7F053BA7F43B10853B2F75370
:10097C00917F439280C2975391FD439202D2912270
:0E0C2800EF1FAC0670011E4C60030080F3222B
:100BE800EF6401700485384622854638AF3812080C
:010BF80045B7
:010BF90022D9
:100845008F3ED209751A01120A7EEF6003753E06C6
:10085500E53E14601614601B1460221460291460B0
:100865003024057035E4F51AF54922751BFF751C12
:10087500FF8024751B10751C0175490122751B101D
:10088500751C0275490222751B10751C03754903F9
:0B08950022751B0E751C01E4F54922C2
:100BAC00538E7F5389F0438902758ABA758CBAC209
:060BBC008DD28CD2A922AB
:100BC200538EBF53890F758BDC758D0BC28FD28EFE
:030BD200D2AB2281
:100BD50053EFFE538EFB75D77875D6EC538EEF75B4
:030BE500AF042238
:05000600D288D2A822FF
:03000300020A44AA
:100A4400C0E0C0D0538EEFE54914600E1460151455
:100A5400601C2403701CC297801BC29775D6F27564
:100A6400D7DA800EC29775D6F975D73C8004D29731
:0A0A74008003438E10D0D0D0E03292
:030053000201FEA9
:0101FE0032CE
:03000B000207E405
:1007E400C0E0C0F0C083C082C0D075D000C000C0DB
:1007F40001C002C003C004C005C006C007C3E52C85
:1008040094FC748094805002052C054BE54B7002D7
:10081400054AAF480548D3EF942874809480400675
:10082400754800120AAAD007D006D005D004D00318
:10083400D002D001D000D0D0D082D083D0F0D0E08C
:010844003281
:03001B00020B4491
:040B4400C0E0C0D07D
:100B4800054D0547C3E547940874809480400575B2
:040B58004700D2017F
:050B5C00D0D0D0E03212
:03006300020C5438
:060C540053EFFED29732BF
:100AE100C105C106012C00013800013D0004390097
:060AF100000000012200DC
:080C4C00E4F538D20502000EA8
:100B9500300613D3E52C94F0748094804008E4F576
:070BA5002CC20612077922A1
:10077900E4FFFEFDFCECC3953D5019742D2CF8E601
:10078900FB7A0064BB70030E8007EB641B4A70019F
:100799000D0C80E1E53D6042EED39D40047FBB80B6
:1007A90007EEC39D50027F1BE4F53DEF24E560167B
:1007B900246070263004230538D3E5389404748006
:1007C90094804011800C300407C204E4F538800598
:0A07D900D204753801AF381208454C
:0107E30022F3
:1001CA00E4FFFEEEFD7C00D39407748094805023F4
:1001DA0074232EF8E6C39405748094804003430781
:1001EA0080C3ED9407EC648094805004EFC313FF3E
:0301FA000E80D0A4
:0101FD0022DF
:05000E00D28AD2AA22F3
:030013000206FEE4
:1006FE00C0E0C0D075D000C000C004C005C006C0A8
:01070E0007E3
:10070F00300519C28AD2AAC205D3E52C943274805F
:10071F0094804044752201753700803CD28AD2AA5A
:10072F00D205E522603274232537F8A62C752C00EC
:10073F000537E53764087020D206F537F522120128
:10074F00CA742D253DF8A607053DC3E53D940A74EF
:0B075F008094804003753D00752C0065
:0F076A00D007D006D005D004D000D0D0D0E032D8
:040AF700C107C1086A
:0A0C4200E4F54AF54BC207C2082290
:060C5A001209CC020AFEA3
:1009CC0020B61A300702802CD3E54B94F4E54A94F8
:1009DC00014026E4F54AF54BD2077F01223007147B
:1009EC00D3E54B94D0E54A9407400EE4F54AF54B19
:0C09FC00C2078005E4F54AF54B7F00229D
:100AFE0030071E20081DD2080538D204D3E53894DD
:100B0E0004748094804005E4F538C204AF380208BE
:040B1E0045C20822A2
:060C6000D2A8758F1022DE
:020AFB00C10038
:0C0C3600C202C203C201E4F51F020B6100
:10098C0030013CC2017F05120207EF7003EE6410C8
:10099C00602DC3EF94DDEE94015004D203800BD391
:1009AC00EF942CEE94024014C203AF1F051FD3EF3B
:0F09BC009404748094804007A2039202E4F51F14
:0109CB002209
:100B22003002127F051208452000077F01120BE8F0
:100B3200D2007F0122300007C200E4FF120BE87FDF
:010B420000B2
:010B4300228F
:100B6100753E1FE4F544754501F53F754101FB7A7A
:0B0B710000793E1204FE7F0102001E0E
:1004FE009000011205DEFFE5DE54F04FF5DE9000B0
:10050E00021205DE6401700543BC80800353BC7F7C
:10051E009000031205DE6401700543DE2080035354
:10052E00DEDF9000051205DE64017004D2AD80029C
:10053E00C2AD9000041205DEFF7E00D394037480DA
:10054E0094805072EF700553B7DFC2BDEF64014E59
:10055E00700553B7DFD2BDEF64024E700543B7206E
:10056E00C2BDEF64034E700543B720D2BD1205C560
:10057E00D3941F74809480503D9000061205DEFFC8
:10058E00D3940174809480502D9000071205DEFEE6
:10059E00D3940374809480501D43BA80EEC43354B8
:1005AE00E0FEEFC433333354804EFF1205C54F9037
:0705BE00FEA8F053BA7F22F2
:0D001E00EF6401700443BC802253BC7F22BC
:10020700EFD3940F7480948040028063E4F5BDF5CA
:10021700BEE5BC54F044404FF5BC00000000E4FDCF
:10022700EDC394FA748094805045E5BC30E53D53A6
:10023700BCDFE5DEAFBD30E50EEFFEACBEECFBEE9E
:10024700F53EEBF53F8020753E008F3FE5BEC45479
:100257000FFBE53FC4F8540FC868FFE53EC454F0F0
:1002670048F53EEF4BF53FAE3EAF3F220D80B17EE6
:03027700107F00F5
:01027A002261
:03002B000200AF21
:0400AF0053BCDF322D
:0F0C0A00D209120B7C7F7F1200167F0202027B41
:10002E00300910C209E4F54D7F7F120016E4F5F297
:10003E00D2DE22E54DD3954C400AE4F54DC2DE5397
:05004E00F2C0F5FA22EA
:0300B300020056F2
:0D005600C0E0E5F630E30353F6F7D0E032EA
:03027B008F4C2283
:100B7C0053A2E7E4F5D875D980F5E9F5F975DA42B1
:090B8C00F5F275EA7F75FA7F228B
:050016008FEA8FFA22C1
:07020000FFFFFFFFFFFFFFFE
:07028000FFFFFFFFFFFFFF7E
:080066007F02EF7F00FE7B002A
:06006E008B3F8A4089412E
:10007400C2AFAA06A9077508FF8A09890AE4FFEF37
:10008400C3940774809480501FAB08AA09A90A8FEF
:10009400827583001205DEAB3FAA40A9418F8275A9
:0A00A40083001206500F80D7D2AF80
:0100AE00222F
:0608F8008B3F8A4089419C
:1008FE00E4FFEFC39407748094805041AB3FAA404D
:10090E00A9418F82758300740B12060BE92FF9E44F
:10091E003AFA1205C5645512063EAB3FAA40A941EC
:10092E008F8275830074C212060BE92FF9E43AFA2E
:0D093E001205C525E025E012063E0F80B52C
:01094B002289
:0F0C19007F02EFFE7F807B007A00790B02006E76
:100BFA007A0079121200667B007A0079120208F8EC
:100A7E00E4FD120C19120BFAE4FFEFC39407748015
:100A8E009480501574122FF8E6FE740B2FF8E66E54
:0B0A9E0060047D0180030F80E1AF05C4
:010AA900222A
:100A0800E4FD7A00790B1200667F1FEFFE7FF97B09
:100A1800007A00791212006EE4FFEFC39407748025
:100A28009480501574122FF8E6FE740B2FF8E66EBA
:0B0A380060047D0180030F80E1AF052A
:010A43002290
:10028700EFD394077480948040037FFF221205C543
:10029700FED394037480948040037FFF22EF704461
:1002A700EE700B9000011205DEF452935294120582
:1002B700C56401700B9000011205DE4293F452945D
:1002C7001205C5FE6402700A9000011205DE429312
:1002D7004294EE6403700D9000011205DEFEF452A5
:1002E70093EE4294EF640170461205C5FE700B90C1
:1002F70000011205DEF452915292EE6401700B90E8
:1003070000011205DE4291F452921205C564027093
:100317000A9000011205DE429142921205C564035C
:10032700700D9000011205DEFEF45291EE4292EF3D
:10033700640270461205C5FE700B9000011205DEBF
:10034700F452955296EE6401700B9000011205DE8F
:100357004295F452961205C56402700A9000011284
:1003670005DE429542961205C56403700D900001A3
:100377001205DEFEF45295EE4296EF6403704612C4
:1003870005C5FE700B9000011205DEF452B152B2A2
:10039700EE6401700B9000011205DE42B1F452B217
:1003A7001205C56402700A9000011205DE42B142CF
:1003B700B21205C56403700D9000011205DEFEF44C
:1003C70052B1EE42B2EF640470461205C5FE700BDF
:1003D7009000011205DEF452B352B4EE6401700BC3
:1003E7009000011205DE42B3F452B41205C564024F
:1003F700700A9000011205DE42B342B41205C564CB
:1004070003700D9000011205DEFEF452B3EE42B404
:10041700EF640570461205C5FE700B9000011205CA
:10042700DEF452C952CAEE6401700B900001120546
:10043700DE42C9F452CA1205C56402700A9000016F
:100447001205DE42C942CA1205C56403700D900049
:10045700011205DEFEF452C9EE42CAEF6406704689
:100467001205C5FE700B9000011205DEF452CB5247
:10047700CCEE6401700B9000011205DE42CBF45202
:10048700CC1205C56402700A9000011205DE42CB4A
:1004970042CC1205C56403700D9000011205DEFE03
:1004A700F452CBEE42CCEF640770491205C5FF7ECC
:1004B70000700B9000011205DEF452E152E2EF6486
:1004C700014E700B9000011205DE42E1F452E21278
:1004D70005C56402700A9000011205DE42E142E29E
:1004E7001205C56403700D9000011205DEFFF4527A
:0704F700E1EF42E27F002269
:10067E000208A0E493A3F8E493A34003F68001F2EA
:10068E0008DFF48029E493A3F85407240CC8C3337D
:10069E00C4540F4420C8834004F456800146F6DF4C
:1006AE00E4800B0102040810204080900AD5E47EFD
:1006BE00019360BCA3FF543F30E509541FFEE49341
:1006CE00A360010ECF54C025E060A840B8E493A308
:1006DE00FAE493A3F8E493A3C8C582C8CAC583CA33
:1006EE00F0A3C8C582C8CAC583CADFE9DEE780BEEB
:010AFD0000F8
:1005C500BB010689828A83E0225002E722BBFE0234
:0905D500E32289828A83E4932267
:1005DE00BB010CE58229F582E5833AF583E02250D2
:1005EE0006E92582F8E622BBFE06E92582F8E2221C
:0D05FE00E58229F582E5833AF583E4932236
:10060B00BB010FF8E58229F582E5833AF583E028F3
:10061B00F0225009C58229F8E58226F622BBFE0995
:10062B00C58229F8E22582F222F8EA2583F583E9CF
:03063B00932822DF
:10063E00BB010689828A83F0225002F722BBFE019B
:02064E00F32295
:10065000F8BB010DE58229F582E5833AF583E8F0E0
:10066000225006E92582C8F622BBFE05E92582C88C
:02067000F22274
:00000001FF
