:10000000020894D28AD2AAD203223202023A43C10F
:020010001022BC
:030013000200C028
:10001B0002011420B41A300002802CD3E52494F48E
:10002B00E52394014026E4F523F524D2007F012239
:10003B00300014D3E52494D0E5239407400EE4F567
:0F004B0023F524C2008005E4F523F5247F00226D
:10005B0002000AE4F50B1201ACD2AF1202581202E5
:10006B006E1200037FE87E03120281300624C20663
:10007B00E4F52ED20212014DAE41054174302EF83B
:10008B00A607C3E541940A74809480401BE4F541B4
:10009B008016D3E52E940174809480400B300208B7
:1000AB00E4F52EC20212080012001EEF6002D2010C
:1000BB0012021A80B6C0E0C0D075D000C000300369
:1000CB001FC28AD2AAC203D3E52F943C74809480BA
:1000DB004009852F25753B01752101752F00802265
:1000EB00D28AD2AAD203E52160187425253BF8A643
:1000FB002F752F00053BE53B64097006D206F53BD7
:10010B00F521D000D0D0D0E032C0E0C0D030020218
:10011B00052E0522C3E522940874809480401E7539
:10012B002200753A01300515E5402401F540E43510
:10013B003FF53FE4353EF53EE4353DF53DD0D0D0BF
:10014B00E032E4FF7E01FDEDD39407748094805080
:10015B002374252EF8E6D3940574809480400343D2
:10016B000780EDC39407748094805004EFC313FF92
:10017B000E0D80D322EF4E6012EF60010EEDBB012E
:10018B000B89828A83F0A3DFFCDEFA2289F0500709
:10019B00F709DFFCA9F022BBFEFCF309DFFCA9F099
:1001AB002243BA8090FE13E04403F053BA7F53917D
:1001BB00FE43920153B13F43B2C043B11853B2E770
:1001CB00C2B7C290C2B622C106012F00C100C10442
:1001DB00C103C102013C00043D00000000013A00D4
:1001EB00012E0001410001210001220000EF1460EB
:1001FB000F14601114601324037013C2B7C2902242
:10020B00D2B7C29022C2B7D29022D2B7D2902230AC
:10021B00001A200419D204053CC3E53C94047480F5
:10022B0094804003753C01AF3C0201F8C20422C02C
:10023B00E0C0D0C3E52F94F0748094805002052F5A
:10024B000524E52470020523D0D0D0E032538E7FF5
:10025B005389F0438902758ABA758CBAC28DD28CD8
:10026B00D2A922538EBF53890F758BDC758D0BC2B0
:10027B008FD28ED2AB22EF1FAC0670011E4C6003E7
:0E028B000080F3228B088A09890A75C123229C
:10080000E4FFFEFDEDC39541501974302DF8E6FB71
:100810007A0064BB70030F8007EB641B4A70010E03
:100820000D80E1E541606CC313FDEFD39D400AEFFD
:10083000D39E4005750CBB800CEED39D4007EF9E08
:100840005003750C1B7E007F0A7D007B007A0079C7
:1008500030120180E4F541E50C24E5601924607054
:100860003230012A053CC3E53C94047480948040F6
:100870001D753C018018300107C201E4F53C80057C
:10088000D201753C01E4F540F53FF53EF53DAF3C46
:100890001201F822787FE4F6D8FD7581410208DB69
:1008A00002005EE493A3F8E493A34003F68001F210
:1008B00008DFF48029E493A3F85407240CC8C33359
:1008C000C4540F4420C8834004F456800146F6DF28
:1008D000E4800B01020408102040809001D2E47EE5
:1008E000019360BCA3FF543F30E509541FFEE4931D
:1008F000A360010ECF54C025E060A840B8E493A3E4
:10090000FAE493A3F8E493A3C8C582C8CAC583CA0E
:10091000F0A3C8C582C8CAC583CADFE9DEE780BEC6
:101000002A2A2A257535463030257535334445253D
:1010100075383030352575464631412575353436BD
:10102000382575363736382575364345325554469A
:051030002D382A2A2AD8
:00000001FF
