:020000040800F2
:10000000F0040020D500000801080008FD070008E2
:1000100000000000000000000000000000000000E0
:100020000000000000000000000000007F08000841
:1000300000000000000000007D08000881080008A2
:10004000000000000000000000000000E7000008C1
:10005000E7000008E7000008E7000008E7000008E4
:100060000000000000000000000000000000000090
:10007000E7000008E7000008E700000800000000B3
:1000800000000000E7000008000000000000000081
:1000900000000000E700000800000000E700000882
:1000A00000000000E700000800000000E700000872
:1000B0000000000000000000000000000000000040
:1000C0000348854600F02AF800480047410100082F
:1000D000F00400200448804704480047FEE7FEE79C
:1000E000FEE7FEE7FEE7FEE789080008C10000081A
:1000F00030B50B46014600202022012409E00D46C0
:10010000D5409D4205D31D469540491B2546954047
:1001100040191546521E002DF1DC30BD064C01255C
:10012000064E05E0E36807CC2B430C3C984710349F
:10013000B442F7D3FFF7C8FF440900086409000878
:1001400070B50125ED06002406E0A0002858A100A6
:10015000064A5050601CC4B2302CF6DB0120400728
:100160000349886000F0B6FB002070BD000000204D
:1001700000ED00E010B586B0044600BF00BF144893
:10018000406B01210843124948630846406BC00791
:10019000C00F009000BF00BF00BF60000D49085AAB
:1001A0000190012002900020039002200490A10001
:1001B000094A505801A900F0C7F96200054B995A45
:1001C000A200054B9858012200F098FA06B010BD25
:1001D000001002401C090008C40000200448006A06
:1001E000C1B2AA2901D1AA2070470846FCE7000045
:1001F000002002400449096A090A0902DF221202AA
:1002000011400846704700000020024030B5064CFF
:10021000236AFF2404431D46A5432B461C460C437A
:100220001443014D2C6230BD0020024070B50446DD
:1002300000F06AFA051905E000F066FAA84201D359
:10024000032070BD06480069012109040840000C24
:100250000028F1D10348024908610020F1E70000BD
:100260000020024011800000012007494969C207AF
:100270001143054A516111464969C90FC90700294F
:1002800000D00020704700000020024070B50446F6
:10029000012500BF7E480078012801D1022070BDF1
:1002A00001207B49087000BF00BF7A4949680722D6
:1002B00052031140480B784909688200774B9A58DD
:1002C0001278914244D17449496882009A58126860
:1002D000D201D20D91423BD16F49096982009A58EF
:1002E00012881204120E914232D16B498968820041
:1002F0009A58127991422BD16749C96882009A585D
:1003000052685201520D914222D1634949698200DB
:100310009A589268D203D20B914219D15E498969E9
:1003200082009A58D268D203D20B914210D15A4916
:10033000C96982009A58128A92B2914208D15649EC
:10034000096A82009A5812699200920C914244D034
:1003500000BF8100514A515809784F4A116081000D
:100360004E4A51580968C901C90D4B4A5160810074
:100370004A4A515809880904090E474A1161810007
:10038000464A51580979444A91608100434A51587C
:1003900049684901490D404AD16081003F4A51589E
:1003A0008968C903C90B3C4A516181003B4A5158D5
:1003B000C968C903C90B384A91618100374A51584D
:1003C000098A89B2344AD1618100344A5158096995
:1003D0008900890C304A116200BF00BF2078C00735
:1003E000C00F002804D0A088C04380B22C49C86246
:1003F000022120680840002805D0E1680902A068B1
:100400000843274948620C21206808400C2805D180
:100410002269A1696069FFF7F9FE1AE004212068EA
:100420000840002808D0FFF7E5FE06463146304672
:100430002269FFF7EBFE0CE0082120680840002845
:1004400007D0FFF7CBFE06463246A1696069FFF789
:10045000DDFE134840690121490408431049486101
:10046000084640690121090608430D494861FF20FB
:100470000949803908607D20C000FFF7D7FE054696
:1004800000BF00200249087000BF284607E70000AF
:10049000D80000200010024000210240240900087A
:1004A00000200240044840690121C906084302496E
:1004B00048610120704700000020024001200749E8
:1004C000496982071143054A51611146496982070A
:1004D0001140002900D00020704700000020024099
:1004E0000120094949698207114000290BD00749B9
:1004F000054AD1600649D160114649698207114019
:10050000002900D100207047002002403B2A190832
:100510007F6E5D4C002009494969C90FC907002950
:100520000BD00749054A9160064991601146496917
:10053000C90FC907002900D00120704700200240E0
:1005400023016745AB89EFCD70B503460022CBE0B0
:10055000012696400C683440002C71D04D68022D65
:1005600002D04D68122D15D1D508AE001D4620359C
:10057000A8595507EE0E0F25B5400646AE43304646
:100580005607F60E0D69B5402843D508AD001E4646
:1005900020367051186856000325B5400646AE4314
:1005A00030460D79AD07AD0F5600B54028431860B1
:1005B0004D68012D08D04D68022D05D04D68112DD4
:1005C00002D04D68122D18D1986856000325B54009
:1005D0000646AE4330465600CD68B5402843986085
:1005E0005868012595400646AE43304610264D68B2
:1005F00035402D09954028435860D868560003259A
:10060000B5400646AE43304656008D68B540284397
:10061000D860012636074D683540B54263D1354D67
:100620009608B600A8599507EE0E0F25B540064668
:10063000AE43304605252D07AB4202D1002506E02A
:1006400051E02D4DAB4201D1012500E00225960776
:10065000F60EB5402843274D9608B600A851254D03
:10066000203528680546A5432846012636044D68EE
:100670003540B54202D10546254328461D4D20355B
:10068000286068680546A5432846012676044D681B
:100690003540B54202D1054625432846154D203543
:1006A0006860144D603D28680546A543284601262C
:1006B00036054D683540B54202D1054625432846EA
:1006C0000C4D603D286068680546A5432846012614
:1006D00076054D683540B54202D10546254328468A
:1006E000044D603D6860521C0D68D540002D00D05F
:1006F0002EE770BD6018024000040050002A01D0AF
:10070000816100E081627047014800687047000025
:10071000CC000020034800680349096840180149DB
:1007200008607047CC000020D400002010B50024E1
:10073000032000F009F8002801D0012401E000F0B6
:1007400033F8204610BD0000F8B5044600251348D4
:10075000006800281ED0114801687D20C000FFF706
:10076000C7FC074639460E480068FFF7C1FC06463D
:1007700000F028F800280BD1042C07D200222146D3
:10078000401E00F016F80748046004E0012502E06E
:10079000012500E001252846F8BD0000D400002016
:1007A000C0000020D000002010B50020FFF7E2FCC0
:1007B00010BD70B504460D4616462946204600F089
:1007C00021F870BD70B504462546681E0949884267
:1007D00001D901200CE0681E074948610321081F68
:1007E00000F010F80020044988610720086100200B
:1007F00070BD0000FFFFFF0000E000E000BFFEE76B
:100800007047000010B5002819DA1A4A03071B0FB9
:10081000083B9B089B00D2588307DC0EFF23A340B4
:100820009A438B071B0E8407E40EA3401A43114B17
:100830000407240F083CA408A4001A5118E00E4A2B
:1008400003231B02D21883089B00D2588307DC0EB7
:10085000FF23A3409A438B071B0E8407E40EA3409B
:100860001A43054B032424021B198408A4001A51BF
:1008700010BD00001CED00E000E100E07047704793
:1008800010B5FFF747FF10BD07484068000C000493
:100890000121490340180549496808430249486055
:1008A000C80303498860704700100240000FFF1F13
:1008B00000ED00E002E008C8121F08C1002AFAD1CA
:1008C00070477047002001E001C1121F002AFBD1D0
:1008D0007047000088B0FFF729FF0F48006A012128
:1008E00089030840002814D1FFF714FEFFF7F8FD34
:1008F00008200190DF20000206906F204002079040
:1009000001A8FFF7C3FCFFF7AFFCFFF7D7FDFFF728
:10091000C9FD00BFFEE700000020024020000400E7
:10092000060000001C0FFF1F300FFF1F440FFF1FAA
:10093000580FFF1F6C0FFF1F1C0FFF1F1C0FFF1F07
:100940001C0FFF1F6409000800000020D8000000F1
:10095000B40800083C0A0008D80000201804000071
:10096000C4080008000000000000000000000000B3
:100970000000000000000000000000000000000077
:100980000000000000000000000000000000000067
:100990000000000000000000000000000000000057
:1009A0000000000000000000000000000000000047
:1009B0000000000000000000000000000000000037
:1009C0000000000000000000000000000000000027
:1009D0000000000000000000000000000000000017
:1009E0000000000000000000000000000000000007
:1009F00000000000000000000000000000000000F7
:100A000000000000000000000000000000000000E6
:100A100000000000000000000000000000000000D6
:100A20000000000000127A00000000500004005096
:0C0A3000000000000400000001000000B5
:04000005080000C12E
:00000001FF
